{
  "contractName": "Reward",
  "abi": [
    {
      "inputs": [],
      "stateMutability": "nonpayable",
      "type": "constructor"
    },
    {
      "anonymous": false,
      "inputs": [
        {
          "indexed": false,
          "internalType": "string",
          "name": "account",
          "type": "string"
        },
        {
          "indexed": false,
          "internalType": "uint256",
          "name": "value",
          "type": "uint256"
        },
        {
          "indexed": false,
          "internalType": "string",
          "name": "transferMessage",
          "type": "string"
        }
      ],
      "name": "Transfer",
      "type": "event"
    },
    {
      "inputs": [
        {
          "internalType": "uint256",
          "name": "index_",
          "type": "uint256"
        }
      ],
      "name": "name",
      "outputs": [
        {
          "internalType": "string",
          "name": "",
          "type": "string"
        }
      ],
      "stateMutability": "view",
      "type": "function"
    },
    {
      "inputs": [
        {
          "internalType": "uint256",
          "name": "index_",
          "type": "uint256"
        }
      ],
      "name": "symbol",
      "outputs": [
        {
          "internalType": "string",
          "name": "",
          "type": "string"
        }
      ],
      "stateMutability": "view",
      "type": "function"
    },
    {
      "inputs": [
        {
          "internalType": "string",
          "name": "account",
          "type": "string"
        }
      ],
      "name": "balanceOf",
      "outputs": [
        {
          "internalType": "uint256",
          "name": "",
          "type": "uint256"
        }
      ],
      "stateMutability": "view",
      "type": "function"
    },
    {
      "inputs": [
        {
          "internalType": "string",
          "name": "to",
          "type": "string"
        },
        {
          "internalType": "uint256",
          "name": "amount",
          "type": "uint256"
        }
      ],
      "name": "transfer",
      "outputs": [
        {
          "internalType": "bool",
          "name": "",
          "type": "bool"
        }
      ],
      "stateMutability": "nonpayable",
      "type": "function"
    },
    {
      "inputs": [
        {
          "internalType": "string",
          "name": "from",
          "type": "string"
        },
        {
          "internalType": "string",
          "name": "to",
          "type": "string"
        },
        {
          "internalType": "uint256",
          "name": "amount",
          "type": "uint256"
        }
      ],
      "name": "transferFrom",
      "outputs": [
        {
          "internalType": "bool",
          "name": "",
          "type": "bool"
        }
      ],
      "stateMutability": "nonpayable",
      "type": "function"
    }
  ],
  "bytecode": "0x600080546001600160a01b031916735df848c79f19e9a8ff59f83ed1a862da26aeba3e17905560c0604052601060809081526f7272722d7672696b726973616e6e656560801b60a05260069062000057908262000125565b503480156200006557600080fd5b506000600581905560028190556003819055600455620001f1565b634e487b7160e01b600052604160045260246000fd5b600181811c90821680620000ab57607f821691505b602082108103620000cc57634e487b7160e01b600052602260045260246000fd5b50919050565b601f8211156200012057600081815260208120601f850160051c81016020861015620000fb5750805b601f850160051c820191505b818110156200011c5782815560010162000107565b5050505b505050565b81516001600160401b0381111562000141576200014162000080565b620001598162000152845462000096565b84620000d2565b602080601f831160018114620001915760008415620001785750858301515b600019600386901b1c1916600185901b1785556200011c565b600085815260208120601f198616915b82811015620001c257888601518255948401946001909101908401620001a1565b5085821015620001e15787850151600019600388901b60f8161c191681555b5050505050600190811b01905550565b6111fe80620002016000396000f3fe608060405234801561001057600080fd5b50600436106100565760003560e01c8062ad800c1461005b57806312cb70c71461008457806335ee5f87146100a75780634e41a1fb146100c85780635d1b1e6d146100db575b600080fd5b61006e610069366004610d0a565b6100ee565b60405161007b9190610d47565b60405180910390f35b610097610092366004610e1d565b6101a6565b604051901515815260200161007b565b6100ba6100b5366004610e62565b610657565b60405190815260200161007b565b61006e6100d6366004610d0a565b610697565b6100976100e9366004610e9f565b6106cd565b6001546060906001600160a01b0316331461010857600080fd5b6000828152600a60205260409020805461012190610f0c565b80601f016020809104026020016040519081016040528092919081815260200182805461014d90610f0c565b801561019a5780601f1061016f5761010080835404028352916020019161019a565b820191906000526020600020905b81548152906001019060200180831161017d57829003601f168201915b50505050509050919050565b6001546000906001600160a01b031633146101c057600080fd5b60005460405163b08eff9360e01b81526001600160a01b039091169063b08eff93906101f0908690600401610d47565b602060405180830381865afa15801561020d573d6000803e3d6000fd5b505050506040513d601f19601f820116820180604052508101906102319190610f46565b806102a8575060005460405163fb24ab0f60e01b81526001600160a01b039091169063fb24ab0f90610267908690600401610d47565b602060405180830381865afa158015610284573d6000803e3d6000fd5b505050506040513d601f19601f820116820180604052508101906102a89190610f46565b6102b157600080fd5b60006007846040516102c39190610f68565b9081526040519081900360200190205490506102df8184610c8b565b6007856040516102ef9190610f68565b9081526040519081900360200190205560008367ffffffffffffffff81111561031a5761031a610d7a565b604051908082528060200260200182016040528015610343578160200160208202803683370190505b50905060005b848110156104375760025461035f906001610c8b565b60025560408051606081019091528061037d60068960808401610ff7565b60408051601f1981840301815291815290825280518082018252600881526729a2a6232aa9a2a960c11b602082810191909152830152016103c14262786450610c8b565b90526002546000908152600a60205260409020815181906103e2908261106b565b50602082015160018201906103f7908261106b565b506040820151816002015590505060025482828151811061041a5761041a61112b565b60209081029190910101528061042f81611157565b915050610349565b50600354610446906001610c8b565b6003556040805160808101825282815260208101869052428183015260016060820152905160089061047a90600690611170565b9081526020016040518091039020866040516104969190610f68565b90815260408051602092819003830190206003546000908152908352208251805191926104c892849290910190610caa565b506020820151600182810191909155604083015160028301556060909201516003909101805460ff191691151591909117905560045461050791610c8b565b6004819055506040518060c001604052806006805461052590610f0c565b80601f016020809104026020016040519081016040528092919081815260200182805461055190610f0c565b801561059e5780601f106105735761010080835404028352916020019161059e565b820191906000526020600020905b81548152906001019060200180831161058157829003601f168201915b50505091835250506020808201889052604080830185905260608301889052426080840152600160a0909301929092526004546000908152600990915220815181906105ea908261106b565b50602082015160018201906105ff908261106b565b506040820151805161061b916002840191602090910190610caa565b50606082015160038201556080820151600482015560a0909101516005909101805460ff19169115159190911790555060019150505b92915050565b6001546000906001600160a01b0316331461067157600080fd5b6007826040516106819190610f68565b9081526020016040518091039020549050919050565b6001546060906001600160a01b031633146106b157600080fd5b6000828152600a60205260409020600101805461012190610f0c565b6001546000906001600160a01b031633146106e757600080fd5b8382806007836040516106fa9190610f68565b908152602001604051809103902054101561071457600080fd5b60005460405163b08eff9360e01b81526001600160a01b039091169063b08eff9390610744908890600401610d47565b602060405180830381865afa158015610761573d6000803e3d6000fd5b505050506040513d601f19601f820116820180604052508101906107859190610f46565b80156107fd575060005460405163fb24ab0f60e01b81526001600160a01b039091169063fb24ab0f906107bc908990600401610d47565b602060405180830381865afa1580156107d9573d6000803e3d6000fd5b505050506040513d601f19601f820116820180604052508101906107fd9190610f46565b61080657600080fd5b6000806007876040516108199190610f68565b908152602001604051809103902054915060078860405161083a9190610f68565b9081526040519081900360200190205490506108568287610c8b565b6007886040516108669190610f68565b908152604051908190036020019020556108808187610c9e565b6007896040516108909190610f68565b9081526040519081900360200190205560008667ffffffffffffffff8111156108bb576108bb610d7a565b6040519080825280602002602001820160405280156108e4578160200160208202803683370190505b50905060005b878110156109d757600254610900906001610c8b565b60025560408051606081019091528061091d8c8c6080840161117c565b60408051601f1981840301815291815290825280518082018252600881526720a3a2a72aa9a2a960c11b602082810191909152830152016109614262786450610c8b565b90526002546000908152600a6020526040902081518190610982908261106b565b5060208201516001820190610997908261106b565b50604082015181600201559050506002548282815181106109ba576109ba61112b565b6020908102919091010152806109cf81611157565b9150506108ea565b50610a036001600c8a6040516109ed9190610f68565b9081526040519081900360200190205490610c8b565b600c89604051610a139190610f68565b908152602001604051809103902081905550610a3a6001600b8b6040516109ed9190610f68565b600b8a604051610a4a9190610f68565b908152602001604051809103902081905550610a8d6001600d8b604051610a719190610f68565b90815260200160405180910390208a6040516109ed9190610f68565b600d8a604051610a9d9190610f68565b908152602001604051809103902089604051610ab99190610f68565b90815260200160405180910390208190555060405180608001604052808281526020018881526020014281526020016001151581525060088a604051610aff9190610f68565b908152602001604051809103902089604051610b1b9190610f68565b90815260200160405180910390206000600d8c604051610b3b9190610f68565b90815260200160405180910390208b604051610b579190610f68565b90815260200160405180910390205481526020019081526020016000206000820151816000019080519060200190610b90929190610caa565b506020820151600182810191909155604083015160028301556060909201516003909101805460ff1916911515919091179055600454610bcf91610c8b565b60048190556040805160c0810182528b815260208082018c9052818301859052606082018b9052426080830152600160a0830152600093845260099052912081518190610c1c908261106b565b5060208201516001820190610c31908261106b565b5060408201518051610c4d916002840191602090910190610caa565b50606082015160038201556080820151600482015560a0909101516005909101805460ff191691151591909117905550600198975050505050505050565b6000610c9782846111a2565b9392505050565b6000610c9782846111b5565b828054828255906000526020600020908101928215610ce5579160200282015b82811115610ce5578251825591602001919060010190610cca565b50610cf1929150610cf5565b5090565b5b80821115610cf15760008155600101610cf6565b600060208284031215610d1c57600080fd5b5035919050565b60005b83811015610d3e578181015183820152602001610d26565b50506000910152565b6020815260008251806020840152610d66816040850160208701610d23565b601f01601f19169190910160400192915050565b634e487b7160e01b600052604160045260246000fd5b600082601f830112610da157600080fd5b813567ffffffffffffffff80821115610dbc57610dbc610d7a565b604051601f8301601f19908116603f01168101908282118183101715610de457610de4610d7a565b81604052838152866020858801011115610dfd57600080fd5b836020870160208301376000602085830101528094505050505092915050565b60008060408385031215610e3057600080fd5b823567ffffffffffffffff811115610e4757600080fd5b610e5385828601610d90565b95602094909401359450505050565b600060208284031215610e7457600080fd5b813567ffffffffffffffff811115610e8b57600080fd5b610e9784828501610d90565b949350505050565b600080600060608486031215610eb457600080fd5b833567ffffffffffffffff80821115610ecc57600080fd5b610ed887838801610d90565b94506020860135915080821115610eee57600080fd5b50610efb86828701610d90565b925050604084013590509250925092565b600181811c90821680610f2057607f821691505b602082108103610f4057634e487b7160e01b600052602260045260246000fd5b50919050565b600060208284031215610f5857600080fd5b81518015158114610c9757600080fd5b60008251610f7a818460208701610d23565b9190910192915050565b60008154610f9181610f0c565b60018281168015610fa95760018114610fbe57610fed565b60ff1984168752821515830287019450610fed565b8560005260208060002060005b85811015610fe45781548a820152908401908201610fcb565b50505082870194505b5050505092915050565b60006110038285610f84565b8351611013818360208801610d23565b01949350505050565b601f82111561106657600081815260208120601f850160051c810160208610156110435750805b601f850160051c820191505b818110156110625782815560010161104f565b5050505b505050565b815167ffffffffffffffff81111561108557611085610d7a565b611099816110938454610f0c565b8461101c565b602080601f8311600181146110ce57600084156110b65750858301515b600019600386901b1c1916600185901b178555611062565b600085815260208120601f198616915b828110156110fd578886015182559484019460019091019084016110de565b508582101561111b5787850151600019600388901b60f8161c191681555b5050505050600190811b01905550565b634e487b7160e01b600052603260045260246000fd5b634e487b7160e01b600052601160045260246000fd5b60006001820161116957611169611141565b5060010190565b6000610c978284610f84565b6000835161118e818460208801610d23565b835190830190611013818360208801610d23565b8082018082111561065157610651611141565b818103818111156106515761065161114156fea2646970667358221220eae14e22a6aad8a3707b41c3377564a5e86cadf16a112b70592e32bc126c359b64736f6c63430008110033",
  "immutableReferences": {},
  "source": "// SPDX-License-Identifier: MIT\r\npragma solidity ^0.8.16;\r\n// import \"./SafeMath.sol\";\r\nimport \"./ValidationInterface.sol\";\r\n\r\nlibrary SafeMath {\r\n    \r\n    /**\r\n     * @dev Returns the addition of two unsigned integers, reverting on\r\n     * overflow.\r\n     *\r\n     * Counterpart to Solidity's `+` operator.\r\n     *\r\n     * Requirements:\r\n     *\r\n     * - Addition cannot overflow.\r\n     */\r\n    function add(uint256 a, uint256 b) internal pure returns (uint256) {\r\n        return a + b;\r\n    }\r\n\r\n    /**\r\n     * @dev Returns the subtraction of two unsigned integers, reverting on\r\n     * overflow (when the result is negative).\r\n     *\r\n     * Counterpart to Solidity's `-` operator.\r\n     *\r\n     * Requirements:\r\n     *\r\n     * - Subtraction cannot overflow.\r\n     */\r\n    function sub(uint256 a, uint256 b) internal pure returns (uint256) {\r\n        return a - b;\r\n    }\r\n\r\n    /**\r\n     * @dev Returns the multiplication of two unsigned integers, reverting on\r\n     * overflow.\r\n     *\r\n     * Counterpart to Solidity's `*` operator.\r\n     *\r\n     * Requirements:\r\n     *\r\n     * - Multiplication cannot overflow.\r\n     */\r\n    function mul(uint256 a, uint256 b) internal pure returns (uint256) {\r\n        return a * b;\r\n    }\r\n\r\n    /**\r\n     * @dev Returns the integer division of two unsigned integers, reverting on\r\n     * division by zero. The result is rounded towards zero.\r\n     *\r\n     * Counterpart to Solidity's `/` operator.\r\n     *\r\n     * Requirements:\r\n     *\r\n     * - The divisor cannot be zero.\r\n     */\r\n    function div(uint256 a, uint256 b) internal pure returns (uint256) {\r\n        return a / b;\r\n    }\r\n\r\n    /**\r\n     * @dev Returns the remainder of dividing two unsigned integers. (unsigned integer modulo),\r\n     * reverting when dividing by zero.\r\n     *\r\n     * Counterpart to Solidity's `%` operator. This function uses a `revert`\r\n     * opcode (which leaves remaining gas untouched) while Solidity uses an\r\n     * invalid opcode to revert (consuming all remaining gas).\r\n     *\r\n     * Requirements:\r\n     *\r\n     * - The divisor cannot be zero.\r\n     */\r\n    function mod(uint256 a, uint256 b) internal pure returns (uint256) {\r\n        return a % b;\r\n    }\r\n\r\n    \r\n}\r\n\r\ncontract Reward {\r\n\r\n    address private constant VALIDATION_CONTRACT = 0x5df848c79F19e9a8Ff59F83eD1A862da26aEbA3E;\r\n    ValidationInterface private Validation = ValidationInterface(VALIDATION_CONTRACT);\r\n\r\n\r\n    /**\r\n     * @dev Emitted when `value` tokens are moved from one account (`from`) to\r\n     * another (`to`).\r\n     *\r\n     * Note that `value` may be zero.\r\n     */\r\n    event Transfer(string account, uint256 value, string transferMessage);\r\n\r\n    address private owner;\r\n    using SafeMath for uint256;\r\n    uint256 private _tokenCount;\r\n    uint256 private _selfCount;\r\n    uint256 private _transactionsCount;\r\n    uint256 private _totalSupply;\r\n\r\n    string private _self = \"rrr-vrikrisannee\";\r\n\r\n    struct Token {\r\n        string name;\r\n        string symbol;\r\n        uint256 expires;\r\n    }\r\n\r\n    struct TransactionData {\r\n        uint256[] tokens;\r\n        uint256 amount;\r\n        uint256 timestamp;\r\n        bool successful;\r\n    }\r\n\r\n    struct Transaction {\r\n        string from;\r\n        string to;\r\n        uint256[] tokens;\r\n        uint256 amount;\r\n        uint256 timestamp;\r\n        bool successful;\r\n    }\r\n\r\n    mapping(string => uint256) private _balances;\r\n    mapping(string => mapping(string => mapping(uint256 => TransactionData))) private _transactionsData;\r\n    mapping(uint256 => Transaction) private _transactions;\r\n    mapping(uint256 => Token) private _tokens;\r\n\r\n    mapping(string => uint256) private _agentCount;\r\n    mapping(string => uint256) private _userCount;\r\n    mapping(string => mapping(string => uint256)) private _agentUserCount;\r\n\r\n    /**\r\n     * @dev Sets the value for tokenCount\r\n     */\r\n    constructor() {\r\n        _totalSupply = 0;\r\n        _tokenCount = 0;\r\n        _selfCount = 0;\r\n        _transactionsCount = 0;\r\n    }\r\n\r\n    /**\r\n     * @dev Checks the owner of the contract\r\n     */\r\n    modifier onlyOwner() {\r\n        require(msg.sender == owner);\r\n        _;\r\n    }\r\n\r\n    /**\r\n     * @dev Checks the owner of the contract\r\n     */\r\n    modifier amountThreshold(string memory account, uint256 amount) {\r\n        require(_balances[account] >= amount);\r\n        _;\r\n    }\r\n\r\n    /**\r\n     * @dev Returns the name of the token.\r\n     */\r\n    function name(uint256 index_) public view onlyOwner returns (string memory) {\r\n        return _tokens[index_].name;\r\n    }\r\n\r\n    /**\r\n     * @dev Returns the symbol of the token, usually a shorter version of the\r\n     * name.\r\n     */\r\n    function symbol(uint256 index_)\r\n        public\r\n        view\r\n        onlyOwner\r\n        returns (string memory)\r\n    {\r\n        return _tokens[index_].symbol;\r\n    }\r\n\r\n    /**\r\n     * @dev See {IERC20-balanceOf}.\r\n     */\r\n    function balanceOf(string memory account)\r\n        public\r\n        view\r\n        onlyOwner\r\n        returns (uint256)\r\n    {\r\n        return _balances[account];\r\n    }\r\n\r\n    /**\r\n     * @dev See {IERC20-transfer}.\r\n     *\r\n     * Requirements:\r\n     *\r\n     * - `to` cannot be the non-existing entity.\r\n     * - the caller must have a balance of at least `amount`.\r\n     */\r\n    function transfer(string memory to, uint256 amount)\r\n        public\r\n        onlyOwner\r\n        returns (bool)\r\n    {\r\n        require(Validation.validateUser(to) || Validation.validateAgent(to));\r\n        uint256 tempBalance;\r\n        tempBalance = _balances[to];\r\n        _balances[to] = tempBalance.add(amount);\r\n        uint256[] memory tokens_ = new uint256[](amount);\r\n\r\n        for (uint256 i = 0; i < amount; i++) {\r\n            _tokenCount = _tokenCount.add(1);\r\n            _tokens[_tokenCount] = Token({\r\n                name: string.concat(_self, to),\r\n                symbol: \"SELFUSER\",\r\n                expires: (block.timestamp).add(7890000)\r\n            });\r\n            tokens_[i] = (_tokenCount);\r\n        }\r\n\r\n        _selfCount = _selfCount.add(1);\r\n        _transactionsData[_self][to][_selfCount] = TransactionData({\r\n            tokens: tokens_,\r\n            amount: amount,\r\n            timestamp: block.timestamp,\r\n            successful: true\r\n        });\r\n\r\n        _transactionsCount = _transactionsCount.add(1);\r\n        _transactions[_transactionsCount] = Transaction({\r\n            from: _self,\r\n            to: to,\r\n            tokens: tokens_,\r\n            amount: amount,\r\n            timestamp: block.timestamp,\r\n            successful: true\r\n        });\r\n\r\n        return true;\r\n    }\r\n\r\n    /**\r\n     * @dev See {IERC20-transferFrom}.\r\n     *\r\n     * Emits an {Approval} event indicating the updated allowance. This is not\r\n     * required by the EIP.\r\n     *\r\n     * NOTE: Does not update the allowance if the current allowance\r\n     * is the maximum `uint256`.\r\n     *\r\n     * Requirements:\r\n     *\r\n     * - `from` and `to` cannot be the non-existing entities.\r\n     * - `from` must have a balance of at least `amount`.\r\n     *\r\n     */\r\n    function transferFrom(\r\n        string memory from,\r\n        string memory to,\r\n        uint256 amount\r\n    ) public onlyOwner amountThreshold(from, amount) returns (bool) {\r\n        require(Validation.validateUser(to) && Validation.validateAgent(from));\r\n        uint256 userBalance;\r\n        uint256 agentBalance;\r\n        userBalance = _balances[to];\r\n        agentBalance = _balances[from];\r\n        _balances[to] = userBalance.add(amount);\r\n        _balances[from] = agentBalance.sub(amount);\r\n        uint256[] memory tokens_ = new uint256[](amount);\r\n\r\n        for (uint256 i = 0; i < amount; i++) {\r\n            _tokenCount = _tokenCount.add(1);\r\n            _tokens[_tokenCount] = Token({\r\n                name: string.concat(from, to),\r\n                symbol: \"AGENUSER\",\r\n                expires: (block.timestamp).add(7890000)\r\n            });\r\n            tokens_[i] = (_tokenCount);\r\n        }\r\n\r\n        _userCount[to] = (_userCount[to]).add(1);\r\n        _agentCount[from] = (_agentCount[from]).add(1);\r\n        _agentUserCount[from][to] = (_agentUserCount[from][to]).add(1);\r\n\r\n        _transactionsData[from][to][\r\n            _agentUserCount[from][to]\r\n        ] = TransactionData({\r\n            tokens: tokens_,\r\n            amount: amount,\r\n            timestamp: block.timestamp,\r\n            successful: true\r\n        });\r\n\r\n        _transactionsCount = _transactionsCount.add(1);\r\n        _transactions[_transactionsCount] = Transaction({\r\n            from: from,\r\n            to: to,\r\n            tokens: tokens_,\r\n            amount: amount,\r\n            timestamp: block.timestamp,\r\n            successful: true\r\n        });\r\n\r\n        return true;\r\n    }\r\n\r\n    /** @dev Creates `amount` tokens and assigns them to `account`, increasing\r\n     * the total supply.\r\n     *\r\n     * Emits a {Transfer} event with `from` set to self.\r\n     *\r\n     * Requirements:\r\n     *\r\n     * - `account` cannot be the zero address.\r\n     */\r\n    function _mint(string memory account, uint256 amount) internal onlyOwner {\r\n        _beforeTokenTransfer(_self, account, amount);\r\n        require(Validation.validateAgent(account));\r\n        _totalSupply += amount;\r\n        // unchecked {\r\n            // Overflow not possible: balance + amount is at most totalSupply + amount, which is checked above.\r\n            _balances[account] = (_balances[account]).add(amount);\r\n        // }\r\n        emit Transfer(account, amount, \"Minting\");\r\n\r\n        _afterTokenTransfer(_self, account, amount);\r\n    }\r\n\r\n    /**\r\n     * @dev Destroys `amount` tokens from `account`, reducing the\r\n     * total supply.\r\n     *\r\n     * Emits a {Transfer} event with `to` set to the existing entity.\r\n     *\r\n     * Requirements:\r\n     *\r\n     * - `account` cannot be the non-existing entity.\r\n     * - `account` must have at least `amount` tokens.\r\n     */\r\n    function _burn(string memory account, uint256 amount) internal onlyOwner {\r\n        _beforeTokenTransfer(account, _self, amount);\r\n        require(Validation.validateUser(account));\r\n        uint256 accountBalance = _balances[account];\r\n        require(accountBalance >= amount, \"ERC20: burn amount exceeds balance\");\r\n        // unchecked {\r\n            _balances[account] = accountBalance.sub(amount);\r\n            // Overflow not possible: amount <= accountBalance <= totalSupply.\r\n            _totalSupply = _totalSupply.sub(amount);\r\n        // }\r\n\r\n        emit Transfer(account, amount, \"Burning\");\r\n\r\n        _afterTokenTransfer(account, _self, amount);\r\n    }\r\n\r\n    /**\r\n     * @dev Hook that is called before any transfer of tokens. This includes\r\n     * minting and burning.\r\n     *\r\n     * Calling conditions:\r\n     *\r\n     * - when `from` and `to` are both existing entities, `amount` of ``from``'s tokens\r\n     * will be transferred to `to`.\r\n     * - when `from` is self, `amount` tokens will be minted for `to`.\r\n     * - when `to` is self, `amount` of ``from``'s tokens will be burned.\r\n     * - `from` and `to` are never both non-existing entities.\r\n     *\r\n     */\r\n    function _beforeTokenTransfer(\r\n        string memory from,\r\n        string memory to,\r\n        uint256 amount\r\n    ) internal onlyOwner {}\r\n\r\n    /**\r\n     * @dev Hook that is called after any transfer of tokens. This includes\r\n     * minting and burning.\r\n     *\r\n     * Calling conditions:\r\n     *\r\n     * - when `from` and `to` are both existing entities, `amount` of ``from``'s tokens\r\n     * has been transferred to `to`.\r\n     * - when `from` is self, `amount` tokens have been minted for `to`.\r\n     * - when `to` is self, `amount` of ``from``'s tokens have been burned.\r\n     * - `from` and `to` are never both non-existing entities.\r\n     *\r\n     */\r\n    function _afterTokenTransfer(\r\n        string memory from,\r\n        string memory to,\r\n        uint256 amount\r\n    ) internal onlyOwner {}\r\n}\r\n",
  "sourcePath": "D:\\Desktop\\FYP\\rrr-project\\webserver\\blockchain\\contracts\\Reward.sol",
  "compiler": {
    "name": "solc",
    "version": "0.8.17+commit.8df45f5f.Emscripten.clang"
  },
  "schemaVersion": "3.4.10",
  "updatedAt": "2023-01-01T20:19:41.129Z",
  "networkType": "ethereum",
  "devdoc": {
    "events": {
      "Transfer(string,uint256,string)": {
        "details": "Emitted when `value` tokens are moved from one account (`from`) to another (`to`). Note that `value` may be zero."
      }
    },
    "kind": "dev",
    "methods": {
      "balanceOf(string)": {
        "details": "See {IERC20-balanceOf}."
      },
      "constructor": {
        "details": "Sets the value for tokenCount"
      },
      "name(uint256)": {
        "details": "Returns the name of the token."
      },
      "symbol(uint256)": {
        "details": "Returns the symbol of the token, usually a shorter version of the name."
      },
      "transfer(string,uint256)": {
        "details": "See {IERC20-transfer}. Requirements: - `to` cannot be the non-existing entity. - the caller must have a balance of at least `amount`."
      },
      "transferFrom(string,string,uint256)": {
        "details": "See {IERC20-transferFrom}. Emits an {Approval} event indicating the updated allowance. This is not required by the EIP. NOTE: Does not update the allowance if the current allowance is the maximum `uint256`. Requirements: - `from` and `to` cannot be the non-existing entities. - `from` must have a balance of at least `amount`."
      }
    },
    "version": 1
  },
  "userdoc": {
    "kind": "user",
    "methods": {},
    "version": 1
  }
}