{
  "contractName": "Reward",
  "abi": [
    {
      "inputs": [],
      "stateMutability": "nonpayable",
      "type": "constructor"
    },
    {
      "anonymous": false,
      "inputs": [
        {
          "indexed": false,
          "internalType": "uint256",
          "name": "balance",
          "type": "uint256"
        },
        {
          "indexed": false,
          "internalType": "string",
          "name": "eventMessage",
          "type": "string"
        }
      ],
      "name": "Balance",
      "type": "event"
    },
    {
      "anonymous": false,
      "inputs": [
        {
          "indexed": false,
          "internalType": "uint256",
          "name": "timestamp",
          "type": "uint256"
        },
        {
          "indexed": false,
          "internalType": "string",
          "name": "eventMessage",
          "type": "string"
        }
      ],
      "name": "BlockTimestamp",
      "type": "event"
    },
    {
      "anonymous": false,
      "inputs": [
        {
          "indexed": false,
          "internalType": "uint256",
          "name": "counter",
          "type": "uint256"
        },
        {
          "indexed": false,
          "internalType": "string",
          "name": "eventMessage",
          "type": "string"
        }
      ],
      "name": "Counter",
      "type": "event"
    },
    {
      "anonymous": false,
      "inputs": [
        {
          "indexed": false,
          "internalType": "uint256",
          "name": "id",
          "type": "uint256"
        },
        {
          "indexed": false,
          "internalType": "string",
          "name": "tokenMongoId",
          "type": "string"
        },
        {
          "indexed": false,
          "internalType": "string",
          "name": "user",
          "type": "string"
        },
        {
          "indexed": false,
          "internalType": "uint256",
          "name": "userTokenId",
          "type": "uint256"
        },
        {
          "indexed": false,
          "internalType": "string",
          "name": "name",
          "type": "string"
        },
        {
          "indexed": false,
          "internalType": "string",
          "name": "symbol",
          "type": "string"
        },
        {
          "indexed": false,
          "internalType": "uint256",
          "name": "expires",
          "type": "uint256"
        },
        {
          "indexed": false,
          "internalType": "bool",
          "name": "consumed",
          "type": "bool"
        },
        {
          "indexed": false,
          "internalType": "string",
          "name": "eventMessage",
          "type": "string"
        }
      ],
      "name": "TokenEvent",
      "type": "event"
    },
    {
      "anonymous": false,
      "inputs": [
        {
          "indexed": false,
          "internalType": "uint256",
          "name": "amount",
          "type": "uint256"
        },
        {
          "indexed": false,
          "internalType": "uint256",
          "name": "timestamp",
          "type": "uint256"
        },
        {
          "indexed": false,
          "internalType": "bool",
          "name": "successful",
          "type": "bool"
        },
        {
          "indexed": false,
          "internalType": "string",
          "name": "eventMessage",
          "type": "string"
        }
      ],
      "name": "TransactionDataEvent",
      "type": "event"
    },
    {
      "anonymous": false,
      "inputs": [
        {
          "indexed": false,
          "internalType": "string",
          "name": "from",
          "type": "string"
        },
        {
          "indexed": false,
          "internalType": "string",
          "name": "to",
          "type": "string"
        },
        {
          "indexed": false,
          "internalType": "uint256",
          "name": "amount",
          "type": "uint256"
        },
        {
          "indexed": false,
          "internalType": "uint256",
          "name": "timestamp",
          "type": "uint256"
        },
        {
          "indexed": false,
          "internalType": "bool",
          "name": "successful",
          "type": "bool"
        },
        {
          "indexed": false,
          "internalType": "string",
          "name": "eventMessage",
          "type": "string"
        }
      ],
      "name": "TransactionEvent",
      "type": "event"
    },
    {
      "anonymous": false,
      "inputs": [
        {
          "indexed": false,
          "internalType": "string",
          "name": "to",
          "type": "string"
        },
        {
          "indexed": false,
          "internalType": "string",
          "name": "from",
          "type": "string"
        },
        {
          "indexed": false,
          "internalType": "uint256",
          "name": "value",
          "type": "uint256"
        },
        {
          "indexed": false,
          "internalType": "string",
          "name": "transferMessage",
          "type": "string"
        }
      ],
      "name": "Transfer",
      "type": "event"
    },
    {
      "inputs": [
        {
          "internalType": "address",
          "name": "newOwner",
          "type": "address"
        }
      ],
      "name": "setOwner",
      "outputs": [],
      "stateMutability": "nonpayable",
      "type": "function"
    },
    {
      "inputs": [
        {
          "internalType": "uint256",
          "name": "index_",
          "type": "uint256"
        }
      ],
      "name": "name",
      "outputs": [
        {
          "internalType": "string",
          "name": "",
          "type": "string"
        }
      ],
      "stateMutability": "view",
      "type": "function"
    },
    {
      "inputs": [
        {
          "internalType": "uint256",
          "name": "index_",
          "type": "uint256"
        }
      ],
      "name": "symbol",
      "outputs": [
        {
          "internalType": "string",
          "name": "",
          "type": "string"
        }
      ],
      "stateMutability": "view",
      "type": "function"
    },
    {
      "inputs": [
        {
          "internalType": "string",
          "name": "account",
          "type": "string"
        }
      ],
      "name": "balanceOf",
      "outputs": [
        {
          "internalType": "uint256",
          "name": "",
          "type": "uint256"
        }
      ],
      "stateMutability": "nonpayable",
      "type": "function"
    },
    {
      "inputs": [],
      "name": "blockTimestamp",
      "outputs": [
        {
          "internalType": "uint256",
          "name": "",
          "type": "uint256"
        }
      ],
      "stateMutability": "nonpayable",
      "type": "function"
    },
    {
      "inputs": [
        {
          "internalType": "string",
          "name": "agent",
          "type": "string"
        }
      ],
      "name": "countAgent",
      "outputs": [
        {
          "internalType": "uint256",
          "name": "",
          "type": "uint256"
        }
      ],
      "stateMutability": "nonpayable",
      "type": "function"
    },
    {
      "inputs": [
        {
          "internalType": "string",
          "name": "user",
          "type": "string"
        }
      ],
      "name": "countUser",
      "outputs": [
        {
          "internalType": "uint256",
          "name": "",
          "type": "uint256"
        }
      ],
      "stateMutability": "nonpayable",
      "type": "function"
    },
    {
      "inputs": [
        {
          "internalType": "string",
          "name": "agent",
          "type": "string"
        },
        {
          "internalType": "string",
          "name": "user",
          "type": "string"
        }
      ],
      "name": "countAgentUser",
      "outputs": [
        {
          "internalType": "uint256",
          "name": "",
          "type": "uint256"
        }
      ],
      "stateMutability": "nonpayable",
      "type": "function"
    },
    {
      "inputs": [],
      "name": "countToken",
      "outputs": [
        {
          "internalType": "uint256",
          "name": "",
          "type": "uint256"
        }
      ],
      "stateMutability": "nonpayable",
      "type": "function"
    },
    {
      "inputs": [],
      "name": "countSelf",
      "outputs": [
        {
          "internalType": "uint256",
          "name": "",
          "type": "uint256"
        }
      ],
      "stateMutability": "nonpayable",
      "type": "function"
    },
    {
      "inputs": [],
      "name": "countTransactions",
      "outputs": [
        {
          "internalType": "uint256",
          "name": "",
          "type": "uint256"
        }
      ],
      "stateMutability": "nonpayable",
      "type": "function"
    },
    {
      "inputs": [],
      "name": "countTotalSupply",
      "outputs": [
        {
          "internalType": "uint256",
          "name": "",
          "type": "uint256"
        }
      ],
      "stateMutability": "nonpayable",
      "type": "function"
    },
    {
      "inputs": [
        {
          "internalType": "string",
          "name": "user",
          "type": "string"
        }
      ],
      "name": "countUserTokens",
      "outputs": [
        {
          "internalType": "uint256",
          "name": "",
          "type": "uint256"
        }
      ],
      "stateMutability": "nonpayable",
      "type": "function"
    },
    {
      "inputs": [
        {
          "internalType": "string",
          "name": "user",
          "type": "string"
        },
        {
          "internalType": "uint256",
          "name": "userTokenCount",
          "type": "uint256"
        }
      ],
      "name": "getUserToken",
      "outputs": [
        {
          "internalType": "uint256",
          "name": "",
          "type": "uint256"
        }
      ],
      "stateMutability": "nonpayable",
      "type": "function"
    },
    {
      "inputs": [
        {
          "internalType": "uint256",
          "name": "tokenId",
          "type": "uint256"
        }
      ],
      "name": "getToken",
      "outputs": [],
      "stateMutability": "nonpayable",
      "type": "function"
    },
    {
      "inputs": [
        {
          "internalType": "string",
          "name": "agent",
          "type": "string"
        },
        {
          "internalType": "string",
          "name": "user",
          "type": "string"
        },
        {
          "internalType": "uint256",
          "name": "agentUserCount",
          "type": "uint256"
        }
      ],
      "name": "getTransactionData",
      "outputs": [],
      "stateMutability": "nonpayable",
      "type": "function"
    },
    {
      "inputs": [
        {
          "internalType": "uint256",
          "name": "transactionId",
          "type": "uint256"
        }
      ],
      "name": "getTransaction",
      "outputs": [],
      "stateMutability": "nonpayable",
      "type": "function"
    },
    {
      "inputs": [],
      "name": "countTokenTotalSupply",
      "outputs": [
        {
          "internalType": "uint256",
          "name": "",
          "type": "uint256"
        }
      ],
      "stateMutability": "nonpayable",
      "type": "function"
    },
    {
      "inputs": [
        {
          "internalType": "string",
          "name": "to",
          "type": "string"
        },
        {
          "internalType": "uint256",
          "name": "amount",
          "type": "uint256"
        }
      ],
      "name": "transfer",
      "outputs": [
        {
          "internalType": "bool",
          "name": "",
          "type": "bool"
        }
      ],
      "stateMutability": "nonpayable",
      "type": "function"
    },
    {
      "inputs": [
        {
          "internalType": "string",
          "name": "from",
          "type": "string"
        },
        {
          "internalType": "string",
          "name": "to",
          "type": "string"
        },
        {
          "internalType": "uint256",
          "name": "amount",
          "type": "uint256"
        }
      ],
      "name": "transferFrom",
      "outputs": [
        {
          "internalType": "bool",
          "name": "",
          "type": "bool"
        }
      ],
      "stateMutability": "nonpayable",
      "type": "function"
    },
    {
      "inputs": [
        {
          "internalType": "string",
          "name": "account",
          "type": "string"
        },
        {
          "internalType": "uint256",
          "name": "amount",
          "type": "uint256"
        }
      ],
      "name": "_mint",
      "outputs": [],
      "stateMutability": "nonpayable",
      "type": "function"
    },
    {
      "inputs": [
        {
          "internalType": "string",
          "name": "account",
          "type": "string"
        },
        {
          "internalType": "uint256",
          "name": "amount",
          "type": "uint256"
        }
      ],
      "name": "_burn",
      "outputs": [],
      "stateMutability": "nonpayable",
      "type": "function"
    },
    {
      "inputs": [
        {
          "internalType": "string",
          "name": "account",
          "type": "string"
        },
        {
          "internalType": "string",
          "name": "_name",
          "type": "string"
        },
        {
          "internalType": "string",
          "name": "_symbol",
          "type": "string"
        },
        {
          "internalType": "uint256",
          "name": "amount",
          "type": "uint256"
        },
        {
          "internalType": "string",
          "name": "_mongoId",
          "type": "string"
        },
        {
          "internalType": "uint256",
          "name": "_seconds",
          "type": "uint256"
        }
      ],
      "name": "mintToken",
      "outputs": [],
      "stateMutability": "nonpayable",
      "type": "function"
    },
    {
      "inputs": [
        {
          "internalType": "string",
          "name": "account",
          "type": "string"
        },
        {
          "internalType": "uint256",
          "name": "tokenId",
          "type": "uint256"
        }
      ],
      "name": "burnToken",
      "outputs": [],
      "stateMutability": "nonpayable",
      "type": "function"
    }
  ],
  "bytecode": "0x600080546001600160a01b031916734959daea53bed12f1859da37ae00935f173d598b17905560c0604052601060809081526f7272722d7672696b726973616e6e656560801b60a0526007906200005790826200013c565b503480156200006557600080fd5b5060006005819055600281905560038190556004819055600655600180546001600160a01b0319163317905562000208565b634e487b7160e01b600052604160045260246000fd5b600181811c90821680620000c257607f821691505b602082108103620000e357634e487b7160e01b600052602260045260246000fd5b50919050565b601f8211156200013757600081815260208120601f850160051c81016020861015620001125750805b601f850160051c820191505b8181101562000133578281556001016200011e565b5050505b505050565b81516001600160401b0381111562000158576200015862000097565b6200017081620001698454620000ad565b84620000e9565b602080601f831160018114620001a857600084156200018f5750858301515b600019600386901b1c1916600185901b17855562000133565b600085815260208120601f198616915b82811015620001d957888601518255948401946001909101908401620001b8565b5085821015620001f85787850151600019600388901b60f8161c191681555b5050505050600190811b01905550565b61247980620002186000396000f3fe608060405234801561001057600080fd5b50600436106101575760003560e01c8063665b1bc0116100c3578063adb618321161007c578063adb61832146102d2578063b1e7566b146102da578063c6fcc180146102ed578063e4b50cb8146102f5578063e7a81c5514610308578063f81fc2301461031057600080fd5b8063665b1bc0146102605780636b4710d5146102735780637dc0d4ab146102865780638731e2b514610299578063890ad775146102ac578063ab214a6f146102bf57600080fd5b806333ea3dc81161011557806333ea3dc8146101ee57806335ee5f87146102015780634358c93c1461021457806349b0bfb5146102275780634e41a1fb1461023a5780635d1b1e6d1461024d57600080fd5b8062ad800c1461015c57806312cb70c71461018557806313af4035146101a85780632ab4b912146101bd5780632af2a9f2146101d35780632dd0ade7146101db575b600080fd5b61016f61016a366004611ac3565b610318565b60405161017c9190611b2c565b60405180910390f35b610198610193366004611be2565b6103d3565b604051901515815260200161017c565b6101bb6101b6366004611c27565b610729565b005b6101c5610762565b60405190815260200161017c565b6101c56107d4565b6101c56101e9366004611c50565b61083f565b6101bb6101fc366004611ac3565b610919565b6101c561020f366004611cb4565b6109b2565b6101bb610222366004611be2565b610a60565b6101bb610235366004611cf1565b610b0e565b61016f610248366004611ac3565b610ccc565b61019861025b366004611cf1565b610d02565b6101bb61026e366004611be2565b61117b565b6101c5610281366004611cb4565b61127a565b6101bb610294366004611be2565b611300565b6101bb6102a7366004611d5e565b61146d565b6101c56102ba366004611cb4565b61167c565b6101c56102cd366004611be2565b611703565b6101c56117bf565b6101c56102e8366004611cb4565b611825565b6101c56118b1565b6101bb610303366004611ac3565b611928565b6101c56119c5565b6101c5611a31565b6001546060906001600160a01b0316331461033257600080fd5b6000828152600d60205260409020600401805461034e90611e1d565b80601f016020809104026020016040519081016040528092919081815260200182805461037a90611e1d565b80156103c75780601f1061039c576101008083540402835291602001916103c7565b820191906000526020600020905b8154815290600101906020018083116103aa57829003601f168201915b50505050509050919050565b6001546000906001600160a01b031633146103ed57600080fd5b60005460405163b08eff9360e01b81526001600160a01b039091169063b08eff939061041d908690600401611b2c565b602060405180830381865afa15801561043a573d6000803e3d6000fd5b505050506040513d601f19601f8201168201806040525081019061045e9190611e57565b806104d5575060005460405163fb24ab0f60e01b81526001600160a01b039091169063fb24ab0f90610494908690600401611b2c565b602060405180830381865afa1580156104b1573d6000803e3d6000fd5b505050506040513d601f19601f820116820180604052508101906104d59190611e57565b6104de57600080fd5b60006008846040516104f09190611e79565b90815260405190819003602001902054905061050c8184611aa4565b60088560405161051c9190611e79565b9081526040519081900360200190205560035461053a906001611aa4565b60035560408051606081018252848152426020820152600181830152905160099061056790600790611e95565b9081526020016040518091039020856040516105839190611e79565b9081526040805160209281900383019020600354600090815290835281902083518155918301516001808401919091559201516002909101805460ff19169115159190911790556004546105d691611aa4565b6004819055506040518060a00160405280600780546105f490611e1d565b80601f016020809104026020016040519081016040528092919081815260200182805461062090611e1d565b801561066d5780601f106106425761010080835404028352916020019161066d565b820191906000526020600020905b81548152906001019060200180831161065057829003601f168201915b50505091835250506020808201879052604080830187905242606084015260016080909301929092526004546000908152600a90915220815181906106b29082611f56565b50602082015160018201906106c79082611f56565b506040828101516002830155606083015160038301556080909201516004909101805460ff19169115159190911790555160008051602061240483398151915290610715908690869061202d565b60405180910390a160019150505b92915050565b6001546001600160a01b0316331461074057600080fd5b600180546001600160a01b0319166001600160a01b0392909216919091179055565b6001546000906001600160a01b0316331461077c57600080fd5b6000805160206124248339815191526005546040516107c59181526040602082018190526010908201526f636f756e74546f74616c537570706c7960801b606082015260800190565b60405180910390a15060055490565b6001546000906001600160a01b031633146107ee57600080fd5b6000805160206124248339815191526003546040516108309181526040602082018190526009908201526831b7bab73a29b2b63360b91b606082015260800190565b60405180910390a15060035490565b6001546000906001600160a01b0316331461085957600080fd5b6000805160206124248339815191526010846040516108789190611e79565b9081526020016040518091039020836040516108949190611e79565b9081526040805160209281900383018120548152918201819052600e908201526d31b7bab73a20b3b2b73a2ab9b2b960911b606082015260800160405180910390a16010836040516108e69190611e79565b9081526020016040518091039020826040516109029190611e79565b908152602001604051809103902054905092915050565b6001546001600160a01b0316331461093057600080fd5b6000818152600a6020526040812060030154900361094d57600080fd5b6000818152600a60205260409081902060028101546003820154600483015493517fe8623221cb2a9d0b1421e2bdcfa7d6bd9e86349ca48ecf8f4f71cc3d43ae0f9e946109a7949360018501939092909160ff1690612101565b60405180910390a150565b6001546000906001600160a01b031633146109cc57600080fd5b7fb7a4982b84574ff3e5cedac9e77fc5ee51543e18d46869dd2ff29c46aee5f9776008836040516109fd9190611e79565b9081526040805160209281900383018120548152918201819052600990820152683130b630b731b2a7b360b91b606082015260800160405180910390a1600882604051610a4a9190611e79565b9081526020016040518091039020549050919050565b6001546001600160a01b03163314610a7757600080fd5b6000818152600d60205260409020600601544210610a9457600080fd5b6000818152600d602052604090206007015460ff1615610ab357600080fd5b6000818152600d60205260409020600701805460ff19166001908117909155600654610ade91611ab7565b60065560405160008051602061240483398151915290610b0290849060009061216c565b60405180910390a15050565b6001546001600160a01b03163314610b2557600080fd5b600983604051610b359190611e79565b908152602001604051809103902082604051610b519190611e79565b9081526020016040518091039020600082815260200190815260200160002060010154600003610b8057600080fd5b7f4711a0332442bdb436dde7acf00abcb5318b9dd1280b458c555e90de1f2560bb600984604051610bb19190611e79565b908152602001604051809103902083604051610bcd9190611e79565b90815260408051918290036020908101832060008681529152205490600990610bf7908790611e79565b908152602001604051809103902084604051610c139190611e79565b90815260408051918290036020908101832060008781529152206001015490600990610c40908890611e79565b908152602001604051809103902085604051610c5c9190611e79565b90815260408051602092819003830181206000888152908452829020600201549481529182019290925260ff909216151590820152608060608201819052601290820152716765745472616e73616374696f6e4461746160701b60a082015260c0015b60405180910390a1505050565b6001546060906001600160a01b03163314610ce657600080fd5b6000828152600d60205260409020600501805461034e90611e1d565b6001546000906001600160a01b03163314610d1c57600080fd5b838280600883604051610d2f9190611e79565b9081526020016040518091039020541015610d4957600080fd5b60005460405163b08eff9360e01b81526001600160a01b039091169063b08eff9390610d79908890600401611b2c565b602060405180830381865afa158015610d96573d6000803e3d6000fd5b505050506040513d601f19601f82011682018060405250810190610dba9190611e57565b8015610e32575060005460405163fb24ab0f60e01b81526001600160a01b039091169063fb24ab0f90610df1908990600401611b2c565b602060405180830381865afa158015610e0e573d6000803e3d6000fd5b505050506040513d601f19601f82011682018060405250810190610e329190611e57565b610e3b57600080fd5b600080600887604051610e4e9190611e79565b9081526020016040518091039020549150600888604051610e6f9190611e79565b908152604051908190036020019020549050610e8b8287611aa4565b600888604051610e9b9190611e79565b90815260405190819003602001902055610eb58187611ab7565b600889604051610ec59190611e79565b908152602001604051809103902081905550610f026001600f89604051610eec9190611e79565b9081526040519081900360200190205490611aa4565b600f88604051610f129190611e79565b908152602001604051809103902081905550610f396001600e8a604051610eec9190611e79565b600e89604051610f499190611e79565b908152602001604051809103902081905550610f8c600160108a604051610f709190611e79565b908152602001604051809103902089604051610eec9190611e79565b601089604051610f9c9190611e79565b908152602001604051809103902088604051610fb89190611e79565b908152602001604051809103902081905550604051806060016040528087815260200142815260200160011515815250600989604051610ff89190611e79565b9081526020016040518091039020886040516110149190611e79565b9081526020016040518091039020600060108b6040516110349190611e79565b90815260200160405180910390208a6040516110509190611e79565b9081526020016040518091039020548152602001908152602001600020600082015181600001556020820151816001015560408201518160020160006101000a81548160ff0219169083151502179055509050506110ba6001600454611aa490919063ffffffff16565b60048190556040805160a0810182528a815260208082018b90528183018a9052426060830152600160808301526000938452600a90529120815181906111009082611f56565b50602082015160018201906111159082611f56565b506040828101516002830155606083015160038301556080909201516004909101805460ff191691151591909117905551600080516020612404833981519152906111659089908b908a906121c8565b60405180910390a1506001979650505050505050565b6001546001600160a01b0316331461119257600080fd5b60005460405163fb24ab0f60e01b81526001600160a01b039091169063fb24ab0f906111c2908590600401611b2c565b602060405180830381865afa1580156111df573d6000803e3d6000fd5b505050506040513d601f19601f820116820180604052508101906112039190611e57565b61120c57600080fd5b806005600082825461121e919061223b565b9250508190555061123981600884604051610eec9190611e79565b6008836040516112499190611e79565b9081526020016040518091039020819055506000805160206124048339815191528282604051610b0292919061224e565b6001546000906001600160a01b0316331461129457600080fd5b600080516020612424833981519152600f836040516112b39190611e79565b90815260408051602092819003830181205481529182018190526009908201526831b7bab73a2ab9b2b960b91b606082015260800160405180910390a1600f82604051610a4a9190611e79565b6001546001600160a01b0316331461131757600080fd5b60005460405163b08eff9360e01b81526001600160a01b039091169063b08eff9390611347908590600401611b2c565b602060405180830381865afa158015611364573d6000803e3d6000fd5b505050506040513d601f19601f820116820180604052508101906113889190611e57565b61139157600080fd5b60006008836040516113a39190611e79565b9081526020016040518091039020549050818110156114135760405162461bcd60e51b815260206004820152602260248201527f45524332303a206275726e20616d6f756e7420657863656564732062616c616e604482015261636560f01b606482015260840160405180910390fd5b61141d8183611ab7565b60088460405161142d9190611e79565b9081526040519081900360200190205560055461144a9083611ab7565b60055560405160008051602061240483398151915290610cbf90859085906122a4565b6001546001600160a01b0316331461148457600080fd5b61148e8684611300565b60025461149c906001611aa4565b6002819055506040518061010001604052806002548152602001838152602001878152602001600b886040516114d29190611e79565b90815260200160405180910390205481526020018681526020018581526020016115058342611aa490919063ffffffff16565b8152600060209182018190526002548152600d825260409020825181559082015160018201906115359082611f56565b506040820151600282019061154a9082611f56565b5060608201516003820155608082015160048201906115699082611f56565b5060a0820151600582019061157e9082611f56565b5060c082015160068281019190915560e0909201516007909101805460ff1916911515919091179055546115b3906001611aa4565b600655600254604051600c906115ca908990611e79565b90815260200160405180910390206000600b896040516115ea9190611e79565b9081526020016040518091039020548152602001908152602001600020819055506116206001600b88604051610eec9190611e79565b600b876040516116309190611e79565b90815260200160405180910390208190555060008051602061240483398151915286846040516116619291906122fa565b60405180910390a1611674600254611928565b505050505050565b6001546000906001600160a01b0316331461169657600080fd5b600080516020612424833981519152600e836040516116b59190611e79565b9081526040805160209281900383018120548152918201819052600a908201526918dbdd5b9d1059d95b9d60b21b606082015260800160405180910390a1600e82604051610a4a9190611e79565b6001546000906001600160a01b0316331461171d57600080fd5b600080516020612424833981519152600c8460405161173c9190611e79565b90815260408051602092819003830181206000878152908452829020548152918201819052600c908201526b33b2ba2ab9b2b92a37b5b2b760a11b606082015260800160405180910390a1600c836040516117979190611e79565b9081526020016040518091039020600083815260200190815260200160002054905092915050565b60007f428b611dd95952585d74eea20f231f57a44918d8ab3f2ef2b3f11ce94110738b42604051611818918152604060208201819052600e908201526d0626c6f636b54696d657374616d760941b606082015260800190565b60405180910390a1504290565b6001546000906001600160a01b0316331461183f57600080fd5b600080516020612424833981519152600b8360405161185e9190611e79565b9081526040805160209281900383018120548152918201819052600f908201526e636f756e7455736572546f6b656e7360881b606082015260800160405180910390a1600b82604051610a4a9190611e79565b6001546000906001600160a01b031633146118cb57600080fd5b60008051602061242483398151915260065460405161191991815260406020820181905260159082015274636f756e74546f6b656e546f74616c537570706c7960581b606082015260800190565b60405180910390a15060065490565b6001546001600160a01b0316331461193f57600080fd5b6000818152600d6020526040812060060154900361195c57600080fd5b6000818152600d602052604090819020805460038201546006830154600784015494517f9c64f3b8623acb4e146f4f7764dd1f2c6bada27ffb27923760ec38154424e6d2956109a795600181019460028201949093600483019360059093019260ff1690612356565b6001546000906001600160a01b031633146119df57600080fd5b600080516020612424833981519152600254604051611a22918152604060208201819052600a908201526931b7bab73a2a37b5b2b760b11b606082015260800190565b60405180910390a15060025490565b6001546000906001600160a01b03163314611a4b57600080fd5b600080516020612424833981519152600454604051611a9591815260406020820181905260119082015270636f756e745472616e73616374696f6e7360781b606082015260800190565b60405180910390a15060045490565b6000611ab0828461223b565b9392505050565b6000611ab082846123f0565b600060208284031215611ad557600080fd5b5035919050565b60005b83811015611af7578181015183820152602001611adf565b50506000910152565b60008151808452611b18816020860160208601611adc565b601f01601f19169290920160200192915050565b602081526000611ab06020830184611b00565b634e487b7160e01b600052604160045260246000fd5b600082601f830112611b6657600080fd5b813567ffffffffffffffff80821115611b8157611b81611b3f565b604051601f8301601f19908116603f01168101908282118183101715611ba957611ba9611b3f565b81604052838152866020858801011115611bc257600080fd5b836020870160208301376000602085830101528094505050505092915050565b60008060408385031215611bf557600080fd5b823567ffffffffffffffff811115611c0c57600080fd5b611c1885828601611b55565b95602094909401359450505050565b600060208284031215611c3957600080fd5b81356001600160a01b0381168114611ab057600080fd5b60008060408385031215611c6357600080fd5b823567ffffffffffffffff80821115611c7b57600080fd5b611c8786838701611b55565b93506020850135915080821115611c9d57600080fd5b50611caa85828601611b55565b9150509250929050565b600060208284031215611cc657600080fd5b813567ffffffffffffffff811115611cdd57600080fd5b611ce984828501611b55565b949350505050565b600080600060608486031215611d0657600080fd5b833567ffffffffffffffff80821115611d1e57600080fd5b611d2a87838801611b55565b94506020860135915080821115611d4057600080fd5b50611d4d86828701611b55565b925050604084013590509250925092565b60008060008060008060c08789031215611d7757600080fd5b863567ffffffffffffffff80821115611d8f57600080fd5b611d9b8a838b01611b55565b97506020890135915080821115611db157600080fd5b611dbd8a838b01611b55565b96506040890135915080821115611dd357600080fd5b611ddf8a838b01611b55565b9550606089013594506080890135915080821115611dfc57600080fd5b50611e0989828a01611b55565b92505060a087013590509295509295509295565b600181811c90821680611e3157607f821691505b602082108103611e5157634e487b7160e01b600052602260045260246000fd5b50919050565b600060208284031215611e6957600080fd5b81518015158114611ab057600080fd5b60008251611e8b818460208701611adc565b9190910192915050565b6000808354611ea381611e1d565b60018281168015611ebb5760018114611ed057611eff565b60ff1984168752821515830287019450611eff565b8760005260208060002060005b85811015611ef65781548a820152908401908201611edd565b50505082870194505b50929695505050505050565b601f821115611f5157600081815260208120601f850160051c81016020861015611f325750805b601f850160051c820191505b8181101561167457828155600101611f3e565b505050565b815167ffffffffffffffff811115611f7057611f70611b3f565b611f8481611f7e8454611e1d565b84611f0b565b602080601f831160018114611fb95760008415611fa15750858301515b600019600386901b1c1916600185901b178555611674565b600085815260208120601f198616915b82811015611fe857888601518255948401946001909101908401611fc9565b50858210156120065787850151600019600388901b60f8161c191681555b5050505050600190811b01905550565b600481526339b2b63360e11b602082015260400190565b6080815260006120406080830185611b00565b828103602084015261205181612016565b9050836040840152828103606084015260088152673a3930b739b332b960c11b6020820152604081019150509392505050565b6000815461209181611e1d565b8085526020600183811680156120ae57600181146120c8576120f6565b60ff1985168884015283151560051b8801830195506120f6565b866000528260002060005b858110156120ee5781548a82018601529083019084016120d3565b890184019650505b505050505092915050565b60c08152600061211460c0830188612084565b82810360208401526121268188612084565b60408481019790975260608401959095525050901515608082015280820360a090910152600e81526d33b2ba2a3930b739b0b1ba34b7b760911b60208201520192915050565b60808152600061217e60808301612016565b82810360208401526121908186611b00565b90508360408401528281036060840152600d81526c546f6b656e204275726e696e6760981b6020820152604081019150509392505050565b6080815260006121db6080830186611b00565b82810360208401526121ed8186611b00565b90508360408401528281036060840152600c81526b7472616e7366657246726f6d60a01b602082015260408101915050949350505050565b634e487b7160e01b600052601160045260246000fd5b8082018082111561072357610723612225565b6080815260006122616080830185611b00565b828103602084015261227281612016565b9050836040840152828103606084015260078152664d696e74696e6760c81b6020820152604081019150509392505050565b6080815260006122b660808301612016565b82810360208401526122c88186611b00565b9050836040840152828103606084015260078152664275726e696e6760c81b6020820152604081019150509392505050565b60808152600061230d6080830185611b00565b828103602084015261231e81612016565b90508360408401528281036060840152600d81526c546f6b656e204d696e74696e6760981b6020820152604081019150509392505050565b60006101208a83528060208401526123708184018b612084565b90508281036040840152612384818a612084565b9050876060840152828103608084015261239e8188612084565b905082810360a08401526123b28187612084565b60c0840195909552505090151560e082015280820361010090910152600881526733b2ba2a37b5b2b760c11b60208201526040019695505050505050565b818103818111156107235761072361222556fee141f5c0c83e751b990db0bfb0281491b231dd4069b16dbe9b37e751d61c0b73bd2b9912ace871cd1d3984f471447b524c775fb243318a97bf4f81fb13d99f55a2646970667358221220ae42d5c733abbb57b11530d7fc7e75a4bf4c46be670248c1762c3bb9e339a3d564736f6c63430008130033",
  "immutableReferences": {},
  "source": "// SPDX-License-Identifier: MIT\r\npragma solidity ^0.8.16;\r\n// import \"./SafeMath.sol\";\r\nimport \"./ValidationInterface.sol\";\r\n\r\nlibrary SafeMath {\r\n    \r\n    /**\r\n     * @dev Returns the addition of two unsigned integers, reverting on\r\n     * overflow.\r\n     *\r\n     * Counterpart to Solidity's `+` operator.\r\n     *\r\n     * Requirements:\r\n     *\r\n     * - Addition cannot overflow.\r\n     */\r\n    function add(uint256 a, uint256 b) internal pure returns (uint256) {\r\n        return a + b;\r\n    }\r\n\r\n    /**\r\n     * @dev Returns the subtraction of two unsigned integers, reverting on\r\n     * overflow (when the result is negative).\r\n     *\r\n     * Counterpart to Solidity's `-` operator.\r\n     *\r\n     * Requirements:\r\n     *\r\n     * - Subtraction cannot overflow.\r\n     */\r\n    function sub(uint256 a, uint256 b) internal pure returns (uint256) {\r\n        return a - b;\r\n    }\r\n\r\n    /**\r\n     * @dev Returns the multiplication of two unsigned integers, reverting on\r\n     * overflow.\r\n     *\r\n     * Counterpart to Solidity's `*` operator.\r\n     *\r\n     * Requirements:\r\n     *\r\n     * - Multiplication cannot overflow.\r\n     */\r\n    function mul(uint256 a, uint256 b) internal pure returns (uint256) {\r\n        return a * b;\r\n    }\r\n\r\n    /**\r\n     * @dev Returns the integer division of two unsigned integers, reverting on\r\n     * division by zero. The result is rounded towards zero.\r\n     *\r\n     * Counterpart to Solidity's `/` operator.\r\n     *\r\n     * Requirements:\r\n     *\r\n     * - The divisor cannot be zero.\r\n     */\r\n    function div(uint256 a, uint256 b) internal pure returns (uint256) {\r\n        return a / b;\r\n    }\r\n\r\n    /**\r\n     * @dev Returns the remainder of dividing two unsigned integers. (unsigned integer modulo),\r\n     * reverting when dividing by zero.\r\n     *\r\n     * Counterpart to Solidity's `%` operator. This function uses a `revert`\r\n     * opcode (which leaves remaining gas untouched) while Solidity uses an\r\n     * invalid opcode to revert (consuming all remaining gas).\r\n     *\r\n     * Requirements:\r\n     *\r\n     * - The divisor cannot be zero.\r\n     */\r\n    function mod(uint256 a, uint256 b) internal pure returns (uint256) {\r\n        return a % b;\r\n    }\r\n\r\n    \r\n}\r\n\r\ncontract Reward {\r\n\r\n    // address private constant VALIDATION_CONTRACT = 0x5df848c79F19e9a8Ff59F83eD1A862da26aEbA3E;\r\n    address private constant VALIDATION_CONTRACT = 0x4959daeA53bEd12F1859da37AE00935F173D598b;\r\n    ValidationInterface private Validation = ValidationInterface(VALIDATION_CONTRACT);\r\n\r\n\r\n    /**\r\n     * @dev Emitted when `value` tokens are moved from one account (`from`) to\r\n     * another (`to`).\r\n     *\r\n     * Note that `value` may be zero.\r\n     */\r\n    event Transfer(string to, string from, uint256 value, string transferMessage);\r\n    event Balance(uint256 balance, string eventMessage);\r\n    event Counter(uint256 counter, string eventMessage);\r\n    event TransactionEvent(\r\n        string from,\r\n        string to,\r\n        uint256 amount,\r\n        uint256 timestamp,\r\n        bool successful,\r\n        string eventMessage\r\n    );\r\n    event TransactionDataEvent(\r\n        uint256 amount,\r\n        uint256 timestamp,\r\n        bool successful,\r\n        string eventMessage\r\n    );\r\n    event TokenEvent( \r\n        uint256 id,\r\n        string tokenMongoId,\r\n        string user,\r\n        uint256 userTokenId,\r\n        string name,\r\n        string symbol,\r\n        uint256 expires,\r\n        bool consumed,\r\n        string eventMessage\r\n    );\r\n\r\n    event BlockTimestamp(uint256 timestamp, string eventMessage);\r\n\r\n    address private owner;\r\n    using SafeMath for uint256;\r\n    uint256 private _tokenCount;\r\n    uint256 private _selfCount;\r\n    uint256 private _transactionsCount;\r\n    uint256 private _totalSupply;\r\n    uint256 private _tokenTotalSupply;\r\n\r\n    string private _self = \"rrr-vrikrisannee\";\r\n\r\n    struct Token {\r\n        uint256 id;\r\n        string tokenMongoId;\r\n        string user;\r\n        uint256 userTokenId;\r\n        string name;\r\n        string symbol;\r\n        uint256 expires;\r\n        bool consumed;\r\n    }\r\n\r\n    struct TransactionData {\r\n        uint256 amount;\r\n        uint256 timestamp;\r\n        bool successful;\r\n    }\r\n\r\n    struct Transaction {\r\n        string from;\r\n        string to;\r\n        uint256 amount;\r\n        uint256 timestamp;\r\n        bool successful;\r\n    }\r\n\r\n    mapping(string => uint256) private _balances;\r\n    mapping(string => mapping(string => mapping(uint256 => TransactionData))) private _transactionsData;\r\n    mapping(uint256 => Transaction) private _transactions;\r\n    mapping(string => uint256) private _userTokensCount;\r\n    mapping(string => mapping(uint256 => uint256)) private _userTokens;\r\n    mapping(uint256 => Token) private _tokens;\r\n\r\n    mapping(string => uint256) private _agentCount;\r\n    mapping(string => uint256) private _userCount;\r\n    mapping(string => mapping(string => uint256)) private _agentUserCount;\r\n\r\n    /**\r\n     * @dev Sets the value for variables\r\n     */\r\n    constructor() {\r\n        _totalSupply = 0;\r\n        _tokenCount = 0;\r\n        _selfCount = 0;\r\n        _transactionsCount = 0;\r\n        _tokenTotalSupply = 0;\r\n        owner = msg.sender;\r\n    }\r\n\r\n    /**\r\n     * @dev Checks the owner of the contract\r\n     */\r\n    modifier onlyOwner() {\r\n        require(msg.sender == owner);\r\n        _;\r\n    }\r\n\r\n    /**\r\n     * @dev Checks the amount\r\n     */\r\n    modifier amountThreshold(string memory account, uint256 amount) {\r\n        require(_balances[account] >= amount);\r\n        _;\r\n    }\r\n\r\n    /**\r\n     * @dev Function that sets the new owner:\r\n     */\r\n    function setOwner(address newOwner) external onlyOwner {\r\n        owner = newOwner;\r\n    }\r\n\r\n    /**\r\n     * @dev Returns the name of the token.\r\n     */\r\n    function name(uint256 index_) public view onlyOwner returns (string memory) {\r\n        return _tokens[index_].name;\r\n    }\r\n\r\n    /**\r\n     * @dev Returns the symbol of the token, usually a shorter version of the\r\n     * name.\r\n     */\r\n    function symbol(uint256 index_)\r\n        public\r\n        view\r\n        onlyOwner\r\n        returns (string memory)\r\n    {\r\n        return _tokens[index_].symbol;\r\n    }\r\n\r\n    /**\r\n     * @dev See {IERC20-balanceOf}.\r\n     */\r\n    function balanceOf(string memory account)\r\n        public\r\n        onlyOwner\r\n        returns (uint256)\r\n    {\r\n        emit Balance(_balances[account], \"balanceOf\");\r\n        return _balances[account];\r\n    }\r\n\r\n    /**\r\n     * Get block.timestamp\r\n     */\r\n    function blockTimestamp()\r\n        public\r\n        returns (uint256)\r\n    {\r\n        emit BlockTimestamp(block.timestamp, \"blockTimestamp\");\r\n        return block.timestamp;\r\n    }\r\n\r\n    /**\r\n     * @dev Get Agent Count\r\n     */\r\n    function countAgent(string memory agent)\r\n        public\r\n        onlyOwner\r\n        returns (uint256)\r\n    {\r\n        emit Counter(_agentCount[agent], \"countAgent\");\r\n        return _agentCount[agent];\r\n    }\r\n\r\n    /**\r\n     * @dev Get User Count\r\n     */\r\n    function countUser(string memory user)\r\n        public\r\n        onlyOwner\r\n        returns (uint256)\r\n    {\r\n        emit Counter(_userCount[user], \"countUser\");\r\n        return _userCount[user];\r\n    }\r\n\r\n    /**\r\n     * @dev Get Agent-User Count\r\n     */\r\n    function countAgentUser(string memory agent, string memory user)\r\n        public\r\n        onlyOwner\r\n        returns (uint256)\r\n    {\r\n        emit Counter(_agentUserCount[agent][user], \"countAgentUser\");\r\n        return _agentUserCount[agent][user];\r\n    }\r\n\r\n    /**\r\n     * @dev Get Token Count\r\n     */\r\n    function countToken()\r\n        public\r\n        onlyOwner\r\n        returns (uint256)\r\n    {\r\n        emit Counter(_tokenCount, \"countToken\");\r\n        return _tokenCount;\r\n    }\r\n\r\n    /**\r\n     * @dev Get Self Count\r\n     */\r\n    function countSelf()\r\n        public\r\n        onlyOwner\r\n        returns (uint256)\r\n    {\r\n        emit Counter(_selfCount, \"countSelf\");\r\n        return _selfCount;\r\n    }\r\n\r\n    /**\r\n     * @dev Get Transaction Count\r\n     */\r\n    function countTransactions()\r\n        public\r\n        onlyOwner\r\n        returns (uint256)\r\n    {\r\n        emit Counter(_transactionsCount, \"countTransactions\");\r\n        return _transactionsCount;\r\n    }\r\n\r\n    /**\r\n     * @dev Get Total Supply\r\n     */\r\n    function countTotalSupply()\r\n        public\r\n        onlyOwner\r\n        returns (uint256)\r\n    {\r\n        emit Counter(_totalSupply, \"countTotalSupply\");\r\n        return _totalSupply;\r\n    }\r\n\r\n    /**\r\n     * @dev Get User Tokens Count\r\n     */\r\n    function countUserTokens(string memory user)\r\n        public\r\n        onlyOwner\r\n        returns (uint256)\r\n    {\r\n        emit Counter(_userTokensCount[user], \"countUserTokens\");\r\n        return _userTokensCount[user];\r\n    }\r\n\r\n    /**\r\n     * @dev Get User Token Id\r\n     */\r\n    function getUserToken(string memory user, uint256 userTokenCount)\r\n        public\r\n        onlyOwner\r\n        returns (uint256)\r\n    {\r\n        emit Counter(_userTokens[user][userTokenCount], \"getUserToken\");\r\n        return _userTokens[user][userTokenCount];\r\n    }\r\n\r\n\r\n    /**\r\n     * @dev Get Token Data\r\n     */\r\n    function getToken(uint256 tokenId)\r\n        public\r\n        onlyOwner\r\n    {\r\n        require(_tokens[tokenId].expires != 0);\r\n        emit TokenEvent(_tokens[tokenId].id,  _tokens[tokenId].tokenMongoId,  _tokens[tokenId].user, _tokens[tokenId].userTokenId, _tokens[tokenId].name, _tokens[tokenId].symbol, _tokens[tokenId].expires, _tokens[tokenId].consumed, \"getToken\");\r\n    }\r\n\r\n    /**\r\n     * @dev Get Transactions Data \r\n     */\r\n    function getTransactionData(string memory agent, string memory user, uint256 agentUserCount)\r\n        public\r\n        onlyOwner\r\n    {\r\n        require(_transactionsData[agent][user][agentUserCount].timestamp != 0);\r\n        emit TransactionDataEvent(_transactionsData[agent][user][agentUserCount].amount, _transactionsData[agent][user][agentUserCount].timestamp, _transactionsData[agent][user][agentUserCount].successful, \"getTransactionData\");\r\n    }\r\n\r\n    /**\r\n     * @dev Get Transaction \r\n     */\r\n    function getTransaction(uint256 transactionId)\r\n        public\r\n        onlyOwner\r\n    {\r\n        require(_transactions[transactionId].timestamp != 0);\r\n        emit TransactionEvent(_transactions[transactionId].from,\r\n        _transactions[transactionId].to,\r\n        _transactions[transactionId].amount,\r\n        _transactions[transactionId].timestamp,\r\n        _transactions[transactionId].successful, \"getTransaction\");\r\n    }\r\n\r\n    /**\r\n     * @dev Get User Token Count\r\n     */\r\n    function countTokenTotalSupply()\r\n        public\r\n        onlyOwner\r\n        returns (uint256)\r\n    {\r\n        emit Counter(_tokenTotalSupply, \"countTokenTotalSupply\");\r\n        return _tokenTotalSupply;\r\n    }\r\n\r\n    /**\r\n     * @dev See {IERC20-transfer}.\r\n     *\r\n     * Requirements:\r\n     *\r\n     * - `to` cannot be the non-existing entity.\r\n     * - the caller must have a balance of at least `amount`.\r\n     */\r\n    function transfer(string memory to, uint256 amount)\r\n        public\r\n        onlyOwner\r\n        returns (bool)\r\n    {\r\n        require(Validation.validateUser(to) || Validation.validateAgent(to));\r\n        uint256 tempBalance;\r\n        tempBalance = _balances[to];\r\n        _balances[to] = tempBalance.add(amount);\r\n\r\n        _selfCount = _selfCount.add(1);\r\n        _transactionsData[_self][to][_selfCount] = TransactionData({\r\n            amount: amount,\r\n            timestamp: block.timestamp,\r\n            successful: true\r\n        });\r\n\r\n        _transactionsCount = _transactionsCount.add(1);\r\n        _transactions[_transactionsCount] = Transaction({\r\n            from: _self,\r\n            to: to,\r\n            amount: amount,\r\n            timestamp: block.timestamp,\r\n            successful: true\r\n        });\r\n        emit Transfer(to, \"self\", amount, \"transfer\");\r\n        return true;\r\n    }\r\n\r\n    /**\r\n     * @dev See {IERC20-transferFrom}.\r\n     *\r\n     * Emits an {Approval} event indicating the updated allowance. This is not\r\n     * required by the EIP.\r\n     *\r\n     * NOTE: Does not update the allowance if the current allowance\r\n     * is the maximum `uint256`.\r\n     *\r\n     * Requirements:\r\n     *\r\n     * - `from` and `to` cannot be the non-existing entities.\r\n     * - `from` must have a balance of at least `amount`.\r\n     *\r\n     */\r\n    function transferFrom(\r\n        string memory from,\r\n        string memory to,\r\n        uint256 amount\r\n    ) public onlyOwner amountThreshold(from, amount) returns (bool) {\r\n        require(Validation.validateUser(to) && Validation.validateAgent(from));\r\n        uint256 userBalance;\r\n        uint256 agentBalance;\r\n        userBalance = _balances[to];\r\n        agentBalance = _balances[from];\r\n        _balances[to] = userBalance.add(amount);\r\n        _balances[from] = agentBalance.sub(amount);\r\n\r\n        _userCount[to] = (_userCount[to]).add(1);\r\n        _agentCount[from] = (_agentCount[from]).add(1);\r\n        _agentUserCount[from][to] = (_agentUserCount[from][to]).add(1);\r\n\r\n        _transactionsData[from][to][\r\n            _agentUserCount[from][to]\r\n        ] = TransactionData({\r\n            amount: amount,\r\n            timestamp: block.timestamp,\r\n            successful: true\r\n        });\r\n\r\n        _transactionsCount = _transactionsCount.add(1);\r\n        _transactions[_transactionsCount] = Transaction({\r\n            from: from,\r\n            to: to,\r\n            amount: amount,\r\n            timestamp: block.timestamp,\r\n            successful: true\r\n        });\r\n        emit Transfer(to, from, amount, \"transferFrom\");\r\n        return true;\r\n    }\r\n\r\n    /** @dev Creates `amount` and assigns them to `account`, increasing\r\n     * the total supply.\r\n     *\r\n     * Emits a {Transfer} event with `from` set to self.\r\n     *\r\n     * Requirements:\r\n     *\r\n     * - `account` cannot be the self address.\r\n     */\r\n    function _mint(string memory account, uint256 amount) public onlyOwner {\r\n        require(Validation.validateAgent(account));\r\n        _totalSupply += amount;\r\n        // Overflow not possible: balance + amount is at most totalSupply + amount, which is checked above.\r\n        _balances[account] = (_balances[account]).add(amount);\r\n        \r\n        emit Transfer(account, \"self\", amount, \"Minting\");\r\n    }\r\n\r\n    /**\r\n     * @dev Destroys `amount` from `account`, reducing the\r\n     * total supply.\r\n     *\r\n     * Emits a {Transfer} event with `to` set to the existing entity.\r\n     *\r\n     * Requirements:\r\n     *\r\n     * - `account` cannot be the non-existing entity.\r\n     * - `account` must have at least `amount`.\r\n     */\r\n    function _burn(string memory account, uint256 amount) public onlyOwner {\r\n        require(Validation.validateUser(account));\r\n        uint256 accountBalance = _balances[account];\r\n        require(accountBalance >= amount, \"ERC20: burn amount exceeds balance\");\r\n        \r\n        _balances[account] = accountBalance.sub(amount);\r\n        // Overflow not possible: amount <= accountBalance <= totalSupply.\r\n        _totalSupply = _totalSupply.sub(amount);\r\n\r\n        emit Transfer(\"self\", account, amount, \"Burning\");\r\n    }\r\n\r\n    /** @dev Creates token and assigns them to `account`, increasing\r\n     * the token total supply.\r\n     *\r\n     * Emits a {Transfer} event with `from` set to self.\r\n     *\r\n     * Requirements:\r\n     *\r\n     * - `account` cannot be the self address.\r\n     */\r\n    function mintToken(string memory account, string memory _name, string memory _symbol, uint256 amount, string memory _mongoId, uint256 _seconds) public onlyOwner {\r\n        _burn(account, amount);\r\n        _tokenCount = _tokenCount.add(1);\r\n        _tokens[_tokenCount] = Token({\r\n            id: _tokenCount,\r\n            tokenMongoId: _mongoId,\r\n            user: account,\r\n            userTokenId: _userTokensCount[account],\r\n            name: _name,\r\n            symbol: _symbol,\r\n            expires: (block.timestamp).add(_seconds),\r\n            consumed: false\r\n        });\r\n        _tokenTotalSupply = _tokenTotalSupply.add(1);\r\n        _userTokens[account][_userTokensCount[account]] = _tokenCount;\r\n        _userTokensCount[account] = _userTokensCount[account].add(1);\r\n        \r\n        emit Transfer(account, \"self\", amount, \"Token Minting\");\r\n        getToken(_tokenCount);\r\n    }\r\n\r\n    /**\r\n     * @dev Destroys token from `account`, reducing the token\r\n     * total supply.\r\n     *\r\n     * Emits a {Transfer} event with `to` set to the existing entity.\r\n     *\r\n     * Requirements:\r\n     *\r\n     * - `account` cannot be the non-existing entity.\r\n     * - `account` must have at least `amount`.\r\n     */\r\n    function burnToken(string memory account, uint256 tokenId) public onlyOwner {\r\n        require(_tokens[tokenId].expires > block.timestamp);\r\n        require(_tokens[tokenId].consumed == false);\r\n        _tokens[tokenId].consumed = true;\r\n        _tokenTotalSupply = _tokenTotalSupply.sub(1);\r\n        emit Transfer(\"self\", account, 0, \"Token Burning\");\r\n    }\r\n\r\n    /**\r\n     * @dev Hook that is called before any transfer of tokens. This includes\r\n     * minting and burning.\r\n     *\r\n     * Calling conditions:\r\n     *\r\n     * - when `from` and `to` are both existing entities, `amount` of ``from``'s tokens\r\n     * will be transferred to `to`.\r\n     * - when `from` is self, `amount` tokens will be minted for `to`.\r\n     * - when `to` is self, `amount` of ``from``'s tokens will be burned.\r\n     * - `from` and `to` are never both non-existing entities.\r\n     *\r\n     */\r\n    function _beforeTransfer(\r\n        string memory from,\r\n        string memory to,\r\n        uint256 amount\r\n    ) internal onlyOwner {}\r\n\r\n    /**\r\n     * @dev Hook that is called after any transfer of tokens. This includes\r\n     * minting and burning.\r\n     *\r\n     * Calling conditions:\r\n     *\r\n     * - when `from` and `to` are both existing entities, `amount` of ``from``'s tokens\r\n     * has been transferred to `to`.\r\n     * - when `from` is self, `amount` tokens have been minted for `to`.\r\n     * - when `to` is self, `amount` of ``from``'s tokens have been burned.\r\n     * - `from` and `to` are never both non-existing entities.\r\n     *\r\n     */\r\n    function _afterTransfer(\r\n        string memory from,\r\n        string memory to,\r\n        uint256 amount\r\n    ) internal onlyOwner {}\r\n}\r\n",
  "sourcePath": "D:\\Desktop\\FYP\\rrr-project\\webserver\\blockchain\\contracts\\Reward.sol",
  "compiler": {
    "name": "solc",
    "version": "0.8.19+commit.7dd6d404.Emscripten.clang"
  },
  "schemaVersion": "3.4.10",
  "updatedAt": "2023-03-04T20:45:23.889Z",
  "devdoc": {
    "events": {
      "Transfer(string,string,uint256,string)": {
        "details": "Emitted when `value` tokens are moved from one account (`from`) to another (`to`). Note that `value` may be zero."
      }
    },
    "kind": "dev",
    "methods": {
      "_burn(string,uint256)": {
        "details": "Destroys `amount` from `account`, reducing the total supply. Emits a {Transfer} event with `to` set to the existing entity. Requirements: - `account` cannot be the non-existing entity. - `account` must have at least `amount`."
      },
      "_mint(string,uint256)": {
        "details": "Creates `amount` and assigns them to `account`, increasing the total supply. Emits a {Transfer} event with `from` set to self. Requirements: - `account` cannot be the self address."
      },
      "balanceOf(string)": {
        "details": "See {IERC20-balanceOf}."
      },
      "burnToken(string,uint256)": {
        "details": "Destroys token from `account`, reducing the token total supply. Emits a {Transfer} event with `to` set to the existing entity. Requirements: - `account` cannot be the non-existing entity. - `account` must have at least `amount`."
      },
      "constructor": {
        "details": "Sets the value for variables"
      },
      "countAgent(string)": {
        "details": "Get Agent Count"
      },
      "countAgentUser(string,string)": {
        "details": "Get Agent-User Count"
      },
      "countSelf()": {
        "details": "Get Self Count"
      },
      "countToken()": {
        "details": "Get Token Count"
      },
      "countTokenTotalSupply()": {
        "details": "Get User Token Count"
      },
      "countTotalSupply()": {
        "details": "Get Total Supply"
      },
      "countTransactions()": {
        "details": "Get Transaction Count"
      },
      "countUser(string)": {
        "details": "Get User Count"
      },
      "countUserTokens(string)": {
        "details": "Get User Tokens Count"
      },
      "getToken(uint256)": {
        "details": "Get Token Data"
      },
      "getTransaction(uint256)": {
        "details": "Get Transaction "
      },
      "getTransactionData(string,string,uint256)": {
        "details": "Get Transactions Data "
      },
      "getUserToken(string,uint256)": {
        "details": "Get User Token Id"
      },
      "mintToken(string,string,string,uint256,string,uint256)": {
        "details": "Creates token and assigns them to `account`, increasing the token total supply. Emits a {Transfer} event with `from` set to self. Requirements: - `account` cannot be the self address."
      },
      "name(uint256)": {
        "details": "Returns the name of the token."
      },
      "setOwner(address)": {
        "details": "Function that sets the new owner:"
      },
      "symbol(uint256)": {
        "details": "Returns the symbol of the token, usually a shorter version of the name."
      },
      "transfer(string,uint256)": {
        "details": "See {IERC20-transfer}. Requirements: - `to` cannot be the non-existing entity. - the caller must have a balance of at least `amount`."
      },
      "transferFrom(string,string,uint256)": {
        "details": "See {IERC20-transferFrom}. Emits an {Approval} event indicating the updated allowance. This is not required by the EIP. NOTE: Does not update the allowance if the current allowance is the maximum `uint256`. Requirements: - `from` and `to` cannot be the non-existing entities. - `from` must have a balance of at least `amount`."
      }
    },
    "version": 1
  },
  "userdoc": {
    "kind": "user",
    "methods": {
      "blockTimestamp()": {
        "notice": "Get block.timestamp"
      }
    },
    "version": 1
  }
}