{
  "contractName": "Reward",
  "abi": [
    {
      "inputs": [],
      "stateMutability": "nonpayable",
      "type": "constructor"
    },
    {
      "anonymous": false,
      "inputs": [
        {
          "indexed": false,
          "internalType": "uint256",
          "name": "balance",
          "type": "uint256"
        },
        {
          "indexed": false,
          "internalType": "string",
          "name": "eventMessage",
          "type": "string"
        }
      ],
      "name": "Balance",
      "type": "event"
    },
    {
      "anonymous": false,
      "inputs": [
        {
          "indexed": false,
          "internalType": "uint256",
          "name": "counter",
          "type": "uint256"
        },
        {
          "indexed": false,
          "internalType": "string",
          "name": "eventMessage",
          "type": "string"
        }
      ],
      "name": "Counter",
      "type": "event"
    },
    {
      "anonymous": false,
      "inputs": [
        {
          "indexed": false,
          "internalType": "uint256",
          "name": "id",
          "type": "uint256"
        },
        {
          "indexed": false,
          "internalType": "uint256",
          "name": "userTokenId",
          "type": "uint256"
        },
        {
          "indexed": false,
          "internalType": "string",
          "name": "name",
          "type": "string"
        },
        {
          "indexed": false,
          "internalType": "string",
          "name": "symbol",
          "type": "string"
        },
        {
          "indexed": false,
          "internalType": "uint256",
          "name": "expires",
          "type": "uint256"
        },
        {
          "indexed": false,
          "internalType": "bool",
          "name": "consumed",
          "type": "bool"
        },
        {
          "indexed": false,
          "internalType": "string",
          "name": "eventMessage",
          "type": "string"
        }
      ],
      "name": "TokenEvent",
      "type": "event"
    },
    {
      "anonymous": false,
      "inputs": [
        {
          "indexed": false,
          "internalType": "uint256",
          "name": "amount",
          "type": "uint256"
        },
        {
          "indexed": false,
          "internalType": "uint256",
          "name": "timestamp",
          "type": "uint256"
        },
        {
          "indexed": false,
          "internalType": "bool",
          "name": "successful",
          "type": "bool"
        },
        {
          "indexed": false,
          "internalType": "string",
          "name": "eventMessage",
          "type": "string"
        }
      ],
      "name": "TransactionDataEvent",
      "type": "event"
    },
    {
      "anonymous": false,
      "inputs": [
        {
          "indexed": false,
          "internalType": "string",
          "name": "from",
          "type": "string"
        },
        {
          "indexed": false,
          "internalType": "string",
          "name": "to",
          "type": "string"
        },
        {
          "indexed": false,
          "internalType": "uint256",
          "name": "amount",
          "type": "uint256"
        },
        {
          "indexed": false,
          "internalType": "uint256",
          "name": "timestamp",
          "type": "uint256"
        },
        {
          "indexed": false,
          "internalType": "bool",
          "name": "successful",
          "type": "bool"
        },
        {
          "indexed": false,
          "internalType": "string",
          "name": "eventMessage",
          "type": "string"
        }
      ],
      "name": "TransactionEvent",
      "type": "event"
    },
    {
      "anonymous": false,
      "inputs": [
        {
          "indexed": false,
          "internalType": "string",
          "name": "to",
          "type": "string"
        },
        {
          "indexed": false,
          "internalType": "string",
          "name": "from",
          "type": "string"
        },
        {
          "indexed": false,
          "internalType": "uint256",
          "name": "value",
          "type": "uint256"
        },
        {
          "indexed": false,
          "internalType": "string",
          "name": "transferMessage",
          "type": "string"
        }
      ],
      "name": "Transfer",
      "type": "event"
    },
    {
      "inputs": [
        {
          "internalType": "address",
          "name": "newOwner",
          "type": "address"
        }
      ],
      "name": "setOwner",
      "outputs": [],
      "stateMutability": "nonpayable",
      "type": "function"
    },
    {
      "inputs": [
        {
          "internalType": "uint256",
          "name": "index_",
          "type": "uint256"
        }
      ],
      "name": "name",
      "outputs": [
        {
          "internalType": "string",
          "name": "",
          "type": "string"
        }
      ],
      "stateMutability": "view",
      "type": "function"
    },
    {
      "inputs": [
        {
          "internalType": "uint256",
          "name": "index_",
          "type": "uint256"
        }
      ],
      "name": "symbol",
      "outputs": [
        {
          "internalType": "string",
          "name": "",
          "type": "string"
        }
      ],
      "stateMutability": "view",
      "type": "function"
    },
    {
      "inputs": [
        {
          "internalType": "string",
          "name": "account",
          "type": "string"
        }
      ],
      "name": "balanceOf",
      "outputs": [
        {
          "internalType": "uint256",
          "name": "",
          "type": "uint256"
        }
      ],
      "stateMutability": "nonpayable",
      "type": "function"
    },
    {
      "inputs": [
        {
          "internalType": "string",
          "name": "agent",
          "type": "string"
        }
      ],
      "name": "countAgent",
      "outputs": [
        {
          "internalType": "uint256",
          "name": "",
          "type": "uint256"
        }
      ],
      "stateMutability": "nonpayable",
      "type": "function"
    },
    {
      "inputs": [
        {
          "internalType": "string",
          "name": "user",
          "type": "string"
        }
      ],
      "name": "countUser",
      "outputs": [
        {
          "internalType": "uint256",
          "name": "",
          "type": "uint256"
        }
      ],
      "stateMutability": "nonpayable",
      "type": "function"
    },
    {
      "inputs": [
        {
          "internalType": "string",
          "name": "agent",
          "type": "string"
        },
        {
          "internalType": "string",
          "name": "user",
          "type": "string"
        }
      ],
      "name": "countAgentUser",
      "outputs": [
        {
          "internalType": "uint256",
          "name": "",
          "type": "uint256"
        }
      ],
      "stateMutability": "nonpayable",
      "type": "function"
    },
    {
      "inputs": [],
      "name": "countToken",
      "outputs": [
        {
          "internalType": "uint256",
          "name": "",
          "type": "uint256"
        }
      ],
      "stateMutability": "nonpayable",
      "type": "function"
    },
    {
      "inputs": [],
      "name": "countSelf",
      "outputs": [
        {
          "internalType": "uint256",
          "name": "",
          "type": "uint256"
        }
      ],
      "stateMutability": "nonpayable",
      "type": "function"
    },
    {
      "inputs": [],
      "name": "countTransactions",
      "outputs": [
        {
          "internalType": "uint256",
          "name": "",
          "type": "uint256"
        }
      ],
      "stateMutability": "nonpayable",
      "type": "function"
    },
    {
      "inputs": [],
      "name": "countTotalSupply",
      "outputs": [
        {
          "internalType": "uint256",
          "name": "",
          "type": "uint256"
        }
      ],
      "stateMutability": "nonpayable",
      "type": "function"
    },
    {
      "inputs": [
        {
          "internalType": "string",
          "name": "user",
          "type": "string"
        }
      ],
      "name": "countUserTokens",
      "outputs": [
        {
          "internalType": "uint256",
          "name": "",
          "type": "uint256"
        }
      ],
      "stateMutability": "nonpayable",
      "type": "function"
    },
    {
      "inputs": [
        {
          "internalType": "string",
          "name": "user",
          "type": "string"
        },
        {
          "internalType": "uint256",
          "name": "userTokenCount",
          "type": "uint256"
        }
      ],
      "name": "getUserToken",
      "outputs": [
        {
          "internalType": "uint256",
          "name": "",
          "type": "uint256"
        }
      ],
      "stateMutability": "nonpayable",
      "type": "function"
    },
    {
      "inputs": [
        {
          "internalType": "uint256",
          "name": "tokenId",
          "type": "uint256"
        }
      ],
      "name": "getToken",
      "outputs": [],
      "stateMutability": "nonpayable",
      "type": "function"
    },
    {
      "inputs": [
        {
          "internalType": "string",
          "name": "agent",
          "type": "string"
        },
        {
          "internalType": "string",
          "name": "user",
          "type": "string"
        },
        {
          "internalType": "uint256",
          "name": "agentUserCount",
          "type": "uint256"
        }
      ],
      "name": "getTransactionData",
      "outputs": [],
      "stateMutability": "nonpayable",
      "type": "function"
    },
    {
      "inputs": [
        {
          "internalType": "uint256",
          "name": "transactionId",
          "type": "uint256"
        }
      ],
      "name": "getTransaction",
      "outputs": [],
      "stateMutability": "nonpayable",
      "type": "function"
    },
    {
      "inputs": [],
      "name": "countTokenTotalSupply",
      "outputs": [
        {
          "internalType": "uint256",
          "name": "",
          "type": "uint256"
        }
      ],
      "stateMutability": "nonpayable",
      "type": "function"
    },
    {
      "inputs": [
        {
          "internalType": "string",
          "name": "to",
          "type": "string"
        },
        {
          "internalType": "uint256",
          "name": "amount",
          "type": "uint256"
        }
      ],
      "name": "transfer",
      "outputs": [
        {
          "internalType": "bool",
          "name": "",
          "type": "bool"
        }
      ],
      "stateMutability": "nonpayable",
      "type": "function"
    },
    {
      "inputs": [
        {
          "internalType": "string",
          "name": "from",
          "type": "string"
        },
        {
          "internalType": "string",
          "name": "to",
          "type": "string"
        },
        {
          "internalType": "uint256",
          "name": "amount",
          "type": "uint256"
        }
      ],
      "name": "transferFrom",
      "outputs": [
        {
          "internalType": "bool",
          "name": "",
          "type": "bool"
        }
      ],
      "stateMutability": "nonpayable",
      "type": "function"
    },
    {
      "inputs": [
        {
          "internalType": "string",
          "name": "account",
          "type": "string"
        },
        {
          "internalType": "uint256",
          "name": "amount",
          "type": "uint256"
        }
      ],
      "name": "_mint",
      "outputs": [],
      "stateMutability": "nonpayable",
      "type": "function"
    },
    {
      "inputs": [
        {
          "internalType": "string",
          "name": "account",
          "type": "string"
        },
        {
          "internalType": "uint256",
          "name": "amount",
          "type": "uint256"
        }
      ],
      "name": "_burn",
      "outputs": [],
      "stateMutability": "nonpayable",
      "type": "function"
    },
    {
      "inputs": [
        {
          "internalType": "string",
          "name": "account",
          "type": "string"
        },
        {
          "internalType": "string",
          "name": "_name",
          "type": "string"
        },
        {
          "internalType": "string",
          "name": "_symbol",
          "type": "string"
        },
        {
          "internalType": "uint256",
          "name": "amount",
          "type": "uint256"
        }
      ],
      "name": "mintToken",
      "outputs": [],
      "stateMutability": "nonpayable",
      "type": "function"
    },
    {
      "inputs": [
        {
          "internalType": "string",
          "name": "account",
          "type": "string"
        },
        {
          "internalType": "uint256",
          "name": "tokenId",
          "type": "uint256"
        }
      ],
      "name": "burnToken",
      "outputs": [],
      "stateMutability": "nonpayable",
      "type": "function"
    }
  ],
  "bytecode": "0x600080546001600160a01b031916734959daea53bed12f1859da37ae00935f173d598b17905560c0604052601060809081526f7272722d7672696b726973616e6e656560801b60a0526007906200005790826200013c565b503480156200006557600080fd5b5060006005819055600281905560038190556004819055600655600180546001600160a01b0319163317905562000208565b634e487b7160e01b600052604160045260246000fd5b600181811c90821680620000c257607f821691505b602082108103620000e357634e487b7160e01b600052602260045260246000fd5b50919050565b601f8211156200013757600081815260208120601f850160051c81016020861015620001125750805b601f850160051c820191505b8181101562000133578281556001016200011e565b5050505b505050565b81516001600160401b0381111562000158576200015862000097565b6200017081620001698454620000ad565b84620000e9565b602080601f831160018114620001a857600084156200018f5750858301515b600019600386901b1c1916600185901b17855562000133565b600085815260208120601f198616915b82811015620001d957888601518255948401946001909101908401620001b8565b5085821015620001f85787850151600019600388901b60f8161c191681555b5050505050600190811b01905550565b61236680620002186000396000f3fe608060405234801561001057600080fd5b506004361061014c5760003560e01c80635d1b1e6d116100c3578063b1e7566b1161007c578063b1e7566b146102b4578063b4a8e0a9146102c7578063c6fcc180146102da578063e4b50cb8146102e2578063e7a81c55146102f5578063f81fc230146102fd57600080fd5b80635d1b1e6d14610242578063665b1bc0146102555780636b4710d5146102685780637dc0d4ab1461027b578063890ad7751461028e578063ab214a6f146102a157600080fd5b80632dd0ade7116101155780632dd0ade7146101d057806333ea3dc8146101e357806335ee5f87146101f65780634358c93c1461020957806349b0bfb51461021c5780634e41a1fb1461022f57600080fd5b8062ad800c1461015157806312cb70c71461017a57806313af40351461019d5780632ab4b912146101b25780632af2a9f2146101c8575b600080fd5b61016461015f366004611a09565b610305565b6040516101719190611a72565b60405180910390f35b61018d610188366004611b28565b6103c0565b6040519015158152602001610171565b6101b06101ab366004611b6d565b610716565b005b6101ba61074f565b604051908152602001610171565b6101ba6107c1565b6101ba6101de366004611b96565b61082c565b6101b06101f1366004611a09565b610906565b6101ba610204366004611bfa565b61099f565b6101b0610217366004611b28565b610a4d565b6101b061022a366004611c37565b610afb565b61016461023d366004611a09565b610cb9565b61018d610250366004611c37565b610cef565b6101b0610263366004611b28565b611168565b6101ba610276366004611bfa565b611267565b6101b0610289366004611b28565b6112ed565b6101ba61029c366004611bfa565b61145a565b6101ba6102af366004611b28565b6114e1565b6101ba6102c2366004611bfa565b61159d565b6101b06102d5366004611ca4565b611629565b6101ba611801565b6101b06102f0366004611a09565b611878565b6101ba61190b565b6101ba611977565b6001546060906001600160a01b0316331461031f57600080fd5b6000828152600d60205260409020600201805461033b90611d34565b80601f016020809104026020016040519081016040528092919081815260200182805461036790611d34565b80156103b45780601f10610389576101008083540402835291602001916103b4565b820191906000526020600020905b81548152906001019060200180831161039757829003601f168201915b50505050509050919050565b6001546000906001600160a01b031633146103da57600080fd5b60005460405163b08eff9360e01b81526001600160a01b039091169063b08eff939061040a908690600401611a72565b602060405180830381865afa158015610427573d6000803e3d6000fd5b505050506040513d601f19601f8201168201806040525081019061044b9190611d6e565b806104c2575060005460405163fb24ab0f60e01b81526001600160a01b039091169063fb24ab0f90610481908690600401611a72565b602060405180830381865afa15801561049e573d6000803e3d6000fd5b505050506040513d601f19601f820116820180604052508101906104c29190611d6e565b6104cb57600080fd5b60006008846040516104dd9190611d90565b9081526040519081900360200190205490506104f981846119ea565b6008856040516105099190611d90565b908152604051908190036020019020556003546105279060016119ea565b60035560408051606081018252848152426020820152600181830152905160099061055490600790611dac565b9081526020016040518091039020856040516105709190611d90565b9081526040805160209281900383019020600354600090815290835281902083518155918301516001808401919091559201516002909101805460ff19169115159190911790556004546105c3916119ea565b6004819055506040518060a00160405280600780546105e190611d34565b80601f016020809104026020016040519081016040528092919081815260200182805461060d90611d34565b801561065a5780601f1061062f5761010080835404028352916020019161065a565b820191906000526020600020905b81548152906001019060200180831161063d57829003601f168201915b50505091835250506020808201879052604080830187905242606084015260016080909301929092526004546000908152600a909152208151819061069f9082611e71565b50602082015160018201906106b49082611e71565b506040828101516002830155606083015160038301556080909201516004909101805460ff1916911515919091179055516000805160206122f1833981519152906107029086908690611f48565b60405180910390a160019150505b92915050565b6001546001600160a01b0316331461072d57600080fd5b600180546001600160a01b0319166001600160a01b0392909216919091179055565b6001546000906001600160a01b0316331461076957600080fd5b6000805160206123118339815191526005546040516107b29181526040602082018190526010908201526f636f756e74546f74616c537570706c7960801b606082015260800190565b60405180910390a15060055490565b6001546000906001600160a01b031633146107db57600080fd5b60008051602061231183398151915260035460405161081d9181526040602082018190526009908201526831b7bab73a29b2b63360b91b606082015260800190565b60405180910390a15060035490565b6001546000906001600160a01b0316331461084657600080fd5b6000805160206123118339815191526010846040516108659190611d90565b9081526020016040518091039020836040516108819190611d90565b9081526040805160209281900383018120548152918201819052600e908201526d31b7bab73a20b3b2b73a2ab9b2b960911b606082015260800160405180910390a16010836040516108d39190611d90565b9081526020016040518091039020826040516108ef9190611d90565b908152602001604051809103902054905092915050565b6001546001600160a01b0316331461091d57600080fd5b6000818152600a6020526040812060030154900361093a57600080fd5b6000818152600a60205260409081902060028101546003820154600483015493517fe8623221cb2a9d0b1421e2bdcfa7d6bd9e86349ca48ecf8f4f71cc3d43ae0f9e94610994949360018501939092909160ff169061201c565b60405180910390a150565b6001546000906001600160a01b031633146109b957600080fd5b7fb7a4982b84574ff3e5cedac9e77fc5ee51543e18d46869dd2ff29c46aee5f9776008836040516109ea9190611d90565b9081526040805160209281900383018120548152918201819052600990820152683130b630b731b2a7b360b91b606082015260800160405180910390a1600882604051610a379190611d90565b9081526020016040518091039020549050919050565b6001546001600160a01b03163314610a6457600080fd5b6000818152600d60205260409020600401544210610a8157600080fd5b6000818152600d602052604090206005015460ff1615610aa057600080fd5b6000818152600d60205260409020600501805460ff19166001908117909155600654610acb916119fd565b6006556040516000805160206122f183398151915290610aef908490600090612087565b60405180910390a15050565b6001546001600160a01b03163314610b1257600080fd5b600983604051610b229190611d90565b908152602001604051809103902082604051610b3e9190611d90565b9081526020016040518091039020600082815260200190815260200160002060010154600003610b6d57600080fd5b7f4711a0332442bdb436dde7acf00abcb5318b9dd1280b458c555e90de1f2560bb600984604051610b9e9190611d90565b908152602001604051809103902083604051610bba9190611d90565b90815260408051918290036020908101832060008681529152205490600990610be4908790611d90565b908152602001604051809103902084604051610c009190611d90565b90815260408051918290036020908101832060008781529152206001015490600990610c2d908890611d90565b908152602001604051809103902085604051610c499190611d90565b90815260408051602092819003830181206000888152908452829020600201549481529182019290925260ff909216151590820152608060608201819052601290820152716765745472616e73616374696f6e4461746160701b60a082015260c0015b60405180910390a1505050565b6001546060906001600160a01b03163314610cd357600080fd5b6000828152600d60205260409020600301805461033b90611d34565b6001546000906001600160a01b03163314610d0957600080fd5b838280600883604051610d1c9190611d90565b9081526020016040518091039020541015610d3657600080fd5b60005460405163b08eff9360e01b81526001600160a01b039091169063b08eff9390610d66908890600401611a72565b602060405180830381865afa158015610d83573d6000803e3d6000fd5b505050506040513d601f19601f82011682018060405250810190610da79190611d6e565b8015610e1f575060005460405163fb24ab0f60e01b81526001600160a01b039091169063fb24ab0f90610dde908990600401611a72565b602060405180830381865afa158015610dfb573d6000803e3d6000fd5b505050506040513d601f19601f82011682018060405250810190610e1f9190611d6e565b610e2857600080fd5b600080600887604051610e3b9190611d90565b9081526020016040518091039020549150600888604051610e5c9190611d90565b908152604051908190036020019020549050610e7882876119ea565b600888604051610e889190611d90565b90815260405190819003602001902055610ea281876119fd565b600889604051610eb29190611d90565b908152602001604051809103902081905550610eef6001600f89604051610ed99190611d90565b90815260405190819003602001902054906119ea565b600f88604051610eff9190611d90565b908152602001604051809103902081905550610f266001600e8a604051610ed99190611d90565b600e89604051610f369190611d90565b908152602001604051809103902081905550610f79600160108a604051610f5d9190611d90565b908152602001604051809103902089604051610ed99190611d90565b601089604051610f899190611d90565b908152602001604051809103902088604051610fa59190611d90565b908152602001604051809103902081905550604051806060016040528087815260200142815260200160011515815250600989604051610fe59190611d90565b9081526020016040518091039020886040516110019190611d90565b9081526020016040518091039020600060108b6040516110219190611d90565b90815260200160405180910390208a60405161103d9190611d90565b9081526020016040518091039020548152602001908152602001600020600082015181600001556020820151816001015560408201518160020160006101000a81548160ff0219169083151502179055509050506110a760016004546119ea90919063ffffffff16565b60048190556040805160a0810182528a815260208082018b90528183018a9052426060830152600160808301526000938452600a90529120815181906110ed9082611e71565b50602082015160018201906111029082611e71565b506040828101516002830155606083015160038301556080909201516004909101805460ff1916911515919091179055516000805160206122f1833981519152906111529089908b908a906120e3565b60405180910390a1506001979650505050505050565b6001546001600160a01b0316331461117f57600080fd5b60005460405163fb24ab0f60e01b81526001600160a01b039091169063fb24ab0f906111af908590600401611a72565b602060405180830381865afa1580156111cc573d6000803e3d6000fd5b505050506040513d601f19601f820116820180604052508101906111f09190611d6e565b6111f957600080fd5b806005600082825461120b9190612156565b9250508190555061122681600884604051610ed99190611d90565b6008836040516112369190611d90565b9081526020016040518091039020819055506000805160206122f18339815191528282604051610aef929190612169565b6001546000906001600160a01b0316331461128157600080fd5b600080516020612311833981519152600f836040516112a09190611d90565b90815260408051602092819003830181205481529182018190526009908201526831b7bab73a2ab9b2b960b91b606082015260800160405180910390a1600f82604051610a379190611d90565b6001546001600160a01b0316331461130457600080fd5b60005460405163b08eff9360e01b81526001600160a01b039091169063b08eff9390611334908590600401611a72565b602060405180830381865afa158015611351573d6000803e3d6000fd5b505050506040513d601f19601f820116820180604052508101906113759190611d6e565b61137e57600080fd5b60006008836040516113909190611d90565b9081526020016040518091039020549050818110156114005760405162461bcd60e51b815260206004820152602260248201527f45524332303a206275726e20616d6f756e7420657863656564732062616c616e604482015261636560f01b606482015260840160405180910390fd5b61140a81836119fd565b60088460405161141a9190611d90565b9081526040519081900360200190205560055461143790836119fd565b6005556040516000805160206122f183398151915290610cac90859085906121bf565b6001546000906001600160a01b0316331461147457600080fd5b600080516020612311833981519152600e836040516114939190611d90565b9081526040805160209281900383018120548152918201819052600a908201526918dbdd5b9d1059d95b9d60b21b606082015260800160405180910390a1600e82604051610a379190611d90565b6001546000906001600160a01b031633146114fb57600080fd5b600080516020612311833981519152600c8460405161151a9190611d90565b90815260408051602092819003830181206000878152908452829020548152918201819052600c908201526b33b2ba2ab9b2b92a37b5b2b760a11b606082015260800160405180910390a1600c836040516115759190611d90565b9081526020016040518091039020600083815260200190815260200160002054905092915050565b6001546000906001600160a01b031633146115b757600080fd5b600080516020612311833981519152600b836040516115d69190611d90565b9081526040805160209281900383018120548152918201819052600f908201526e636f756e7455736572546f6b656e7360881b606082015260800160405180910390a1600b82604051610a379190611d90565b6001546001600160a01b0316331461164057600080fd5b61164a84826112ed565b6002546116589060016119ea565b6002819055506040518060c001604052806002548152602001600b866040516116819190611d90565b90815260200160405180910390205481526020018481526020018381526020016116b762786450426119ea90919063ffffffff16565b815260006020918201819052600280548252600d83526040918290208451815592840151600184015590830151908201906116f29082611e71565b50606082015160038201906117079082611e71565b506080820151600482015560a0909101516005909101805460ff191691151591909117905560065461173a9060016119ea565b600655600254604051600c90611751908790611d90565b90815260200160405180910390206000600b876040516117719190611d90565b9081526020016040518091039020548152602001908152602001600020819055506117a76001600b86604051610ed99190611d90565b600b856040516117b79190611d90565b9081526020016040518091039020819055506000805160206122f183398151915284826040516117e8929190612215565b60405180910390a16117fb600254611878565b50505050565b6001546000906001600160a01b0316331461181b57600080fd5b60008051602061231183398151915260065460405161186991815260406020820181905260159082015274636f756e74546f6b656e546f74616c537570706c7960581b606082015260800190565b60405180910390a15060065490565b6001546001600160a01b0316331461188f57600080fd5b6000818152600d602052604081206004015490036118ac57600080fd5b6000818152600d602052604090819020805460018201546004830154600584015494517f0c12b28aa92217e0af1730f27d414bcef5f8e5218d285f6f89a9b8bc88e19d0a95610994956002810193600390910192909160ff1690612271565b6001546000906001600160a01b0316331461192557600080fd5b600080516020612311833981519152600254604051611968918152604060208201819052600a908201526931b7bab73a2a37b5b2b760b11b606082015260800190565b60405180910390a15060025490565b6001546000906001600160a01b0316331461199157600080fd5b6000805160206123118339815191526004546040516119db91815260406020820181905260119082015270636f756e745472616e73616374696f6e7360781b606082015260800190565b60405180910390a15060045490565b60006119f68284612156565b9392505050565b60006119f682846122dd565b600060208284031215611a1b57600080fd5b5035919050565b60005b83811015611a3d578181015183820152602001611a25565b50506000910152565b60008151808452611a5e816020860160208601611a22565b601f01601f19169290920160200192915050565b6020815260006119f66020830184611a46565b634e487b7160e01b600052604160045260246000fd5b600082601f830112611aac57600080fd5b813567ffffffffffffffff80821115611ac757611ac7611a85565b604051601f8301601f19908116603f01168101908282118183101715611aef57611aef611a85565b81604052838152866020858801011115611b0857600080fd5b836020870160208301376000602085830101528094505050505092915050565b60008060408385031215611b3b57600080fd5b823567ffffffffffffffff811115611b5257600080fd5b611b5e85828601611a9b565b95602094909401359450505050565b600060208284031215611b7f57600080fd5b81356001600160a01b03811681146119f657600080fd5b60008060408385031215611ba957600080fd5b823567ffffffffffffffff80821115611bc157600080fd5b611bcd86838701611a9b565b93506020850135915080821115611be357600080fd5b50611bf085828601611a9b565b9150509250929050565b600060208284031215611c0c57600080fd5b813567ffffffffffffffff811115611c2357600080fd5b611c2f84828501611a9b565b949350505050565b600080600060608486031215611c4c57600080fd5b833567ffffffffffffffff80821115611c6457600080fd5b611c7087838801611a9b565b94506020860135915080821115611c8657600080fd5b50611c9386828701611a9b565b925050604084013590509250925092565b60008060008060808587031215611cba57600080fd5b843567ffffffffffffffff80821115611cd257600080fd5b611cde88838901611a9b565b95506020870135915080821115611cf457600080fd5b611d0088838901611a9b565b94506040870135915080821115611d1657600080fd5b50611d2387828801611a9b565b949793965093946060013593505050565b600181811c90821680611d4857607f821691505b602082108103611d6857634e487b7160e01b600052602260045260246000fd5b50919050565b600060208284031215611d8057600080fd5b815180151581146119f657600080fd5b60008251611da2818460208701611a22565b9190910192915050565b6000808354611dba81611d34565b60018281168015611dd25760018114611de757611e16565b60ff1984168752821515830287019450611e16565b8760005260208060002060005b85811015611e0d5781548a820152908401908201611df4565b50505082870194505b50929695505050505050565b601f821115611e6c57600081815260208120601f850160051c81016020861015611e495750805b601f850160051c820191505b81811015611e6857828155600101611e55565b5050505b505050565b815167ffffffffffffffff811115611e8b57611e8b611a85565b611e9f81611e998454611d34565b84611e22565b602080601f831160018114611ed45760008415611ebc5750858301515b600019600386901b1c1916600185901b178555611e68565b600085815260208120601f198616915b82811015611f0357888601518255948401946001909101908401611ee4565b5085821015611f215787850151600019600388901b60f8161c191681555b5050505050600190811b01905550565b600481526339b2b63360e11b602082015260400190565b608081526000611f5b6080830185611a46565b8281036020840152611f6c81611f31565b9050836040840152828103606084015260088152673a3930b739b332b960c11b6020820152604081019150509392505050565b60008154611fac81611d34565b808552602060018381168015611fc95760018114611fe357612011565b60ff1985168884015283151560051b880183019550612011565b866000528260002060005b858110156120095781548a8201860152908301908401611fee565b890184019650505b505050505092915050565b60c08152600061202f60c0830188611f9f565b82810360208401526120418188611f9f565b60408481019790975260608401959095525050901515608082015280820360a090910152600e81526d33b2ba2a3930b739b0b1ba34b7b760911b60208201520192915050565b60808152600061209960808301611f31565b82810360208401526120ab8186611a46565b90508360408401528281036060840152600d81526c546f6b656e204275726e696e6760981b6020820152604081019150509392505050565b6080815260006120f66080830186611a46565b82810360208401526121088186611a46565b90508360408401528281036060840152600c81526b7472616e7366657246726f6d60a01b602082015260408101915050949350505050565b634e487b7160e01b600052601160045260246000fd5b8082018082111561071057610710612140565b60808152600061217c6080830185611a46565b828103602084015261218d81611f31565b9050836040840152828103606084015260078152664d696e74696e6760c81b6020820152604081019150509392505050565b6080815260006121d160808301611f31565b82810360208401526121e38186611a46565b9050836040840152828103606084015260078152664275726e696e6760c81b6020820152604081019150509392505050565b6080815260006122286080830185611a46565b828103602084015261223981611f31565b90508360408401528281036060840152600d81526c546f6b656e204d696e74696e6760981b6020820152604081019150509392505050565b86815285602082015260e06040820152600061229060e0830187611f9f565b82810360608401526122a28187611f9f565b6080840195909552505090151560a082015280820360c090910152600881526733b2ba2a37b5b2b760c11b6020820152604001949350505050565b818103818111156107105761071061214056fee141f5c0c83e751b990db0bfb0281491b231dd4069b16dbe9b37e751d61c0b73bd2b9912ace871cd1d3984f471447b524c775fb243318a97bf4f81fb13d99f55a2646970667358221220a983d43f9de7c592e4265880c23576ec74141af1c40d5d40ea097a5b3c91135964736f6c63430008120033",
  "immutableReferences": {},
  "source": "// SPDX-License-Identifier: MIT\r\npragma solidity ^0.8.16;\r\n// import \"./SafeMath.sol\";\r\nimport \"./ValidationInterface.sol\";\r\n\r\nlibrary SafeMath {\r\n    \r\n    /**\r\n     * @dev Returns the addition of two unsigned integers, reverting on\r\n     * overflow.\r\n     *\r\n     * Counterpart to Solidity's `+` operator.\r\n     *\r\n     * Requirements:\r\n     *\r\n     * - Addition cannot overflow.\r\n     */\r\n    function add(uint256 a, uint256 b) internal pure returns (uint256) {\r\n        return a + b;\r\n    }\r\n\r\n    /**\r\n     * @dev Returns the subtraction of two unsigned integers, reverting on\r\n     * overflow (when the result is negative).\r\n     *\r\n     * Counterpart to Solidity's `-` operator.\r\n     *\r\n     * Requirements:\r\n     *\r\n     * - Subtraction cannot overflow.\r\n     */\r\n    function sub(uint256 a, uint256 b) internal pure returns (uint256) {\r\n        return a - b;\r\n    }\r\n\r\n    /**\r\n     * @dev Returns the multiplication of two unsigned integers, reverting on\r\n     * overflow.\r\n     *\r\n     * Counterpart to Solidity's `*` operator.\r\n     *\r\n     * Requirements:\r\n     *\r\n     * - Multiplication cannot overflow.\r\n     */\r\n    function mul(uint256 a, uint256 b) internal pure returns (uint256) {\r\n        return a * b;\r\n    }\r\n\r\n    /**\r\n     * @dev Returns the integer division of two unsigned integers, reverting on\r\n     * division by zero. The result is rounded towards zero.\r\n     *\r\n     * Counterpart to Solidity's `/` operator.\r\n     *\r\n     * Requirements:\r\n     *\r\n     * - The divisor cannot be zero.\r\n     */\r\n    function div(uint256 a, uint256 b) internal pure returns (uint256) {\r\n        return a / b;\r\n    }\r\n\r\n    /**\r\n     * @dev Returns the remainder of dividing two unsigned integers. (unsigned integer modulo),\r\n     * reverting when dividing by zero.\r\n     *\r\n     * Counterpart to Solidity's `%` operator. This function uses a `revert`\r\n     * opcode (which leaves remaining gas untouched) while Solidity uses an\r\n     * invalid opcode to revert (consuming all remaining gas).\r\n     *\r\n     * Requirements:\r\n     *\r\n     * - The divisor cannot be zero.\r\n     */\r\n    function mod(uint256 a, uint256 b) internal pure returns (uint256) {\r\n        return a % b;\r\n    }\r\n\r\n    \r\n}\r\n\r\ncontract Reward {\r\n\r\n    // address private constant VALIDATION_CONTRACT = 0x5df848c79F19e9a8Ff59F83eD1A862da26aEbA3E;\r\n    address private constant VALIDATION_CONTRACT = 0x4959daeA53bEd12F1859da37AE00935F173D598b;\r\n    ValidationInterface private Validation = ValidationInterface(VALIDATION_CONTRACT);\r\n\r\n\r\n    /**\r\n     * @dev Emitted when `value` tokens are moved from one account (`from`) to\r\n     * another (`to`).\r\n     *\r\n     * Note that `value` may be zero.\r\n     */\r\n    event Transfer(string to, string from, uint256 value, string transferMessage);\r\n    event Balance(uint256 balance, string eventMessage);\r\n    event Counter(uint256 counter, string eventMessage);\r\n    event TransactionEvent(\r\n        string from,\r\n        string to,\r\n        uint256 amount,\r\n        uint256 timestamp,\r\n        bool successful,\r\n        string eventMessage\r\n    );\r\n    event TransactionDataEvent(\r\n        uint256 amount,\r\n        uint256 timestamp,\r\n        bool successful,\r\n        string eventMessage\r\n    );\r\n    event TokenEvent( \r\n        uint256 id,\r\n        uint256 userTokenId,\r\n        string name,\r\n        string symbol,\r\n        uint256 expires,\r\n        bool consumed,\r\n        string eventMessage\r\n    );\r\n\r\n    address private owner;\r\n    using SafeMath for uint256;\r\n    uint256 private _tokenCount;\r\n    uint256 private _selfCount;\r\n    uint256 private _transactionsCount;\r\n    uint256 private _totalSupply;\r\n    uint256 private _tokenTotalSupply;\r\n\r\n    string private _self = \"rrr-vrikrisannee\";\r\n\r\n    struct Token {\r\n        uint256 id;\r\n        uint256 userTokenId;\r\n        string name;\r\n        string symbol;\r\n        uint256 expires;\r\n        bool consumed;\r\n    }\r\n\r\n    struct TransactionData {\r\n        uint256 amount;\r\n        uint256 timestamp;\r\n        bool successful;\r\n    }\r\n\r\n    struct Transaction {\r\n        string from;\r\n        string to;\r\n        uint256 amount;\r\n        uint256 timestamp;\r\n        bool successful;\r\n    }\r\n\r\n    mapping(string => uint256) private _balances;\r\n    mapping(string => mapping(string => mapping(uint256 => TransactionData))) private _transactionsData;\r\n    mapping(uint256 => Transaction) private _transactions;\r\n    mapping(string => uint256) private _userTokensCount;\r\n    mapping(string => mapping(uint256 => uint256)) private _userTokens;\r\n    mapping(uint256 => Token) private _tokens;\r\n\r\n    mapping(string => uint256) private _agentCount;\r\n    mapping(string => uint256) private _userCount;\r\n    mapping(string => mapping(string => uint256)) private _agentUserCount;\r\n\r\n    /**\r\n     * @dev Sets the value for variables\r\n     */\r\n    constructor() {\r\n        _totalSupply = 0;\r\n        _tokenCount = 0;\r\n        _selfCount = 0;\r\n        _transactionsCount = 0;\r\n        _tokenTotalSupply = 0;\r\n        owner = msg.sender;\r\n    }\r\n\r\n    /**\r\n     * @dev Checks the owner of the contract\r\n     */\r\n    modifier onlyOwner() {\r\n        require(msg.sender == owner);\r\n        _;\r\n    }\r\n\r\n    /**\r\n     * @dev Checks the amount\r\n     */\r\n    modifier amountThreshold(string memory account, uint256 amount) {\r\n        require(_balances[account] >= amount);\r\n        _;\r\n    }\r\n\r\n    /**\r\n     * @dev Function that sets the new owner:\r\n     */\r\n    function setOwner(address newOwner) external onlyOwner {\r\n        owner = newOwner;\r\n    }\r\n\r\n    /**\r\n     * @dev Returns the name of the token.\r\n     */\r\n    function name(uint256 index_) public view onlyOwner returns (string memory) {\r\n        return _tokens[index_].name;\r\n    }\r\n\r\n    /**\r\n     * @dev Returns the symbol of the token, usually a shorter version of the\r\n     * name.\r\n     */\r\n    function symbol(uint256 index_)\r\n        public\r\n        view\r\n        onlyOwner\r\n        returns (string memory)\r\n    {\r\n        return _tokens[index_].symbol;\r\n    }\r\n\r\n    /**\r\n     * @dev See {IERC20-balanceOf}.\r\n     */\r\n    function balanceOf(string memory account)\r\n        public\r\n        onlyOwner\r\n        returns (uint256)\r\n    {\r\n        emit Balance(_balances[account], \"balanceOf\");\r\n        return _balances[account];\r\n    }\r\n\r\n    /**\r\n     * @dev Get Agent Count\r\n     */\r\n    function countAgent(string memory agent)\r\n        public\r\n        onlyOwner\r\n        returns (uint256)\r\n    {\r\n        emit Counter(_agentCount[agent], \"countAgent\");\r\n        return _agentCount[agent];\r\n    }\r\n\r\n    /**\r\n     * @dev Get User Count\r\n     */\r\n    function countUser(string memory user)\r\n        public\r\n        onlyOwner\r\n        returns (uint256)\r\n    {\r\n        emit Counter(_userCount[user], \"countUser\");\r\n        return _userCount[user];\r\n    }\r\n\r\n    /**\r\n     * @dev Get Agent-User Count\r\n     */\r\n    function countAgentUser(string memory agent, string memory user)\r\n        public\r\n        onlyOwner\r\n        returns (uint256)\r\n    {\r\n        emit Counter(_agentUserCount[agent][user], \"countAgentUser\");\r\n        return _agentUserCount[agent][user];\r\n    }\r\n\r\n    /**\r\n     * @dev Get Token Count\r\n     */\r\n    function countToken()\r\n        public\r\n        onlyOwner\r\n        returns (uint256)\r\n    {\r\n        emit Counter(_tokenCount, \"countToken\");\r\n        return _tokenCount;\r\n    }\r\n\r\n    /**\r\n     * @dev Get Self Count\r\n     */\r\n    function countSelf()\r\n        public\r\n        onlyOwner\r\n        returns (uint256)\r\n    {\r\n        emit Counter(_selfCount, \"countSelf\");\r\n        return _selfCount;\r\n    }\r\n\r\n    /**\r\n     * @dev Get Transaction Count\r\n     */\r\n    function countTransactions()\r\n        public\r\n        onlyOwner\r\n        returns (uint256)\r\n    {\r\n        emit Counter(_transactionsCount, \"countTransactions\");\r\n        return _transactionsCount;\r\n    }\r\n\r\n    /**\r\n     * @dev Get Total Supply\r\n     */\r\n    function countTotalSupply()\r\n        public\r\n        onlyOwner\r\n        returns (uint256)\r\n    {\r\n        emit Counter(_totalSupply, \"countTotalSupply\");\r\n        return _totalSupply;\r\n    }\r\n\r\n    /**\r\n     * @dev Get User Tokens Count\r\n     */\r\n    function countUserTokens(string memory user)\r\n        public\r\n        onlyOwner\r\n        returns (uint256)\r\n    {\r\n        emit Counter(_userTokensCount[user], \"countUserTokens\");\r\n        return _userTokensCount[user];\r\n    }\r\n\r\n    /**\r\n     * @dev Get User Token Id\r\n     */\r\n    function getUserToken(string memory user, uint256 userTokenCount)\r\n        public\r\n        onlyOwner\r\n        returns (uint256)\r\n    {\r\n        emit Counter(_userTokens[user][userTokenCount], \"getUserToken\");\r\n        return _userTokens[user][userTokenCount];\r\n    }\r\n\r\n\r\n    /**\r\n     * @dev Get Token Data\r\n     */\r\n    function getToken(uint256 tokenId)\r\n        public\r\n        onlyOwner\r\n    {\r\n        require(_tokens[tokenId].expires != 0);\r\n        emit TokenEvent(_tokens[tokenId].id, _tokens[tokenId].userTokenId, _tokens[tokenId].name, _tokens[tokenId].symbol, _tokens[tokenId].expires, _tokens[tokenId].consumed, \"getToken\");\r\n    }\r\n\r\n    /**\r\n     * @dev Get Transactions Data \r\n     */\r\n    function getTransactionData(string memory agent, string memory user, uint256 agentUserCount)\r\n        public\r\n        onlyOwner\r\n    {\r\n        require(_transactionsData[agent][user][agentUserCount].timestamp != 0);\r\n        emit TransactionDataEvent(_transactionsData[agent][user][agentUserCount].amount, _transactionsData[agent][user][agentUserCount].timestamp, _transactionsData[agent][user][agentUserCount].successful, \"getTransactionData\");\r\n    }\r\n\r\n    /**\r\n     * @dev Get Transaction \r\n     */\r\n    function getTransaction(uint256 transactionId)\r\n        public\r\n        onlyOwner\r\n    {\r\n        require(_transactions[transactionId].timestamp != 0);\r\n        emit TransactionEvent(_transactions[transactionId].from,\r\n        _transactions[transactionId].to,\r\n        _transactions[transactionId].amount,\r\n        _transactions[transactionId].timestamp,\r\n        _transactions[transactionId].successful, \"getTransaction\");\r\n    }\r\n\r\n    /**\r\n     * @dev Get User Token Count\r\n     */\r\n    function countTokenTotalSupply()\r\n        public\r\n        onlyOwner\r\n        returns (uint256)\r\n    {\r\n        emit Counter(_tokenTotalSupply, \"countTokenTotalSupply\");\r\n        return _tokenTotalSupply;\r\n    }\r\n\r\n    /**\r\n     * @dev See {IERC20-transfer}.\r\n     *\r\n     * Requirements:\r\n     *\r\n     * - `to` cannot be the non-existing entity.\r\n     * - the caller must have a balance of at least `amount`.\r\n     */\r\n    function transfer(string memory to, uint256 amount)\r\n        public\r\n        onlyOwner\r\n        returns (bool)\r\n    {\r\n        require(Validation.validateUser(to) || Validation.validateAgent(to));\r\n        uint256 tempBalance;\r\n        tempBalance = _balances[to];\r\n        _balances[to] = tempBalance.add(amount);\r\n\r\n        _selfCount = _selfCount.add(1);\r\n        _transactionsData[_self][to][_selfCount] = TransactionData({\r\n            amount: amount,\r\n            timestamp: block.timestamp,\r\n            successful: true\r\n        });\r\n\r\n        _transactionsCount = _transactionsCount.add(1);\r\n        _transactions[_transactionsCount] = Transaction({\r\n            from: _self,\r\n            to: to,\r\n            amount: amount,\r\n            timestamp: block.timestamp,\r\n            successful: true\r\n        });\r\n        emit Transfer(to, \"self\", amount, \"transfer\");\r\n        return true;\r\n    }\r\n\r\n    /**\r\n     * @dev See {IERC20-transferFrom}.\r\n     *\r\n     * Emits an {Approval} event indicating the updated allowance. This is not\r\n     * required by the EIP.\r\n     *\r\n     * NOTE: Does not update the allowance if the current allowance\r\n     * is the maximum `uint256`.\r\n     *\r\n     * Requirements:\r\n     *\r\n     * - `from` and `to` cannot be the non-existing entities.\r\n     * - `from` must have a balance of at least `amount`.\r\n     *\r\n     */\r\n    function transferFrom(\r\n        string memory from,\r\n        string memory to,\r\n        uint256 amount\r\n    ) public onlyOwner amountThreshold(from, amount) returns (bool) {\r\n        require(Validation.validateUser(to) && Validation.validateAgent(from));\r\n        uint256 userBalance;\r\n        uint256 agentBalance;\r\n        userBalance = _balances[to];\r\n        agentBalance = _balances[from];\r\n        _balances[to] = userBalance.add(amount);\r\n        _balances[from] = agentBalance.sub(amount);\r\n\r\n        _userCount[to] = (_userCount[to]).add(1);\r\n        _agentCount[from] = (_agentCount[from]).add(1);\r\n        _agentUserCount[from][to] = (_agentUserCount[from][to]).add(1);\r\n\r\n        _transactionsData[from][to][\r\n            _agentUserCount[from][to]\r\n        ] = TransactionData({\r\n            amount: amount,\r\n            timestamp: block.timestamp,\r\n            successful: true\r\n        });\r\n\r\n        _transactionsCount = _transactionsCount.add(1);\r\n        _transactions[_transactionsCount] = Transaction({\r\n            from: from,\r\n            to: to,\r\n            amount: amount,\r\n            timestamp: block.timestamp,\r\n            successful: true\r\n        });\r\n        emit Transfer(to, from, amount, \"transferFrom\");\r\n        return true;\r\n    }\r\n\r\n    /** @dev Creates `amount` and assigns them to `account`, increasing\r\n     * the total supply.\r\n     *\r\n     * Emits a {Transfer} event with `from` set to self.\r\n     *\r\n     * Requirements:\r\n     *\r\n     * - `account` cannot be the self address.\r\n     */\r\n    function _mint(string memory account, uint256 amount) public onlyOwner {\r\n        require(Validation.validateAgent(account));\r\n        _totalSupply += amount;\r\n        // Overflow not possible: balance + amount is at most totalSupply + amount, which is checked above.\r\n        _balances[account] = (_balances[account]).add(amount);\r\n        \r\n        emit Transfer(account, \"self\", amount, \"Minting\");\r\n    }\r\n\r\n    /**\r\n     * @dev Destroys `amount` from `account`, reducing the\r\n     * total supply.\r\n     *\r\n     * Emits a {Transfer} event with `to` set to the existing entity.\r\n     *\r\n     * Requirements:\r\n     *\r\n     * - `account` cannot be the non-existing entity.\r\n     * - `account` must have at least `amount`.\r\n     */\r\n    function _burn(string memory account, uint256 amount) public onlyOwner {\r\n        require(Validation.validateUser(account));\r\n        uint256 accountBalance = _balances[account];\r\n        require(accountBalance >= amount, \"ERC20: burn amount exceeds balance\");\r\n        \r\n        _balances[account] = accountBalance.sub(amount);\r\n        // Overflow not possible: amount <= accountBalance <= totalSupply.\r\n        _totalSupply = _totalSupply.sub(amount);\r\n\r\n        emit Transfer(\"self\", account, amount, \"Burning\");\r\n    }\r\n\r\n    /** @dev Creates token and assigns them to `account`, increasing\r\n     * the token total supply.\r\n     *\r\n     * Emits a {Transfer} event with `from` set to self.\r\n     *\r\n     * Requirements:\r\n     *\r\n     * - `account` cannot be the self address.\r\n     */\r\n    function mintToken(string memory account, string memory _name, string memory _symbol, uint256 amount) public onlyOwner {\r\n        _burn(account, amount);\r\n        _tokenCount = _tokenCount.add(1);\r\n        _tokens[_tokenCount] = Token({\r\n            id: _tokenCount,\r\n            userTokenId: _userTokensCount[account],\r\n            name: _name,\r\n            symbol: _symbol,\r\n            expires: (block.timestamp).add(7890000),\r\n            consumed: false\r\n        });\r\n        _tokenTotalSupply = _tokenTotalSupply.add(1);\r\n        _userTokens[account][_userTokensCount[account]] = _tokenCount;\r\n        _userTokensCount[account] = _userTokensCount[account].add(1);\r\n        \r\n        emit Transfer(account, \"self\", amount, \"Token Minting\");\r\n        getToken(_tokenCount);\r\n    }\r\n\r\n    /**\r\n     * @dev Destroys token from `account`, reducing the token\r\n     * total supply.\r\n     *\r\n     * Emits a {Transfer} event with `to` set to the existing entity.\r\n     *\r\n     * Requirements:\r\n     *\r\n     * - `account` cannot be the non-existing entity.\r\n     * - `account` must have at least `amount`.\r\n     */\r\n    function burnToken(string memory account, uint256 tokenId) public onlyOwner {\r\n        require(_tokens[tokenId].expires > block.timestamp);\r\n        require(_tokens[tokenId].consumed == false);\r\n        _tokens[tokenId].consumed = true;\r\n        _tokenTotalSupply = _tokenTotalSupply.sub(1);\r\n        emit Transfer(\"self\", account, 0, \"Token Burning\");\r\n    }\r\n\r\n    /**\r\n     * @dev Hook that is called before any transfer of tokens. This includes\r\n     * minting and burning.\r\n     *\r\n     * Calling conditions:\r\n     *\r\n     * - when `from` and `to` are both existing entities, `amount` of ``from``'s tokens\r\n     * will be transferred to `to`.\r\n     * - when `from` is self, `amount` tokens will be minted for `to`.\r\n     * - when `to` is self, `amount` of ``from``'s tokens will be burned.\r\n     * - `from` and `to` are never both non-existing entities.\r\n     *\r\n     */\r\n    function _beforeTransfer(\r\n        string memory from,\r\n        string memory to,\r\n        uint256 amount\r\n    ) internal onlyOwner {}\r\n\r\n    /**\r\n     * @dev Hook that is called after any transfer of tokens. This includes\r\n     * minting and burning.\r\n     *\r\n     * Calling conditions:\r\n     *\r\n     * - when `from` and `to` are both existing entities, `amount` of ``from``'s tokens\r\n     * has been transferred to `to`.\r\n     * - when `from` is self, `amount` tokens have been minted for `to`.\r\n     * - when `to` is self, `amount` of ``from``'s tokens have been burned.\r\n     * - `from` and `to` are never both non-existing entities.\r\n     *\r\n     */\r\n    function _afterTransfer(\r\n        string memory from,\r\n        string memory to,\r\n        uint256 amount\r\n    ) internal onlyOwner {}\r\n}\r\n",
  "sourcePath": "D:\\Desktop\\FYP\\rrr-project\\webserver\\blockchain\\contracts\\Reward.sol",
  "compiler": {
    "name": "solc",
    "version": "0.8.18+commit.87f61d96.Emscripten.clang"
  },
  "schemaVersion": "3.4.10",
  "updatedAt": "2023-02-03T14:51:17.328Z",
  "devdoc": {
    "events": {
      "Transfer(string,string,uint256,string)": {
        "details": "Emitted when `value` tokens are moved from one account (`from`) to another (`to`). Note that `value` may be zero."
      }
    },
    "kind": "dev",
    "methods": {
      "_burn(string,uint256)": {
        "details": "Destroys `amount` from `account`, reducing the total supply. Emits a {Transfer} event with `to` set to the existing entity. Requirements: - `account` cannot be the non-existing entity. - `account` must have at least `amount`."
      },
      "_mint(string,uint256)": {
        "details": "Creates `amount` and assigns them to `account`, increasing the total supply. Emits a {Transfer} event with `from` set to self. Requirements: - `account` cannot be the self address."
      },
      "balanceOf(string)": {
        "details": "See {IERC20-balanceOf}."
      },
      "burnToken(string,uint256)": {
        "details": "Destroys token from `account`, reducing the token total supply. Emits a {Transfer} event with `to` set to the existing entity. Requirements: - `account` cannot be the non-existing entity. - `account` must have at least `amount`."
      },
      "constructor": {
        "details": "Sets the value for variables"
      },
      "countAgent(string)": {
        "details": "Get Agent Count"
      },
      "countAgentUser(string,string)": {
        "details": "Get Agent-User Count"
      },
      "countSelf()": {
        "details": "Get Self Count"
      },
      "countToken()": {
        "details": "Get Token Count"
      },
      "countTokenTotalSupply()": {
        "details": "Get User Token Count"
      },
      "countTotalSupply()": {
        "details": "Get Total Supply"
      },
      "countTransactions()": {
        "details": "Get Transaction Count"
      },
      "countUser(string)": {
        "details": "Get User Count"
      },
      "countUserTokens(string)": {
        "details": "Get User Tokens Count"
      },
      "getToken(uint256)": {
        "details": "Get Token Data"
      },
      "getTransaction(uint256)": {
        "details": "Get Transaction "
      },
      "getTransactionData(string,string,uint256)": {
        "details": "Get Transactions Data "
      },
      "getUserToken(string,uint256)": {
        "details": "Get User Token Id"
      },
      "mintToken(string,string,string,uint256)": {
        "details": "Creates token and assigns them to `account`, increasing the token total supply. Emits a {Transfer} event with `from` set to self. Requirements: - `account` cannot be the self address."
      },
      "name(uint256)": {
        "details": "Returns the name of the token."
      },
      "setOwner(address)": {
        "details": "Function that sets the new owner:"
      },
      "symbol(uint256)": {
        "details": "Returns the symbol of the token, usually a shorter version of the name."
      },
      "transfer(string,uint256)": {
        "details": "See {IERC20-transfer}. Requirements: - `to` cannot be the non-existing entity. - the caller must have a balance of at least `amount`."
      },
      "transferFrom(string,string,uint256)": {
        "details": "See {IERC20-transferFrom}. Emits an {Approval} event indicating the updated allowance. This is not required by the EIP. NOTE: Does not update the allowance if the current allowance is the maximum `uint256`. Requirements: - `from` and `to` cannot be the non-existing entities. - `from` must have a balance of at least `amount`."
      }
    },
    "version": 1
  },
  "userdoc": {
    "kind": "user",
    "methods": {},
    "version": 1
  }
}