{
  "contractName": "Tracking",
  "abi": [
    {
      "anonymous": false,
      "inputs": [
        {
          "indexed": false,
          "internalType": "address",
          "name": "addressProducer",
          "type": "address"
        },
        {
          "indexed": false,
          "internalType": "string",
          "name": "id",
          "type": "string"
        },
        {
          "indexed": false,
          "internalType": "string",
          "name": "entity",
          "type": "string"
        },
        {
          "indexed": false,
          "internalType": "uint256",
          "name": "CreationDate",
          "type": "uint256"
        },
        {
          "indexed": false,
          "internalType": "string",
          "name": "AcceptMessage",
          "type": "string"
        }
      ],
      "name": "CreateWaste",
      "type": "event"
    },
    {
      "anonymous": false,
      "inputs": [
        {
          "indexed": false,
          "internalType": "address",
          "name": "addressProducer",
          "type": "address"
        },
        {
          "indexed": false,
          "internalType": "string",
          "name": "id",
          "type": "string"
        },
        {
          "indexed": false,
          "internalType": "string",
          "name": "RejectMessage",
          "type": "string"
        }
      ],
      "name": "CreationReject",
      "type": "event"
    },
    {
      "anonymous": false,
      "inputs": [
        {
          "indexed": false,
          "internalType": "address",
          "name": "addressProducer",
          "type": "address"
        },
        {
          "indexed": false,
          "internalType": "string",
          "name": "entity",
          "type": "string"
        },
        {
          "indexed": false,
          "internalType": "string",
          "name": "id",
          "type": "string"
        },
        {
          "indexed": false,
          "internalType": "string",
          "name": "RejectMessage",
          "type": "string"
        }
      ],
      "name": "TransferReject",
      "type": "event"
    },
    {
      "anonymous": false,
      "inputs": [
        {
          "indexed": false,
          "internalType": "address",
          "name": "addressProducer",
          "type": "address"
        },
        {
          "indexed": false,
          "internalType": "string",
          "name": "entity",
          "type": "string"
        },
        {
          "indexed": false,
          "internalType": "string",
          "name": "id",
          "type": "string"
        },
        {
          "indexed": false,
          "internalType": "string",
          "name": "AcceptMessage",
          "type": "string"
        }
      ],
      "name": "TransferWaste",
      "type": "event"
    },
    {
      "inputs": [
        {
          "internalType": "string",
          "name": "id",
          "type": "string"
        },
        {
          "internalType": "string",
          "name": "description",
          "type": "string"
        },
        {
          "internalType": "string",
          "name": "user",
          "type": "string"
        }
      ],
      "name": "creationWaste",
      "outputs": [],
      "stateMutability": "nonpayable",
      "type": "function"
    },
    {
      "inputs": [
        {
          "internalType": "string",
          "name": "agent",
          "type": "string"
        },
        {
          "internalType": "string",
          "name": "id",
          "type": "string"
        }
      ],
      "name": "agentOwnWaste",
      "outputs": [],
      "stateMutability": "nonpayable",
      "type": "function"
    },
    {
      "inputs": [
        {
          "internalType": "string",
          "name": "company",
          "type": "string"
        },
        {
          "internalType": "string",
          "name": "id",
          "type": "string"
        }
      ],
      "name": "companyOwnWaste",
      "outputs": [],
      "stateMutability": "nonpayable",
      "type": "function"
    },
    {
      "inputs": [
        {
          "internalType": "string",
          "name": "id",
          "type": "string"
        }
      ],
      "name": "getProduct",
      "outputs": [
        {
          "internalType": "string",
          "name": "",
          "type": "string"
        },
        {
          "internalType": "string",
          "name": "",
          "type": "string"
        },
        {
          "internalType": "string",
          "name": "",
          "type": "string"
        },
        {
          "internalType": "string",
          "name": "",
          "type": "string"
        },
        {
          "internalType": "uint256",
          "name": "",
          "type": "uint256"
        }
      ],
      "stateMutability": "view",
      "type": "function",
      "constant": true
    },
    {
      "inputs": [
        {
          "internalType": "string",
          "name": "user",
          "type": "string"
        },
        {
          "internalType": "string",
          "name": "id",
          "type": "string"
        }
      ],
      "name": "isUserOwner",
      "outputs": [
        {
          "internalType": "bool",
          "name": "",
          "type": "bool"
        }
      ],
      "stateMutability": "view",
      "type": "function",
      "constant": true
    },
    {
      "inputs": [
        {
          "internalType": "string",
          "name": "agent",
          "type": "string"
        },
        {
          "internalType": "string",
          "name": "id",
          "type": "string"
        }
      ],
      "name": "isAgentOwner",
      "outputs": [
        {
          "internalType": "bool",
          "name": "",
          "type": "bool"
        }
      ],
      "stateMutability": "view",
      "type": "function",
      "constant": true
    },
    {
      "inputs": [
        {
          "internalType": "string",
          "name": "company",
          "type": "string"
        },
        {
          "internalType": "string",
          "name": "id",
          "type": "string"
        }
      ],
      "name": "isCompanyOwner",
      "outputs": [
        {
          "internalType": "bool",
          "name": "",
          "type": "bool"
        }
      ],
      "stateMutability": "view",
      "type": "function",
      "constant": true
    }
  ],
  "bytecode": "0x6080604052600080546001600160a01b031916735df848c79f19e9a8ff59f83ed1a862da26aeba3e17905534801561003657600080fd5b50611395806100466000396000f3fe608060405234801561001057600080fd5b506004361061007d5760003560e01c80635516c8151161005b5780635516c815146100d257806368111cce146100e557806372baea7f14610109578063865c70461461011c57600080fd5b80630324dd7814610082578063193a04b41461009757806336fee4a6146100bf575b600080fd5b610095610090366004610c48565b61012f565b005b6100aa6100a5366004610c48565b6102bd565b60405190151581526020015b60405180910390f35b6100956100cd366004610c48565b61038d565b6100aa6100e0366004610c48565b61050f565b6100f86100f3366004610cac565b610598565b6040516100b6959493929190610d39565b610095610117366004610d99565b610889565b6100aa61012a366004610c48565b610b1c565b60018160405161013f9190610e21565b9081526040519081900360200190206006015460ff166101865760008051602061134083398151915233838360405161017a93929190610e3d565b60405180910390a15050565b60005460405163fb24ab0f60e01b81526001600160a01b039091169063fb24ab0f906101b6908590600401610ebd565b602060405180830381865afa1580156101d3573d6000803e3d6000fd5b505050506040513d601f19601f820116820180604052508101906101f79190610ed7565b61021c5760008051602061134083398151915233838360405161017a93929190610ef9565b8160018260405161022d9190610e21565b9081526020016040518091039020600301908161024a9190610ff1565b504260038360405161025c9190610e21565b9081526020016040518091039020826040516102789190610e21565b9081526020016040518091039020819055507fb74519f241acb9b97f5d5bffe7f4ed497349c8d1ff9a85053b1da7e55454e1e833838360405161017a939291906110b1565b6000805460405163a21dabb760e01b81526001600160a01b039091169063a21dabb7906102ee908690600401610ebd565b602060405180830381865afa15801561030b573d6000803e3d6000fd5b505050506040513d601f19601f8201168201806040525081019061032f9190610ed7565b801561037657506004836040516103469190610e21565b9081526020016040518091039020826040516103629190610e21565b908152602001604051809103902054600014155b1561038357506001610387565b5060005b92915050565b60018160405161039d9190610e21565b9081526040519081900360200190206006015460ff166103d85760008051602061134083398151915233838360405161017a93929190610e3d565b60005460405163a21dabb760e01b81526001600160a01b039091169063a21dabb790610408908590600401610ebd565b602060405180830381865afa158015610425573d6000803e3d6000fd5b505050506040513d601f19601f820116820180604052508101906104499190610ed7565b61046e5760008051602061134083398151915233838360405161017a93929190611129565b8160018260405161047f9190610e21565b9081526020016040518091039020600401908161049c9190610ff1565b50426004836040516104ae9190610e21565b9081526020016040518091039020826040516104ca9190610e21565b9081526020016040518091039020819055507fb74519f241acb9b97f5d5bffe7f4ed497349c8d1ff9a85053b1da7e55454e1e833838360405161017a9392919061119a565b6000805460405163fb24ab0f60e01b81526001600160a01b039091169063fb24ab0f90610540908690600401610ebd565b602060405180830381865afa15801561055d573d6000803e3d6000fd5b505050506040513d601f19601f820116820180604052508101906105819190610ed7565b801561037657506003836040516103469190610e21565b60608060608060006001866040516105b09190610e21565b90815260200160405180910390206001016001876040516105d19190610e21565b90815260200160405180910390206002016001886040516105f29190610e21565b90815260200160405180910390206003016001896040516106139190610e21565b908152602001604051809103902060040160018a6040516106349190610e21565b90815260200160405180910390206005015484805461065290610f68565b80601f016020809104026020016040519081016040528092919081815260200182805461067e90610f68565b80156106cb5780601f106106a0576101008083540402835291602001916106cb565b820191906000526020600020905b8154815290600101906020018083116106ae57829003601f168201915b505050505094508380546106de90610f68565b80601f016020809104026020016040519081016040528092919081815260200182805461070a90610f68565b80156107575780601f1061072c57610100808354040283529160200191610757565b820191906000526020600020905b81548152906001019060200180831161073a57829003601f168201915b5050505050935082805461076a90610f68565b80601f016020809104026020016040519081016040528092919081815260200182805461079690610f68565b80156107e35780601f106107b8576101008083540402835291602001916107e3565b820191906000526020600020905b8154815290600101906020018083116107c657829003601f168201915b505050505092508180546107f690610f68565b80601f016020809104026020016040519081016040528092919081815260200182805461082290610f68565b801561086f5780601f106108445761010080835404028352916020019161086f565b820191906000526020600020905b81548152906001019060200180831161085257829003601f168201915b505050505091509450945094509450945091939590929450565b6001836040516108999190610e21565b9081526040519081900360200190206006015460ff16156108f2577fec49f0c2e660fdeb9873c615b8d9a6c0cad3698035cc033dc10af16f220e2c3933846040516108e5929190611212565b60405180910390a1505050565b60005460405163b08eff9360e01b81526001600160a01b039091169063b08eff9390610922908490600401610ebd565b602060405180830381865afa15801561093f573d6000803e3d6000fd5b505050506040513d601f19601f820116820180604052508101906109639190610ed7565b610998577fec49f0c2e660fdeb9873c615b8d9a6c0cad3698035cc033dc10af16f220e2c3933846040516108e5929190611274565b6040518060e00160405280848152602001838152602001828152602001604051806040016040528060018152602001602d60f81b8152508152602001604051806040016040528060018152602001602d60f81b815250815260200142815260200160011515815250600184604051610a109190610e21565b90815260405190819003602001902081518190610a2d9082610ff1565b5060208201516001820190610a429082610ff1565b5060408201516002820190610a579082610ff1565b5060608201516003820190610a6c9082610ff1565b5060808201516004820190610a819082610ff1565b5060a0820151600582015560c0909101516006909101805460ff19169115159190911790556040514290600290610ab9908490610e21565b908152602001604051809103902084604051610ad59190610e21565b9081526020016040518091039020819055507feae311485a793bcfc951ad9de0edca46eccd222d8b069bb07a87a3ae944fc77f338483426040516108e594939291906112cc565b6000805460405163b08eff9360e01b81526001600160a01b039091169063b08eff9390610b4d908690600401610ebd565b602060405180830381865afa158015610b6a573d6000803e3d6000fd5b505050506040513d601f19601f82011682018060405250810190610b8e9190610ed7565b801561037657506002836040516103469190610e21565b634e487b7160e01b600052604160045260246000fd5b600082601f830112610bcc57600080fd5b813567ffffffffffffffff80821115610be757610be7610ba5565b604051601f8301601f19908116603f01168101908282118183101715610c0f57610c0f610ba5565b81604052838152866020858801011115610c2857600080fd5b836020870160208301376000602085830101528094505050505092915050565b60008060408385031215610c5b57600080fd5b823567ffffffffffffffff80821115610c7357600080fd5b610c7f86838701610bbb565b93506020850135915080821115610c9557600080fd5b50610ca285828601610bbb565b9150509250929050565b600060208284031215610cbe57600080fd5b813567ffffffffffffffff811115610cd557600080fd5b610ce184828501610bbb565b949350505050565b60005b83811015610d04578181015183820152602001610cec565b50506000910152565b60008151808452610d25816020860160208601610ce9565b601f01601f19169290920160200192915050565b60a081526000610d4c60a0830188610d0d565b8281036020840152610d5e8188610d0d565b90508281036040840152610d728187610d0d565b90508281036060840152610d868186610d0d565b9150508260808301529695505050505050565b600080600060608486031215610dae57600080fd5b833567ffffffffffffffff80821115610dc657600080fd5b610dd287838801610bbb565b94506020860135915080821115610de857600080fd5b610df487838801610bbb565b93506040860135915080821115610e0a57600080fd5b50610e1786828701610bbb565b9150509250925092565b60008251610e33818460208701610ce9565b9190910192915050565b6001600160a01b0384168152608060208201819052600090610e6190830185610d0d565b8281036040840152610e738185610d0d565b838103606094850152602181527f576173746520646f6573206e6f742065786973742077697468207468697320696020820152601960fa1b60408201529290920195945050505050565b602081526000610ed06020830184610d0d565b9392505050565b600060208284031215610ee957600080fd5b81518015158114610ed057600080fd5b6001600160a01b0384168152608060208201819052600090610f1d90830185610d0d565b8281036040840152610f2f8185610d0d565b838103606090940193909352505060148152731059d95b9d08191bd95cc81b9bdd08195e1a5cdd60621b60208201526040019392505050565b600181811c90821680610f7c57607f821691505b602082108103610f9c57634e487b7160e01b600052602260045260246000fd5b50919050565b601f821115610fec57600081815260208120601f850160051c81016020861015610fc95750805b601f850160051c820191505b81811015610fe857828155600101610fd5565b5050505b505050565b815167ffffffffffffffff81111561100b5761100b610ba5565b61101f816110198454610f68565b84610fa2565b602080601f831160018114611054576000841561103c5750858301515b600019600386901b1c1916600185901b178555610fe8565b600085815260208120601f198616915b8281101561108357888601518255948401946001909101908401611064565b50858210156110a15787850151600019600388901b60f8161c191681555b5050505050600190811b01905550565b6001600160a01b03841681526080602082018190526000906110d590830185610d0d565b82810360408401526110e78185610d0d565b8381036060909401939093525050601a81527f5761737465207472616e73706f7274656420746f204167656e7400000000000060208201526040019392505050565b6001600160a01b038416815260806020820181905260009061114d90830185610d0d565b828103604084015261115f8185610d0d565b8381036060909401939093525050601681527510dbdb5c185b9e48191bd95cc81b9bdd08195e1a5cdd60521b60208201526040019392505050565b6001600160a01b03841681526080602082018190526000906111be90830185610d0d565b82810360408401526111d08185610d0d565b8381036060909401939093525050601c81527f5761737465207472616e73706f7274656420746f20436f6d70616e790000000060208201526040019392505050565b6001600160a01b038316815260606020820181905260009061123690830184610d0d565b828103604093840152601f81527f576173746520666f72207468697320696420616c7265616479206578697374006020820152919091019392505050565b6001600160a01b038316815260606020820181905260009061129890830184610d0d565b8281036040938401526013815272155cd95c88191bd95cc81b9bdd08195e1a5cdd606a1b6020820152919091019392505050565b6001600160a01b038516815260a0602082018190526000906112f090830186610d0d565b82810360408401526113028186610d0d565b60608401949094525050808203608090910152601381527229bab1b1b2b9b9b33ab61021b932b0ba34b7b760691b6020820152604001939250505056fe96fced67c9c441e438c7427605f557b582fa916e993cc6e5f55ef55d81598f71a26469706673582212203e36095d60ad3f200ba7265e38c33dfcb9f016d94bb7238376621913f5a70cdb64736f6c63430008110033",
  "immutableReferences": {},
  "source": "// SPDX-License-Identifier: MIT\r\npragma solidity ^0.8.16;\r\nimport \"./ValidationInterface.sol\";\r\n\r\n/**\r\n * @title Tracking\r\n * @dev Contract with abstraction for tracking\r\n */\r\n\r\ncontract Tracking {\r\n    address private constant VALIDATION_CONTRACT = 0x5df848c79F19e9a8Ff59F83eD1A862da26aEbA3E;\r\n    ValidationInterface private Validation = ValidationInterface(VALIDATION_CONTRACT);\r\n\r\n    /**\r\n     * @dev Define the structure for a waste submission\r\n     */\r\n    struct Waste {\r\n        string id;\r\n        string description;\r\n        string user;\r\n        string agent;\r\n        string company;\r\n        uint256 submitDate;\r\n        bool exist;\r\n    }\r\n\r\n    //   struct EntityWasteData {\r\n    //     string id;\r\n    //     uint256 transferDate;\r\n    //   }\r\n\r\n    /**\r\n     * @dev Mapping that define the storage of a product\r\n     */\r\n    mapping(string => Waste) private wasteStorage;\r\n\r\n    mapping(string => mapping(string => uint256)) private userStorage;\r\n    mapping(string => mapping(string => uint256)) private agentStorage;\r\n    mapping(string => mapping(string => uint256)) private companyStorage;\r\n\r\n    /**\r\n     * @dev Declare events according the supply chain operations:\r\n     */\r\n    event CreateWaste(\r\n        address addressProducer,\r\n        string id,\r\n        string entity,\r\n        uint256 CreationDate,\r\n        string AcceptMessage\r\n    );\r\n    event TransferWaste(\r\n        address addressProducer,\r\n        string entity,\r\n        string id,\r\n        string AcceptMessage\r\n    );\r\n    //event setPrice(string id, uint32 salePrice);\r\n    event TransferReject(\r\n        address addressProducer,\r\n        string entity,\r\n        string id,\r\n        string RejectMessage\r\n    );\r\n    event CreationReject(\r\n        address addressProducer,\r\n        string id,\r\n        string RejectMessage\r\n    );\r\n\r\n    /**\r\n     * @dev Function that create the Waste Entry:\r\n     */\r\n    function creationWaste(\r\n        string memory id,\r\n        string memory description,\r\n        string memory user\r\n    ) public {\r\n        if (wasteStorage[id].exist) {\r\n            emit CreationReject(\r\n                msg.sender,\r\n                id,\r\n                \"Waste for this id already exist\"\r\n            );\r\n            return;\r\n        }\r\n\r\n        if (!Validation.validateUser(user)) {\r\n            emit CreationReject(msg.sender, id, \"User does not exist\");\r\n            return;\r\n        }\r\n\r\n        wasteStorage[id] = Waste(\r\n            id,\r\n            description,\r\n            user,\r\n            \"-\",\r\n            \"-\",\r\n            block.timestamp,\r\n            true\r\n        );\r\n        userStorage[user][id] = block.timestamp;\r\n        emit CreateWaste(\r\n            msg.sender,\r\n            id,\r\n            user,\r\n            block.timestamp,\r\n            \"Successful Creation\"\r\n        );\r\n    }\r\n\r\n    /**\r\n     * @dev Function that makes the transfer of ownership of waste to agent:\r\n     */\r\n    function agentOwnWaste(string memory agent, string memory id) public {\r\n        if (!wasteStorage[id].exist) {\r\n            emit TransferReject(\r\n                msg.sender,\r\n                agent,\r\n                id,\r\n                \"Waste does not exist with this id\"\r\n            );\r\n            return;\r\n        }\r\n\r\n        if (!Validation.validateAgent(agent)) {\r\n            emit TransferReject(msg.sender, agent, id, \"Agent does not exist\");\r\n            return;\r\n        }\r\n\r\n        wasteStorage[id].agent = agent;\r\n        agentStorage[agent][id] = block.timestamp;\r\n        emit TransferWaste(msg.sender, agent, id, \"Waste transported to Agent\");\r\n    }\r\n\r\n    /**\r\n     * @dev Function that makes the transfer of ownership of waste to company:\r\n     */\r\n    function companyOwnWaste(string memory company, string memory id) public {\r\n        if (!wasteStorage[id].exist) {\r\n            emit TransferReject(\r\n                msg.sender,\r\n                company,\r\n                id,\r\n                \"Waste does not exist with this id\"\r\n            );\r\n            return;\r\n        }\r\n\r\n        if (!Validation.validateCompany(company)) {\r\n            emit TransferReject(\r\n                msg.sender,\r\n                company,\r\n                id,\r\n                \"Company does not exist\"\r\n            );\r\n            return;\r\n        }\r\n\r\n        wasteStorage[id].company = company;\r\n        companyStorage[company][id] = block.timestamp;\r\n        emit TransferWaste(\r\n            msg.sender,\r\n            company,\r\n            id,\r\n            \"Waste transported to Company\"\r\n        );\r\n    }\r\n\r\n    /**\r\n     * @dev Getter of the characteristic of waste:\r\n     */\r\n    function getProduct(string memory id)\r\n        public\r\n        view\r\n        returns (\r\n            string memory,\r\n            string memory,\r\n            string memory,\r\n            string memory,\r\n            uint256\r\n        )\r\n    {\r\n        return (\r\n            wasteStorage[id].description,\r\n            wasteStorage[id].user,\r\n            wasteStorage[id].agent,\r\n            wasteStorage[id].company,\r\n            wasteStorage[id].submitDate\r\n        );\r\n    }\r\n\r\n    /**\r\n     * @dev Funcion to check the ownership of waste from user:\r\n     */\r\n    function isUserOwner(string memory user, string memory id)\r\n        public\r\n        view\r\n        returns (bool)\r\n    {\r\n        if (Validation.validateUser(user) && userStorage[user][id] != 0) {\r\n            return true;\r\n        }\r\n\r\n        return false;\r\n    }\r\n\r\n    /**\r\n     * @dev Funcion to check the ownership of waste from agent:\r\n     */\r\n    function isAgentOwner(string memory agent, string memory id)\r\n        public\r\n        view\r\n        returns (bool)\r\n    {\r\n        if (Validation.validateAgent(agent) && agentStorage[agent][id] != 0) {\r\n            return true;\r\n        }\r\n\r\n        return false;\r\n    }\r\n\r\n    /**\r\n     * @dev Funcion to check the ownership of waste from company:\r\n     */\r\n    function isCompanyOwner(string memory company, string memory id)\r\n        public\r\n        view\r\n        returns (bool)\r\n    {\r\n        if (Validation.validateCompany(company) && companyStorage[company][id] != 0) {\r\n            return true;\r\n        }\r\n\r\n        return false;\r\n    }\r\n}\r\n",
  "sourcePath": "D:\\Desktop\\FYP\\rrr-project\\webserver\\blockchain\\contracts\\Tracking.sol",
  "compiler": {
    "name": "solc",
    "version": "0.8.17+commit.8df45f5f.Emscripten.clang"
  },
  "schemaVersion": "3.4.10",
  "updatedAt": "2022-12-30T19:25:08.387Z",
  "networkType": "ethereum",
  "devdoc": {
    "details": "Contract with abstraction for tracking",
    "events": {
      "CreateWaste(address,string,string,uint256,string)": {
        "details": "Declare events according the supply chain operations:"
      }
    },
    "kind": "dev",
    "methods": {
      "agentOwnWaste(string,string)": {
        "details": "Function that makes the transfer of ownership of waste to agent:"
      },
      "companyOwnWaste(string,string)": {
        "details": "Function that makes the transfer of ownership of waste to company:"
      },
      "creationWaste(string,string,string)": {
        "details": "Function that create the Waste Entry:"
      },
      "getProduct(string)": {
        "details": "Getter of the characteristic of waste:"
      },
      "isAgentOwner(string,string)": {
        "details": "Funcion to check the ownership of waste from agent:"
      },
      "isCompanyOwner(string,string)": {
        "details": "Funcion to check the ownership of waste from company:"
      },
      "isUserOwner(string,string)": {
        "details": "Funcion to check the ownership of waste from user:"
      }
    },
    "stateVariables": {
      "wasteStorage": {
        "details": "Mapping that define the storage of a product"
      }
    },
    "title": "Tracking",
    "version": 1
  },
  "userdoc": {
    "kind": "user",
    "methods": {},
    "version": 1
  }
}