{
  "contractName": "Tracking",
  "abi": [
    {
      "inputs": [],
      "stateMutability": "nonpayable",
      "type": "constructor"
    },
    {
      "anonymous": false,
      "inputs": [
        {
          "indexed": false,
          "internalType": "string",
          "name": "id",
          "type": "string"
        },
        {
          "indexed": false,
          "internalType": "string",
          "name": "entity",
          "type": "string"
        },
        {
          "indexed": false,
          "internalType": "uint256",
          "name": "CreationDate",
          "type": "uint256"
        },
        {
          "indexed": false,
          "internalType": "string",
          "name": "AcceptMessage",
          "type": "string"
        }
      ],
      "name": "CreateWaste",
      "type": "event"
    },
    {
      "anonymous": false,
      "inputs": [
        {
          "indexed": false,
          "internalType": "string",
          "name": "id",
          "type": "string"
        },
        {
          "indexed": false,
          "internalType": "string",
          "name": "RejectMessage",
          "type": "string"
        }
      ],
      "name": "CreationReject",
      "type": "event"
    },
    {
      "anonymous": false,
      "inputs": [
        {
          "indexed": false,
          "internalType": "string",
          "name": "entity",
          "type": "string"
        },
        {
          "indexed": false,
          "internalType": "string",
          "name": "id",
          "type": "string"
        },
        {
          "indexed": false,
          "internalType": "string",
          "name": "RejectMessage",
          "type": "string"
        }
      ],
      "name": "TransferReject",
      "type": "event"
    },
    {
      "anonymous": false,
      "inputs": [
        {
          "indexed": false,
          "internalType": "string",
          "name": "entity",
          "type": "string"
        },
        {
          "indexed": false,
          "internalType": "string",
          "name": "id",
          "type": "string"
        },
        {
          "indexed": false,
          "internalType": "string",
          "name": "AcceptMessage",
          "type": "string"
        }
      ],
      "name": "TransferWaste",
      "type": "event"
    },
    {
      "anonymous": false,
      "inputs": [
        {
          "indexed": false,
          "internalType": "string",
          "name": "description",
          "type": "string"
        },
        {
          "indexed": false,
          "internalType": "string",
          "name": "weight",
          "type": "string"
        },
        {
          "indexed": false,
          "internalType": "string",
          "name": "user",
          "type": "string"
        },
        {
          "indexed": false,
          "internalType": "string",
          "name": "agent",
          "type": "string"
        },
        {
          "indexed": false,
          "internalType": "string",
          "name": "company",
          "type": "string"
        },
        {
          "indexed": false,
          "internalType": "uint256",
          "name": "submitDate",
          "type": "uint256"
        },
        {
          "indexed": false,
          "internalType": "bool",
          "name": "exist",
          "type": "bool"
        }
      ],
      "name": "WasteData",
      "type": "event"
    },
    {
      "inputs": [
        {
          "internalType": "address",
          "name": "newOwner",
          "type": "address"
        }
      ],
      "name": "setOwner",
      "outputs": [],
      "stateMutability": "nonpayable",
      "type": "function"
    },
    {
      "inputs": [
        {
          "internalType": "string",
          "name": "id",
          "type": "string"
        },
        {
          "internalType": "string",
          "name": "description",
          "type": "string"
        },
        {
          "internalType": "string",
          "name": "weight",
          "type": "string"
        },
        {
          "internalType": "string",
          "name": "user",
          "type": "string"
        }
      ],
      "name": "creationWaste",
      "outputs": [],
      "stateMutability": "nonpayable",
      "type": "function"
    },
    {
      "inputs": [
        {
          "internalType": "string",
          "name": "agent",
          "type": "string"
        },
        {
          "internalType": "string",
          "name": "id",
          "type": "string"
        }
      ],
      "name": "agentOwnWaste",
      "outputs": [],
      "stateMutability": "nonpayable",
      "type": "function"
    },
    {
      "inputs": [
        {
          "internalType": "string",
          "name": "company",
          "type": "string"
        },
        {
          "internalType": "string",
          "name": "id",
          "type": "string"
        }
      ],
      "name": "companyOwnWaste",
      "outputs": [],
      "stateMutability": "nonpayable",
      "type": "function"
    },
    {
      "inputs": [
        {
          "internalType": "string",
          "name": "id",
          "type": "string"
        }
      ],
      "name": "getWaste",
      "outputs": [
        {
          "internalType": "string",
          "name": "",
          "type": "string"
        },
        {
          "internalType": "string",
          "name": "",
          "type": "string"
        },
        {
          "internalType": "string",
          "name": "",
          "type": "string"
        },
        {
          "internalType": "string",
          "name": "",
          "type": "string"
        },
        {
          "internalType": "string",
          "name": "",
          "type": "string"
        },
        {
          "internalType": "uint256",
          "name": "",
          "type": "uint256"
        },
        {
          "internalType": "bool",
          "name": "",
          "type": "bool"
        }
      ],
      "stateMutability": "nonpayable",
      "type": "function"
    },
    {
      "inputs": [
        {
          "internalType": "string",
          "name": "user",
          "type": "string"
        },
        {
          "internalType": "string",
          "name": "id",
          "type": "string"
        }
      ],
      "name": "isUserOwner",
      "outputs": [
        {
          "internalType": "bool",
          "name": "",
          "type": "bool"
        }
      ],
      "stateMutability": "view",
      "type": "function"
    },
    {
      "inputs": [
        {
          "internalType": "string",
          "name": "agent",
          "type": "string"
        },
        {
          "internalType": "string",
          "name": "id",
          "type": "string"
        }
      ],
      "name": "isAgentOwner",
      "outputs": [
        {
          "internalType": "bool",
          "name": "",
          "type": "bool"
        }
      ],
      "stateMutability": "view",
      "type": "function"
    },
    {
      "inputs": [
        {
          "internalType": "string",
          "name": "company",
          "type": "string"
        },
        {
          "internalType": "string",
          "name": "id",
          "type": "string"
        }
      ],
      "name": "isCompanyOwner",
      "outputs": [
        {
          "internalType": "bool",
          "name": "",
          "type": "bool"
        }
      ],
      "stateMutability": "view",
      "type": "function"
    },
    {
      "inputs": [
        {
          "internalType": "string",
          "name": "company",
          "type": "string"
        },
        {
          "internalType": "string",
          "name": "id",
          "type": "string"
        }
      ],
      "name": "concludeWaste",
      "outputs": [],
      "stateMutability": "nonpayable",
      "type": "function"
    }
  ],
  "bytecode": "0x6080604052600080546001600160a01b031916734959daea53bed12f1859da37ae00935f173d598b17905534801561003657600080fd5b50600180546001600160a01b03191633179055611b23806100586000396000f3fe608060405234801561001057600080fd5b50600436106100935760003560e01c806336fee4a61161006657806336fee4a61461010e5780635516c81514610121578063865c7046146101345780639696502f14610147578063c2c129691461015a57600080fd5b80630324dd781461009857806313af4035146100ad578063193a04b4146100c057806320c28504146100e8575b600080fd5b6100ab6100a636600461131d565b61016d565b005b6100ab6100bb366004611381565b610395565b6100d36100ce36600461131d565b6103ce565b60405190151581526020015b60405180910390f35b6100fb6100f63660046113b1565b6104b7565b6040516100df979695949392919061143e565b6100ab61011c36600461131d565b6109cc565b6100d361012f36600461131d565b610ba3565b6100d361014236600461131d565b610c45565b6100ab61015536600461131d565b610ce7565b6100ab6101683660046114bb565b610f30565b6001546001600160a01b0316331461018457600080fd5b6002816040516101949190611568565b9081526040519081900360200190206007015460ff1661021457600080516020611ace83398151915282826040516101cd929190611584565b60405180910390a160405162461bcd60e51b815260206004820152600f60248201526e15d85cdd1948139bdd08199bdd5b99608a1b60448201526064015b60405180910390fd5b60005460405163fb24ab0f60e01b81526001600160a01b039091169063fb24ab0f906102449085906004016115f3565b602060405180830381865afa158015610261573d6000803e3d6000fd5b505050506040513d601f19601f820116820180604052508101906102859190611606565b6102ea57600080516020611ace83398151915282826040516102a8929190611628565b60405180910390a160405162461bcd60e51b815260206004820152600f60248201526e1059d95b9d08139bdd08199bdd5b99608a1b604482015260640161020b565b816002826040516102fb9190611568565b90815260200160405180910390206004019081610318919061170c565b504260048360405161032a9190611568565b9081526020016040518091039020826040516103469190611568565b9081526020016040518091039020819055507fc4418b4613637a3bc99a0d48f1efec75af35951a3e9ba9e583a0cccb29b3250382826040516103899291906117cc565b60405180910390a15050565b6001546001600160a01b031633146103ac57600080fd5b600180546001600160a01b0319166001600160a01b0392909216919091179055565b6001546000906001600160a01b031633146103e857600080fd5b60005460405163a21dabb760e01b81526001600160a01b039091169063a21dabb7906104189086906004016115f3565b602060405180830381865afa158015610435573d6000803e3d6000fd5b505050506040513d601f19601f820116820180604052508101906104599190611606565b80156104a057506005836040516104709190611568565b90815260200160405180910390208260405161048c9190611568565b908152602001604051809103902054600014155b156104ad575060016104b1565b5060005b92915050565b600154606090819081908190819060009081906001600160a01b031633146104de57600080fd5b7f8f25fcc22a7c26d6119a5608fe7da139d922fa2cf1d1f07e53dcab8611af124260028960405161050f9190611568565b908152602001604051809103902060010160028a6040516105309190611568565b908152602001604051809103902060020160028b6040516105519190611568565b908152602001604051809103902060030160028c6040516105729190611568565b908152602001604051809103902060040160028d6040516105939190611568565b908152602001604051809103902060050160028e6040516105b49190611568565b90815260200160405180910390206006015460028f6040516105d69190611568565b908152604051908190036020018120600701546105fe9796959493929160ff909116906118ad565b60405180910390a16002886040516106169190611568565b90815260200160405180910390206001016002896040516106379190611568565b908152602001604051809103902060020160028a6040516106589190611568565b908152602001604051809103902060030160028b6040516106799190611568565b908152602001604051809103902060040160028c60405161069a9190611568565b908152602001604051809103902060050160028d6040516106bb9190611568565b90815260200160405180910390206006015460028e6040516106dd9190611568565b90815260405190819003602001902060070154865460ff90911690879061070390611683565b80601f016020809104026020016040519081016040528092919081815260200182805461072f90611683565b801561077c5780601f106107515761010080835404028352916020019161077c565b820191906000526020600020905b81548152906001019060200180831161075f57829003601f168201915b5050505050965085805461078f90611683565b80601f01602080910402602001604051908101604052809291908181526020018280546107bb90611683565b80156108085780601f106107dd57610100808354040283529160200191610808565b820191906000526020600020905b8154815290600101906020018083116107eb57829003601f168201915b5050505050955084805461081b90611683565b80601f016020809104026020016040519081016040528092919081815260200182805461084790611683565b80156108945780601f1061086957610100808354040283529160200191610894565b820191906000526020600020905b81548152906001019060200180831161087757829003601f168201915b505050505094508380546108a790611683565b80601f01602080910402602001604051908101604052809291908181526020018280546108d390611683565b80156109205780601f106108f557610100808354040283529160200191610920565b820191906000526020600020905b81548152906001019060200180831161090357829003601f168201915b5050505050935082805461093390611683565b80601f016020809104026020016040519081016040528092919081815260200182805461095f90611683565b80156109ac5780601f10610981576101008083540402835291602001916109ac565b820191906000526020600020905b81548152906001019060200180831161098f57829003601f168201915b505050505092509650965096509650965096509650919395979092949650565b6001546001600160a01b031633146109e357600080fd5b6002816040516109f39190611568565b9081526040519081900360200190206007015460ff16610a2c57600080516020611ace83398151915282826040516101cd929190611584565b60005460405163a21dabb760e01b81526001600160a01b039091169063a21dabb790610a5c9085906004016115f3565b602060405180830381865afa158015610a79573d6000803e3d6000fd5b505050506040513d601f19601f82011682018060405250810190610a9d9190611606565b610b0457600080516020611ace8339815191528282604051610ac092919061190e565b60405180910390a160405162461bcd60e51b815260206004820152601160248201527010dbdb5c185b9e48139bdd08199bdd5b99607a1b604482015260640161020b565b81600282604051610b159190611568565b90815260200160405180910390206005019081610b32919061170c565b5042600583604051610b449190611568565b908152602001604051809103902082604051610b609190611568565b9081526020016040518091039020819055507fc4418b4613637a3bc99a0d48f1efec75af35951a3e9ba9e583a0cccb29b32503828260405161038992919061196b565b6001546000906001600160a01b03163314610bbd57600080fd5b60005460405163fb24ab0f60e01b81526001600160a01b039091169063fb24ab0f90610bed9086906004016115f3565b602060405180830381865afa158015610c0a573d6000803e3d6000fd5b505050506040513d601f19601f82011682018060405250810190610c2e9190611606565b80156104a057506004836040516104709190611568565b6001546000906001600160a01b03163314610c5f57600080fd5b60005460405163b08eff9360e01b81526001600160a01b039091169063b08eff9390610c8f9086906004016115f3565b602060405180830381865afa158015610cac573d6000803e3d6000fd5b505050506040513d601f19601f82011682018060405250810190610cd09190611606565b80156104a057506003836040516104709190611568565b6001546001600160a01b03163314610cfe57600080fd5b600281604051610d0e9190611568565b9081526040519081900360200190206007015460ff16610d4757600080516020611ace83398151915282826040516101cd929190611584565b60005460405163a21dabb760e01b81526001600160a01b039091169063a21dabb790610d779085906004016115f3565b602060405180830381865afa158015610d94573d6000803e3d6000fd5b505050506040513d601f19601f82011682018060405250810190610db89190611606565b610ddb57600080516020611ace8339815191528282604051610ac092919061190e565b6000600282604051610ded9190611568565b908152604051908190036020018120600701805492151560ff19909316929092179091557f8f25fcc22a7c26d6119a5608fe7da139d922fa2cf1d1f07e53dcab8611af124290600290610e41908490611568565b9081526020016040518091039020600101600283604051610e629190611568565b9081526020016040518091039020600201600284604051610e839190611568565b9081526020016040518091039020600301600285604051610ea49190611568565b9081526020016040518091039020600401600286604051610ec59190611568565b9081526020016040518091039020600501600287604051610ee69190611568565b908152602001604051809103902060060154600288604051610f089190611568565b908152604051908190036020018120600701546103899796959493929160ff909116906118ad565b6001546001600160a01b03163314610f4757600080fd5b600284604051610f579190611568565b9081526040519081900360200190206007015460ff1615610fe9577f299e7b66727a9a8f350a98d0dcbd95c6946dd099a78cb9438d2b778f9853e39784604051610fa191906119cf565b60405180910390a160405162461bcd60e51b815260206004820152601560248201527415d85cdd1948111d5c1b1a58d85d1948199bdd5b99605a1b604482015260640161020b565b60005460405163b08eff9360e01b81526001600160a01b039091169063b08eff93906110199084906004016115f3565b602060405180830381865afa158015611036573d6000803e3d6000fd5b505050506040513d601f19601f8201168201806040525081019061105a9190611606565b6110ce577f299e7b66727a9a8f350a98d0dcbd95c6946dd099a78cb9438d2b778f9853e3978460405161108d9190611a21565b60405180910390a160405162461bcd60e51b815260206004820152600e60248201526d155cd95c88139bdd08199bdd5b9960921b604482015260640161020b565b604051806101000160405280858152602001848152602001838152602001828152602001604051806040016040528060018152602001602d60f81b8152508152602001604051806040016040528060018152602001602d60f81b81525081526020014281526020016001151581525060028560405161114d9190611568565b9081526040519081900360200190208151819061116a908261170c565b506020820151600182019061117f908261170c565b5060408201516002820190611194908261170c565b50606082015160038201906111a9908261170c565b50608082015160048201906111be908261170c565b5060a082015160058201906111d3908261170c565b5060c0820151600682015560e0909101516007909101805460ff1916911515919091179055604051429060039061120b908490611568565b9081526020016040518091039020856040516112279190611568565b9081526020016040518091039020819055507fbbf961ca7ac0e4ecaecae1d1e07856a6e4212d44238379a3ffcfc024ec20b00f84824260405161126c93929190611a69565b60405180910390a150505050565b634e487b7160e01b600052604160045260246000fd5b600082601f8301126112a157600080fd5b813567ffffffffffffffff808211156112bc576112bc61127a565b604051601f8301601f19908116603f011681019082821181831017156112e4576112e461127a565b816040528381528660208588010111156112fd57600080fd5b836020870160208301376000602085830101528094505050505092915050565b6000806040838503121561133057600080fd5b823567ffffffffffffffff8082111561134857600080fd5b61135486838701611290565b9350602085013591508082111561136a57600080fd5b5061137785828601611290565b9150509250929050565b60006020828403121561139357600080fd5b81356001600160a01b03811681146113aa57600080fd5b9392505050565b6000602082840312156113c357600080fd5b813567ffffffffffffffff8111156113da57600080fd5b6113e684828501611290565b949350505050565b60005b838110156114095781810151838201526020016113f1565b50506000910152565b6000815180845261142a8160208601602086016113ee565b601f01601f19169290920160200192915050565b60e08152600061145160e083018a611412565b8281036020840152611463818a611412565b905082810360408401526114778189611412565b9050828103606084015261148b8188611412565b9050828103608084015261149f8187611412565b60a0840195909552505090151560c09091015295945050505050565b600080600080608085870312156114d157600080fd5b843567ffffffffffffffff808211156114e957600080fd5b6114f588838901611290565b9550602087013591508082111561150b57600080fd5b61151788838901611290565b9450604087013591508082111561152d57600080fd5b61153988838901611290565b9350606087013591508082111561154f57600080fd5b5061155c87828801611290565b91505092959194509250565b6000825161157a8184602087016113ee565b9190910192915050565b6060815260006115976060830185611412565b82810360208401526115a98185611412565b838103604094850152602181527f576173746520646f6573206e6f742065786973742077697468207468697320696020820152601960fa1b93810193909352505060600192915050565b6020815260006113aa6020830184611412565b60006020828403121561161857600080fd5b815180151581146113aa57600080fd5b60608152600061163b6060830185611412565b828103602084015261164d8185611412565b83810360409485015260148152731059d95b9d08191bd95cc81b9bdd08195e1a5cdd60621b602082015292909201949350505050565b600181811c9082168061169757607f821691505b6020821081036116b757634e487b7160e01b600052602260045260246000fd5b50919050565b601f82111561170757600081815260208120601f850160051c810160208610156116e45750805b601f850160051c820191505b81811015611703578281556001016116f0565b5050505b505050565b815167ffffffffffffffff8111156117265761172661127a565b61173a816117348454611683565b846116bd565b602080601f83116001811461176f57600084156117575750858301515b600019600386901b1c1916600185901b178555611703565b600085815260208120601f198616915b8281101561179e5788860151825594840194600190910190840161177f565b50858210156117bc5787850151600019600388901b60f8161c191681555b5050505050600190811b01905550565b6060815260006117df6060830185611412565b82810360208401526117f18185611412565b838103604094850152601a81527f5761737465207472616e73706f7274656420746f204167656e74000000000000602082015292909201949350505050565b6000815461183d81611683565b80855260206001838116801561185a5760018114611874576118a2565b60ff1985168884015283151560051b8801830195506118a2565b866000528260002060005b8581101561189a5781548a820186015290830190840161187f565b890184019650505b505050505092915050565b60e0815260006118c060e083018a611830565b82810360208401526118d2818a611830565b905082810360408401526118e68189611830565b905082810360608401526118fa8188611830565b9050828103608084015261149f8187611830565b6060815260006119216060830185611412565b82810360208401526119338185611412565b838103604094850152601681527510dbdb5c185b9e48191bd95cc81b9bdd08195e1a5cdd60521b602082015292909201949350505050565b60608152600061197e6060830185611412565b82810360208401526119908185611412565b838103604094850152601c81527f5761737465207472616e73706f7274656420746f20436f6d70616e7900000000602082015292909201949350505050565b6040815260006119e26040830184611412565b8281036020840152601f81527f576173746520666f72207468697320696420616c72656164792065786973740060208201526040810191505092915050565b604081526000611a346040830184611412565b82810360208401526013815272155cd95c88191bd95cc81b9bdd08195e1a5cdd606a1b60208201526040810191505092915050565b608081526000611a7c6080830186611412565b8281036020840152611a8e8186611412565b90508360408401528281036060840152601381527229bab1b1b2b9b9b33ab61021b932b0ba34b7b760691b60208201526040810191505094935050505056fefcf69d62b9f32997fb4023ffd59378840e521fb3c7116fd5f65cff685b600f6ea2646970667358221220617d2212a82c12b753e231a353d97c4cbb79928ae646baeec1d8baa6ad12d01464736f6c63430008130033",
  "immutableReferences": {},
  "source": "// SPDX-License-Identifier: MIT\r\npragma solidity ^0.8.16;\r\nimport \"./ValidationInterface.sol\";\r\n\r\n/**\r\n * @title Tracking\r\n * @dev Contract with abstraction for tracking\r\n */\r\n\r\ncontract Tracking {\r\n    // address private constant VALIDATION_CONTRACT = 0x5df848c79F19e9a8Ff59F83eD1A862da26aEbA3E;\r\n    address private constant VALIDATION_CONTRACT = 0x4959daeA53bEd12F1859da37AE00935F173D598b;\r\n    ValidationInterface private Validation = ValidationInterface(VALIDATION_CONTRACT);\r\n    address private owner;\r\n\r\n    /**\r\n     * @dev Define the structure for a waste submission\r\n     */\r\n    struct Waste {\r\n        string id;\r\n        string description;\r\n        string weight;\r\n        string user;\r\n        string agent;\r\n        string company;\r\n        uint256 submitDate;\r\n        bool exist;\r\n    }\r\n\r\n    /**\r\n     * @dev Mapping that define the storage of waste\r\n     */\r\n    mapping(string => Waste) private wasteStorage;\r\n\r\n    mapping(string => mapping(string => uint256)) private userStorage;\r\n    mapping(string => mapping(string => uint256)) private agentStorage;\r\n    mapping(string => mapping(string => uint256)) private companyStorage;\r\n\r\n    event CreateWaste(\r\n        string id,\r\n        string entity,\r\n        uint256 CreationDate,\r\n        string AcceptMessage\r\n    );\r\n    event TransferWaste(\r\n        string entity,\r\n        string id,\r\n        string AcceptMessage\r\n    );\r\n    \r\n    event TransferReject(\r\n        string entity,\r\n        string id,\r\n        string RejectMessage\r\n    );\r\n    event CreationReject(\r\n        string id,\r\n        string RejectMessage\r\n    );\r\n\r\n    event WasteData(\r\n        string description,\r\n        string weight,\r\n        string user,\r\n        string agent,\r\n        string company,\r\n        uint256 submitDate,\r\n        bool exist\r\n    );\r\n\r\n    constructor() {\r\n        owner = msg.sender;\r\n    }\r\n\r\n    modifier onlyOwner() {\r\n        require(msg.sender == owner);\r\n        _;\r\n    }\r\n\r\n    /**\r\n     * @dev Function that sets the new owner:\r\n     */\r\n    function setOwner(address newOwner) onlyOwner external {\r\n        owner = newOwner;\r\n    }\r\n\r\n    /**\r\n     * @dev Function that create the Waste Entry:\r\n     */\r\n    function creationWaste(\r\n        string memory id,\r\n        string memory description,\r\n        string memory weight,\r\n        string memory user\r\n    ) public onlyOwner {\r\n        if (wasteStorage[id].exist) {\r\n            emit CreationReject(\r\n                id,\r\n                \"Waste for this id already exist\"\r\n            );\r\n            revert('Waste Duplicate found');\r\n        }\r\n\r\n        if (!Validation.validateUser(user)) {\r\n            emit CreationReject( id, \"User does not exist\");\r\n            revert('User Not found');\r\n        }\r\n\r\n        wasteStorage[id] = Waste(\r\n            id,\r\n            description,\r\n            weight,\r\n            user,\r\n            \"-\",\r\n            \"-\",\r\n            block.timestamp,\r\n            true\r\n        );\r\n        userStorage[user][id] = block.timestamp;\r\n        emit CreateWaste(\r\n            id,\r\n            user,\r\n            block.timestamp,\r\n            \"Successful Creation\"\r\n        );\r\n    }\r\n\r\n    /**\r\n     * @dev Function that makes the transfer of ownership of waste to agent:\r\n     */\r\n    function agentOwnWaste(string memory agent, string memory id) public onlyOwner {\r\n        if (!wasteStorage[id].exist) {\r\n            emit TransferReject(\r\n                agent,\r\n                id,\r\n                \"Waste does not exist with this id\"\r\n            );\r\n            revert('Waste Not found');\r\n        }\r\n\r\n        if (!Validation.validateAgent(agent)) {\r\n            emit TransferReject(agent, id, \"Agent does not exist\");\r\n            revert('Agent Not found');\r\n        }\r\n\r\n        wasteStorage[id].agent = agent;\r\n        agentStorage[agent][id] = block.timestamp;\r\n        emit TransferWaste(agent, id, \"Waste transported to Agent\");\r\n    }\r\n\r\n    /**\r\n     * @dev Function that makes the transfer of ownership of waste to company:\r\n     */\r\n    function companyOwnWaste(string memory company, string memory id) public onlyOwner {\r\n        if (!wasteStorage[id].exist) {\r\n            emit TransferReject(\r\n                company,\r\n                id,\r\n                \"Waste does not exist with this id\"\r\n            );\r\n            revert('Waste Not found');\r\n        }\r\n\r\n        if (!Validation.validateCompany(company)) {\r\n            emit TransferReject(\r\n                company,\r\n                id,\r\n                \"Company does not exist\"\r\n            );\r\n            revert('Company Not found');\r\n        }\r\n\r\n        wasteStorage[id].company = company;\r\n        companyStorage[company][id] = block.timestamp;\r\n        emit TransferWaste(\r\n            company,\r\n            id,\r\n            \"Waste transported to Company\"\r\n        );\r\n    }\r\n\r\n    /**\r\n     * @dev Getter of the characteristic of waste:\r\n     */\r\n    function getWaste(string memory id)\r\n        public onlyOwner\r\n        returns (\r\n            string memory,\r\n            string memory,\r\n            string memory,\r\n            string memory,\r\n            string memory,\r\n            uint256,\r\n            bool\r\n        )\r\n    {\r\n        emit WasteData(\r\n            wasteStorage[id].description,\r\n            wasteStorage[id].weight,\r\n            wasteStorage[id].user,\r\n            wasteStorage[id].agent,\r\n            wasteStorage[id].company,\r\n            wasteStorage[id].submitDate,\r\n            wasteStorage[id].exist\r\n            );\r\n        return (\r\n            wasteStorage[id].description,\r\n            wasteStorage[id].weight,\r\n            wasteStorage[id].user,\r\n            wasteStorage[id].agent,\r\n            wasteStorage[id].company,\r\n            wasteStorage[id].submitDate,\r\n            wasteStorage[id].exist\r\n        );\r\n    }\r\n\r\n    /**\r\n     * @dev Funcion to check the ownership of waste from user:\r\n     */\r\n    function isUserOwner(string memory user, string memory id)\r\n        public\r\n        view\r\n        onlyOwner\r\n        returns (bool)\r\n    {\r\n        if (Validation.validateUser(user) && userStorage[user][id] != 0) {\r\n            return true;\r\n        }\r\n\r\n        return false;\r\n    }\r\n\r\n    /**\r\n     * @dev Funcion to check the ownership of waste from agent:\r\n     */\r\n    function isAgentOwner(string memory agent, string memory id)\r\n        public\r\n        view\r\n        onlyOwner\r\n        returns (bool)\r\n    {\r\n        if (Validation.validateAgent(agent) && agentStorage[agent][id] != 0) {\r\n            return true;\r\n        }\r\n\r\n        return false;\r\n    }\r\n\r\n    /**\r\n     * @dev Funcion to check the ownership of waste from company:\r\n     */\r\n    function isCompanyOwner(string memory company, string memory id)\r\n        public\r\n        view\r\n        onlyOwner\r\n        returns (bool)\r\n    {\r\n        if (Validation.validateCompany(company) && companyStorage[company][id] != 0) {\r\n            return true;\r\n        }\r\n\r\n        return false;\r\n    }\r\n\r\n    /**\r\n     * @dev Conclude the lifecycle of waste so rewards can be imbursed\r\n     */\r\n    function concludeWaste(string memory company, string memory id)\r\n        public\r\n        onlyOwner\r\n    {\r\n        if (!wasteStorage[id].exist) {\r\n            emit TransferReject(\r\n                company,\r\n                id,\r\n                \"Waste does not exist with this id\"\r\n            );\r\n            revert('Waste Not found');\r\n        }\r\n\r\n        if (!Validation.validateCompany(company)) {\r\n            emit TransferReject(\r\n                company,\r\n                id,\r\n                \"Company does not exist\"\r\n            );\r\n            revert('Company Not found');\r\n        }\r\n\r\n        wasteStorage[id].exist = false;\r\n        emit WasteData(\r\n            wasteStorage[id].description,\r\n            wasteStorage[id].weight,\r\n            wasteStorage[id].user,\r\n            wasteStorage[id].agent,\r\n            wasteStorage[id].company,\r\n            wasteStorage[id].submitDate,\r\n            wasteStorage[id].exist\r\n            );\r\n    }\r\n}\r\n",
  "sourcePath": "D:\\Desktop\\FYP\\rrr-project\\webserver\\blockchain\\contracts\\Tracking.sol",
  "compiler": {
    "name": "solc",
    "version": "0.8.19+commit.7dd6d404.Emscripten.clang"
  },
  "schemaVersion": "3.4.10",
  "updatedAt": "2023-03-04T20:45:23.948Z",
  "devdoc": {
    "details": "Contract with abstraction for tracking",
    "kind": "dev",
    "methods": {
      "agentOwnWaste(string,string)": {
        "details": "Function that makes the transfer of ownership of waste to agent:"
      },
      "companyOwnWaste(string,string)": {
        "details": "Function that makes the transfer of ownership of waste to company:"
      },
      "concludeWaste(string,string)": {
        "details": "Conclude the lifecycle of waste so rewards can be imbursed"
      },
      "creationWaste(string,string,string,string)": {
        "details": "Function that create the Waste Entry:"
      },
      "getWaste(string)": {
        "details": "Getter of the characteristic of waste:"
      },
      "isAgentOwner(string,string)": {
        "details": "Funcion to check the ownership of waste from agent:"
      },
      "isCompanyOwner(string,string)": {
        "details": "Funcion to check the ownership of waste from company:"
      },
      "isUserOwner(string,string)": {
        "details": "Funcion to check the ownership of waste from user:"
      },
      "setOwner(address)": {
        "details": "Function that sets the new owner:"
      }
    },
    "stateVariables": {
      "wasteStorage": {
        "details": "Mapping that define the storage of waste"
      }
    },
    "title": "Tracking",
    "version": 1
  },
  "userdoc": {
    "kind": "user",
    "methods": {},
    "version": 1
  }
}