{
  "contractName": "Tracking",
  "abi": [
    {
      "anonymous": false,
      "inputs": [
        {
          "indexed": false,
          "internalType": "string",
          "name": "id",
          "type": "string"
        },
        {
          "indexed": false,
          "internalType": "string",
          "name": "entity",
          "type": "string"
        },
        {
          "indexed": false,
          "internalType": "uint256",
          "name": "CreationDate",
          "type": "uint256"
        },
        {
          "indexed": false,
          "internalType": "string",
          "name": "AcceptMessage",
          "type": "string"
        }
      ],
      "name": "CreateWaste",
      "type": "event"
    },
    {
      "anonymous": false,
      "inputs": [
        {
          "indexed": false,
          "internalType": "string",
          "name": "id",
          "type": "string"
        },
        {
          "indexed": false,
          "internalType": "string",
          "name": "RejectMessage",
          "type": "string"
        }
      ],
      "name": "CreationReject",
      "type": "event"
    },
    {
      "anonymous": false,
      "inputs": [
        {
          "indexed": false,
          "internalType": "string",
          "name": "entity",
          "type": "string"
        },
        {
          "indexed": false,
          "internalType": "string",
          "name": "id",
          "type": "string"
        },
        {
          "indexed": false,
          "internalType": "string",
          "name": "RejectMessage",
          "type": "string"
        }
      ],
      "name": "TransferReject",
      "type": "event"
    },
    {
      "anonymous": false,
      "inputs": [
        {
          "indexed": false,
          "internalType": "string",
          "name": "entity",
          "type": "string"
        },
        {
          "indexed": false,
          "internalType": "string",
          "name": "id",
          "type": "string"
        },
        {
          "indexed": false,
          "internalType": "string",
          "name": "AcceptMessage",
          "type": "string"
        }
      ],
      "name": "TransferWaste",
      "type": "event"
    },
    {
      "anonymous": false,
      "inputs": [
        {
          "indexed": false,
          "internalType": "string",
          "name": "description",
          "type": "string"
        },
        {
          "indexed": false,
          "internalType": "string",
          "name": "weight",
          "type": "string"
        },
        {
          "indexed": false,
          "internalType": "string",
          "name": "user",
          "type": "string"
        },
        {
          "indexed": false,
          "internalType": "string",
          "name": "agent",
          "type": "string"
        },
        {
          "indexed": false,
          "internalType": "string",
          "name": "company",
          "type": "string"
        },
        {
          "indexed": false,
          "internalType": "uint256",
          "name": "submitDate",
          "type": "uint256"
        },
        {
          "indexed": false,
          "internalType": "bool",
          "name": "exist",
          "type": "bool"
        }
      ],
      "name": "WasteData",
      "type": "event"
    },
    {
      "inputs": [
        {
          "internalType": "string",
          "name": "id",
          "type": "string"
        },
        {
          "internalType": "string",
          "name": "description",
          "type": "string"
        },
        {
          "internalType": "string",
          "name": "weight",
          "type": "string"
        },
        {
          "internalType": "string",
          "name": "user",
          "type": "string"
        }
      ],
      "name": "creationWaste",
      "outputs": [],
      "stateMutability": "nonpayable",
      "type": "function"
    },
    {
      "inputs": [
        {
          "internalType": "string",
          "name": "agent",
          "type": "string"
        },
        {
          "internalType": "string",
          "name": "id",
          "type": "string"
        }
      ],
      "name": "agentOwnWaste",
      "outputs": [],
      "stateMutability": "nonpayable",
      "type": "function"
    },
    {
      "inputs": [
        {
          "internalType": "string",
          "name": "company",
          "type": "string"
        },
        {
          "internalType": "string",
          "name": "id",
          "type": "string"
        }
      ],
      "name": "companyOwnWaste",
      "outputs": [],
      "stateMutability": "nonpayable",
      "type": "function"
    },
    {
      "inputs": [
        {
          "internalType": "string",
          "name": "id",
          "type": "string"
        }
      ],
      "name": "getWaste",
      "outputs": [
        {
          "internalType": "string",
          "name": "",
          "type": "string"
        },
        {
          "internalType": "string",
          "name": "",
          "type": "string"
        },
        {
          "internalType": "string",
          "name": "",
          "type": "string"
        },
        {
          "internalType": "string",
          "name": "",
          "type": "string"
        },
        {
          "internalType": "string",
          "name": "",
          "type": "string"
        },
        {
          "internalType": "uint256",
          "name": "",
          "type": "uint256"
        },
        {
          "internalType": "bool",
          "name": "",
          "type": "bool"
        }
      ],
      "stateMutability": "nonpayable",
      "type": "function"
    },
    {
      "inputs": [
        {
          "internalType": "string",
          "name": "user",
          "type": "string"
        },
        {
          "internalType": "string",
          "name": "id",
          "type": "string"
        }
      ],
      "name": "isUserOwner",
      "outputs": [
        {
          "internalType": "bool",
          "name": "",
          "type": "bool"
        }
      ],
      "stateMutability": "view",
      "type": "function",
      "constant": true
    },
    {
      "inputs": [
        {
          "internalType": "string",
          "name": "agent",
          "type": "string"
        },
        {
          "internalType": "string",
          "name": "id",
          "type": "string"
        }
      ],
      "name": "isAgentOwner",
      "outputs": [
        {
          "internalType": "bool",
          "name": "",
          "type": "bool"
        }
      ],
      "stateMutability": "view",
      "type": "function",
      "constant": true
    },
    {
      "inputs": [
        {
          "internalType": "string",
          "name": "company",
          "type": "string"
        },
        {
          "internalType": "string",
          "name": "id",
          "type": "string"
        }
      ],
      "name": "isCompanyOwner",
      "outputs": [
        {
          "internalType": "bool",
          "name": "",
          "type": "bool"
        }
      ],
      "stateMutability": "view",
      "type": "function",
      "constant": true
    }
  ],
  "bytecode": "0x6080604052600080546001600160a01b031916735df848c79f19e9a8ff59f83ed1a862da26aeba3e17905534801561003657600080fd5b50611790806100466000396000f3fe608060405234801561001057600080fd5b506004361061007d5760003560e01c806336fee4a61161005b57806336fee4a6146100e55780635516c815146100f8578063865c70461461010b578063c2c129691461011e57600080fd5b80630324dd7814610082578063193a04b41461009757806320c28504146100bf575b600080fd5b610095610090366004610fb3565b610131565b005b6100aa6100a5366004610fb3565b610342565b60405190151581526020015b60405180910390f35b6100d26100cd366004611017565b610412565b6040516100b697969594939291906110a4565b6100956100f3366004610fb3565b61090b565b6100aa610106366004610fb3565b610acb565b6100aa610119366004610fb3565b610b54565b61009561012c366004611121565b610bdd565b60018160405161014191906111ce565b9081526040519081900360200190206007015460ff166101c15760008051602061173b833981519152828260405161017a9291906111ea565b60405180910390a160405162461bcd60e51b815260206004820152600f60248201526e15d85cdd1948139bdd08199bdd5b99608a1b60448201526064015b60405180910390fd5b60005460405163fb24ab0f60e01b81526001600160a01b039091169063fb24ab0f906101f1908590600401611259565b602060405180830381865afa15801561020e573d6000803e3d6000fd5b505050506040513d601f19601f820116820180604052508101906102329190611273565b6102975760008051602061173b8339815191528282604051610255929190611295565b60405180910390a160405162461bcd60e51b815260206004820152600f60248201526e1059d95b9d08139bdd08199bdd5b99608a1b60448201526064016101b8565b816001826040516102a891906111ce565b908152602001604051809103902060040190816102c59190611379565b50426003836040516102d791906111ce565b9081526020016040518091039020826040516102f391906111ce565b9081526020016040518091039020819055507fc4418b4613637a3bc99a0d48f1efec75af35951a3e9ba9e583a0cccb29b325038282604051610336929190611439565b60405180910390a15050565b6000805460405163a21dabb760e01b81526001600160a01b039091169063a21dabb790610373908690600401611259565b602060405180830381865afa158015610390573d6000803e3d6000fd5b505050506040513d601f19601f820116820180604052508101906103b49190611273565b80156103fb57506004836040516103cb91906111ce565b9081526020016040518091039020826040516103e791906111ce565b908152602001604051809103902054600014155b156104085750600161040c565b5060005b92915050565b60608060608060606000807f8f25fcc22a7c26d6119a5608fe7da139d922fa2cf1d1f07e53dcab8611af124260018960405161044e91906111ce565b908152602001604051809103902060010160018a60405161046f91906111ce565b908152602001604051809103902060020160018b60405161049091906111ce565b908152602001604051809103902060030160018c6040516104b191906111ce565b908152602001604051809103902060040160018d6040516104d291906111ce565b908152602001604051809103902060050160018e6040516104f391906111ce565b90815260200160405180910390206006015460018f60405161051591906111ce565b9081526040519081900360200181206007015461053d9796959493929160ff9091169061151a565b60405180910390a160018860405161055591906111ce565b908152602001604051809103902060010160018960405161057691906111ce565b908152602001604051809103902060020160018a60405161059791906111ce565b908152602001604051809103902060030160018b6040516105b891906111ce565b908152602001604051809103902060040160018c6040516105d991906111ce565b908152602001604051809103902060050160018d6040516105fa91906111ce565b90815260200160405180910390206006015460018e60405161061c91906111ce565b90815260405190819003602001902060070154865460ff909116908790610642906112f0565b80601f016020809104026020016040519081016040528092919081815260200182805461066e906112f0565b80156106bb5780601f10610690576101008083540402835291602001916106bb565b820191906000526020600020905b81548152906001019060200180831161069e57829003601f168201915b505050505096508580546106ce906112f0565b80601f01602080910402602001604051908101604052809291908181526020018280546106fa906112f0565b80156107475780601f1061071c57610100808354040283529160200191610747565b820191906000526020600020905b81548152906001019060200180831161072a57829003601f168201915b5050505050955084805461075a906112f0565b80601f0160208091040260200160405190810160405280929190818152602001828054610786906112f0565b80156107d35780601f106107a8576101008083540402835291602001916107d3565b820191906000526020600020905b8154815290600101906020018083116107b657829003601f168201915b505050505094508380546107e6906112f0565b80601f0160208091040260200160405190810160405280929190818152602001828054610812906112f0565b801561085f5780601f106108345761010080835404028352916020019161085f565b820191906000526020600020905b81548152906001019060200180831161084257829003601f168201915b50505050509350828054610872906112f0565b80601f016020809104026020016040519081016040528092919081815260200182805461089e906112f0565b80156108eb5780601f106108c0576101008083540402835291602001916108eb565b820191906000526020600020905b8154815290600101906020018083116108ce57829003601f168201915b505050505092509650965096509650965096509650919395979092949650565b60018160405161091b91906111ce565b9081526040519081900360200190206007015460ff166109545760008051602061173b833981519152828260405161017a9291906111ea565b60005460405163a21dabb760e01b81526001600160a01b039091169063a21dabb790610984908590600401611259565b602060405180830381865afa1580156109a1573d6000803e3d6000fd5b505050506040513d601f19601f820116820180604052508101906109c59190611273565b610a2c5760008051602061173b83398151915282826040516109e892919061157b565b60405180910390a160405162461bcd60e51b815260206004820152601160248201527010dbdb5c185b9e48139bdd08199bdd5b99607a1b60448201526064016101b8565b81600182604051610a3d91906111ce565b90815260200160405180910390206005019081610a5a9190611379565b5042600483604051610a6c91906111ce565b908152602001604051809103902082604051610a8891906111ce565b9081526020016040518091039020819055507fc4418b4613637a3bc99a0d48f1efec75af35951a3e9ba9e583a0cccb29b3250382826040516103369291906115d8565b6000805460405163fb24ab0f60e01b81526001600160a01b039091169063fb24ab0f90610afc908690600401611259565b602060405180830381865afa158015610b19573d6000803e3d6000fd5b505050506040513d601f19601f82011682018060405250810190610b3d9190611273565b80156103fb57506003836040516103cb91906111ce565b6000805460405163b08eff9360e01b81526001600160a01b039091169063b08eff9390610b85908690600401611259565b602060405180830381865afa158015610ba2573d6000803e3d6000fd5b505050506040513d601f19601f82011682018060405250810190610bc69190611273565b80156103fb57506002836040516103cb91906111ce565b600184604051610bed91906111ce565b9081526040519081900360200190206007015460ff1615610c7f577f299e7b66727a9a8f350a98d0dcbd95c6946dd099a78cb9438d2b778f9853e39784604051610c37919061163c565b60405180910390a160405162461bcd60e51b815260206004820152601560248201527415d85cdd1948111d5c1b1a58d85d1948199bdd5b99605a1b60448201526064016101b8565b60005460405163b08eff9360e01b81526001600160a01b039091169063b08eff9390610caf908490600401611259565b602060405180830381865afa158015610ccc573d6000803e3d6000fd5b505050506040513d601f19601f82011682018060405250810190610cf09190611273565b610d64577f299e7b66727a9a8f350a98d0dcbd95c6946dd099a78cb9438d2b778f9853e39784604051610d23919061168e565b60405180910390a160405162461bcd60e51b815260206004820152600e60248201526d155cd95c88139bdd08199bdd5b9960921b60448201526064016101b8565b604051806101000160405280858152602001848152602001838152602001828152602001604051806040016040528060018152602001602d60f81b8152508152602001604051806040016040528060018152602001602d60f81b815250815260200142815260200160011515815250600185604051610de391906111ce565b90815260405190819003602001902081518190610e009082611379565b5060208201516001820190610e159082611379565b5060408201516002820190610e2a9082611379565b5060608201516003820190610e3f9082611379565b5060808201516004820190610e549082611379565b5060a08201516005820190610e699082611379565b5060c0820151600682015560e0909101516007909101805460ff19169115159190911790556040514290600290610ea19084906111ce565b908152602001604051809103902085604051610ebd91906111ce565b9081526020016040518091039020819055507fbbf961ca7ac0e4ecaecae1d1e07856a6e4212d44238379a3ffcfc024ec20b00f848242604051610f02939291906116d6565b60405180910390a150505050565b634e487b7160e01b600052604160045260246000fd5b600082601f830112610f3757600080fd5b813567ffffffffffffffff80821115610f5257610f52610f10565b604051601f8301601f19908116603f01168101908282118183101715610f7a57610f7a610f10565b81604052838152866020858801011115610f9357600080fd5b836020870160208301376000602085830101528094505050505092915050565b60008060408385031215610fc657600080fd5b823567ffffffffffffffff80821115610fde57600080fd5b610fea86838701610f26565b9350602085013591508082111561100057600080fd5b5061100d85828601610f26565b9150509250929050565b60006020828403121561102957600080fd5b813567ffffffffffffffff81111561104057600080fd5b61104c84828501610f26565b949350505050565b60005b8381101561106f578181015183820152602001611057565b50506000910152565b60008151808452611090816020860160208601611054565b601f01601f19169290920160200192915050565b60e0815260006110b760e083018a611078565b82810360208401526110c9818a611078565b905082810360408401526110dd8189611078565b905082810360608401526110f18188611078565b905082810360808401526111058187611078565b60a0840195909552505090151560c09091015295945050505050565b6000806000806080858703121561113757600080fd5b843567ffffffffffffffff8082111561114f57600080fd5b61115b88838901610f26565b9550602087013591508082111561117157600080fd5b61117d88838901610f26565b9450604087013591508082111561119357600080fd5b61119f88838901610f26565b935060608701359150808211156111b557600080fd5b506111c287828801610f26565b91505092959194509250565b600082516111e0818460208701611054565b9190910192915050565b6060815260006111fd6060830185611078565b828103602084015261120f8185611078565b838103604094850152602181527f576173746520646f6573206e6f742065786973742077697468207468697320696020820152601960fa1b93810193909352505060600192915050565b60208152600061126c6020830184611078565b9392505050565b60006020828403121561128557600080fd5b8151801515811461126c57600080fd5b6060815260006112a86060830185611078565b82810360208401526112ba8185611078565b83810360409485015260148152731059d95b9d08191bd95cc81b9bdd08195e1a5cdd60621b602082015292909201949350505050565b600181811c9082168061130457607f821691505b60208210810361132457634e487b7160e01b600052602260045260246000fd5b50919050565b601f82111561137457600081815260208120601f850160051c810160208610156113515750805b601f850160051c820191505b818110156113705782815560010161135d565b5050505b505050565b815167ffffffffffffffff81111561139357611393610f10565b6113a7816113a184546112f0565b8461132a565b602080601f8311600181146113dc57600084156113c45750858301515b600019600386901b1c1916600185901b178555611370565b600085815260208120601f198616915b8281101561140b578886015182559484019460019091019084016113ec565b50858210156114295787850151600019600388901b60f8161c191681555b5050505050600190811b01905550565b60608152600061144c6060830185611078565b828103602084015261145e8185611078565b838103604094850152601a81527f5761737465207472616e73706f7274656420746f204167656e74000000000000602082015292909201949350505050565b600081546114aa816112f0565b8085526020600183811680156114c757600181146114e15761150f565b60ff1985168884015283151560051b88018301955061150f565b866000528260002060005b858110156115075781548a82018601529083019084016114ec565b890184019650505b505050505092915050565b60e08152600061152d60e083018a61149d565b828103602084015261153f818a61149d565b90508281036040840152611553818961149d565b90508281036060840152611567818861149d565b90508281036080840152611105818761149d565b60608152600061158e6060830185611078565b82810360208401526115a08185611078565b838103604094850152601681527510dbdb5c185b9e48191bd95cc81b9bdd08195e1a5cdd60521b602082015292909201949350505050565b6060815260006115eb6060830185611078565b82810360208401526115fd8185611078565b838103604094850152601c81527f5761737465207472616e73706f7274656420746f20436f6d70616e7900000000602082015292909201949350505050565b60408152600061164f6040830184611078565b8281036020840152601f81527f576173746520666f72207468697320696420616c72656164792065786973740060208201526040810191505092915050565b6040815260006116a16040830184611078565b82810360208401526013815272155cd95c88191bd95cc81b9bdd08195e1a5cdd606a1b60208201526040810191505092915050565b6080815260006116e96080830186611078565b82810360208401526116fb8186611078565b90508360408401528281036060840152601381527229bab1b1b2b9b9b33ab61021b932b0ba34b7b760691b60208201526040810191505094935050505056fefcf69d62b9f32997fb4023ffd59378840e521fb3c7116fd5f65cff685b600f6ea26469706673582212201a7062070772207b95c5c1eb17c608dae8c697e57be13b22ec0e39787657651164736f6c63430008110033",
  "immutableReferences": {},
  "source": "// SPDX-License-Identifier: MIT\r\npragma solidity ^0.8.16;\r\nimport \"./ValidationInterface.sol\";\r\n\r\n/**\r\n * @title Tracking\r\n * @dev Contract with abstraction for tracking\r\n */\r\n\r\ncontract Tracking {\r\n    address private constant VALIDATION_CONTRACT = 0x5df848c79F19e9a8Ff59F83eD1A862da26aEbA3E;\r\n    ValidationInterface private Validation = ValidationInterface(VALIDATION_CONTRACT);\r\n\r\n    /**\r\n     * @dev Define the structure for a waste submission\r\n     */\r\n    struct Waste {\r\n        string id;\r\n        string description;\r\n        string weight;\r\n        string user;\r\n        string agent;\r\n        string company;\r\n        uint256 submitDate;\r\n        bool exist;\r\n    }\r\n\r\n    /**\r\n     * @dev Mapping that define the storage of waste\r\n     */\r\n    mapping(string => Waste) private wasteStorage;\r\n\r\n    mapping(string => mapping(string => uint256)) private userStorage;\r\n    mapping(string => mapping(string => uint256)) private agentStorage;\r\n    mapping(string => mapping(string => uint256)) private companyStorage;\r\n\r\n    event CreateWaste(\r\n        string id,\r\n        string entity,\r\n        uint256 CreationDate,\r\n        string AcceptMessage\r\n    );\r\n    event TransferWaste(\r\n        string entity,\r\n        string id,\r\n        string AcceptMessage\r\n    );\r\n    \r\n    event TransferReject(\r\n        string entity,\r\n        string id,\r\n        string RejectMessage\r\n    );\r\n    event CreationReject(\r\n        string id,\r\n        string RejectMessage\r\n    );\r\n\r\n    event WasteData(\r\n        string description,\r\n        string weight,\r\n        string user,\r\n        string agent,\r\n        string company,\r\n        uint256 submitDate,\r\n        bool exist\r\n    );\r\n\r\n    /**\r\n     * @dev Function that create the Waste Entry:\r\n     */\r\n    function creationWaste(\r\n        string memory id,\r\n        string memory description,\r\n        string memory weight,\r\n        string memory user\r\n    ) public {\r\n        if (wasteStorage[id].exist) {\r\n            emit CreationReject(\r\n                id,\r\n                \"Waste for this id already exist\"\r\n            );\r\n            revert('Waste Duplicate found');\r\n        }\r\n\r\n        if (!Validation.validateUser(user)) {\r\n            emit CreationReject( id, \"User does not exist\");\r\n            revert('User Not found');\r\n        }\r\n\r\n        wasteStorage[id] = Waste(\r\n            id,\r\n            description,\r\n            weight,\r\n            user,\r\n            \"-\",\r\n            \"-\",\r\n            block.timestamp,\r\n            true\r\n        );\r\n        userStorage[user][id] = block.timestamp;\r\n        emit CreateWaste(\r\n            id,\r\n            user,\r\n            block.timestamp,\r\n            \"Successful Creation\"\r\n        );\r\n    }\r\n\r\n    /**\r\n     * @dev Function that makes the transfer of ownership of waste to agent:\r\n     */\r\n    function agentOwnWaste(string memory agent, string memory id) public {\r\n        if (!wasteStorage[id].exist) {\r\n            emit TransferReject(\r\n                agent,\r\n                id,\r\n                \"Waste does not exist with this id\"\r\n            );\r\n            revert('Waste Not found');\r\n        }\r\n\r\n        if (!Validation.validateAgent(agent)) {\r\n            emit TransferReject(agent, id, \"Agent does not exist\");\r\n            revert('Agent Not found');\r\n        }\r\n\r\n        wasteStorage[id].agent = agent;\r\n        agentStorage[agent][id] = block.timestamp;\r\n        emit TransferWaste(agent, id, \"Waste transported to Agent\");\r\n    }\r\n\r\n    /**\r\n     * @dev Function that makes the transfer of ownership of waste to company:\r\n     */\r\n    function companyOwnWaste(string memory company, string memory id) public {\r\n        if (!wasteStorage[id].exist) {\r\n            emit TransferReject(\r\n                company,\r\n                id,\r\n                \"Waste does not exist with this id\"\r\n            );\r\n            revert('Waste Not found');\r\n        }\r\n\r\n        if (!Validation.validateCompany(company)) {\r\n            emit TransferReject(\r\n                company,\r\n                id,\r\n                \"Company does not exist\"\r\n            );\r\n            revert('Company Not found');\r\n        }\r\n\r\n        wasteStorage[id].company = company;\r\n        companyStorage[company][id] = block.timestamp;\r\n        emit TransferWaste(\r\n            company,\r\n            id,\r\n            \"Waste transported to Company\"\r\n        );\r\n    }\r\n\r\n    /**\r\n     * @dev Getter of the characteristic of waste:\r\n     */\r\n    function getWaste(string memory id)\r\n        public\r\n        returns (\r\n            string memory,\r\n            string memory,\r\n            string memory,\r\n            string memory,\r\n            string memory,\r\n            uint256,\r\n            bool\r\n        )\r\n    {\r\n        emit WasteData(\r\n            wasteStorage[id].description,\r\n            wasteStorage[id].weight,\r\n            wasteStorage[id].user,\r\n            wasteStorage[id].agent,\r\n            wasteStorage[id].company,\r\n            wasteStorage[id].submitDate,\r\n            wasteStorage[id].exist\r\n            );\r\n        return (\r\n            wasteStorage[id].description,\r\n            wasteStorage[id].weight,\r\n            wasteStorage[id].user,\r\n            wasteStorage[id].agent,\r\n            wasteStorage[id].company,\r\n            wasteStorage[id].submitDate,\r\n            wasteStorage[id].exist\r\n        );\r\n    }\r\n\r\n    /**\r\n     * @dev Funcion to check the ownership of waste from user:\r\n     */\r\n    function isUserOwner(string memory user, string memory id)\r\n        public\r\n        view\r\n        returns (bool)\r\n    {\r\n        if (Validation.validateUser(user) && userStorage[user][id] != 0) {\r\n            return true;\r\n        }\r\n\r\n        return false;\r\n    }\r\n\r\n    /**\r\n     * @dev Funcion to check the ownership of waste from agent:\r\n     */\r\n    function isAgentOwner(string memory agent, string memory id)\r\n        public\r\n        view\r\n        returns (bool)\r\n    {\r\n        if (Validation.validateAgent(agent) && agentStorage[agent][id] != 0) {\r\n            return true;\r\n        }\r\n\r\n        return false;\r\n    }\r\n\r\n    /**\r\n     * @dev Funcion to check the ownership of waste from company:\r\n     */\r\n    function isCompanyOwner(string memory company, string memory id)\r\n        public\r\n        view\r\n        returns (bool)\r\n    {\r\n        if (Validation.validateCompany(company) && companyStorage[company][id] != 0) {\r\n            return true;\r\n        }\r\n\r\n        return false;\r\n    }\r\n}\r\n",
  "sourcePath": "D:\\Desktop\\FYP\\rrr-project\\webserver\\blockchain\\contracts\\Tracking.sol",
  "compiler": {
    "name": "solc",
    "version": "0.8.17+commit.8df45f5f.Emscripten.clang"
  },
  "schemaVersion": "3.4.10",
  "updatedAt": "2023-01-01T20:19:41.157Z",
  "networkType": "ethereum",
  "devdoc": {
    "details": "Contract with abstraction for tracking",
    "kind": "dev",
    "methods": {
      "agentOwnWaste(string,string)": {
        "details": "Function that makes the transfer of ownership of waste to agent:"
      },
      "companyOwnWaste(string,string)": {
        "details": "Function that makes the transfer of ownership of waste to company:"
      },
      "creationWaste(string,string,string,string)": {
        "details": "Function that create the Waste Entry:"
      },
      "getWaste(string)": {
        "details": "Getter of the characteristic of waste:"
      },
      "isAgentOwner(string,string)": {
        "details": "Funcion to check the ownership of waste from agent:"
      },
      "isCompanyOwner(string,string)": {
        "details": "Funcion to check the ownership of waste from company:"
      },
      "isUserOwner(string,string)": {
        "details": "Funcion to check the ownership of waste from user:"
      }
    },
    "stateVariables": {
      "wasteStorage": {
        "details": "Mapping that define the storage of waste"
      }
    },
    "title": "Tracking",
    "version": 1
  },
  "userdoc": {
    "kind": "user",
    "methods": {},
    "version": 1
  }
}