{
  "contractName": "Validation",
  "abi": [
    {
      "inputs": [],
      "stateMutability": "nonpayable",
      "type": "constructor"
    },
    {
      "anonymous": false,
      "inputs": [
        {
          "indexed": false,
          "internalType": "string",
          "name": "method",
          "type": "string"
        },
        {
          "indexed": false,
          "internalType": "string",
          "name": "value",
          "type": "string"
        },
        {
          "indexed": false,
          "internalType": "string",
          "name": "eventMessage",
          "type": "string"
        }
      ],
      "name": "ValidationEvent",
      "type": "event"
    },
    {
      "inputs": [
        {
          "internalType": "string",
          "name": "user",
          "type": "string"
        }
      ],
      "name": "validateUser",
      "outputs": [
        {
          "internalType": "bool",
          "name": "",
          "type": "bool"
        }
      ],
      "stateMutability": "view",
      "type": "function"
    },
    {
      "inputs": [
        {
          "internalType": "string",
          "name": "agent",
          "type": "string"
        }
      ],
      "name": "validateAgent",
      "outputs": [
        {
          "internalType": "bool",
          "name": "",
          "type": "bool"
        }
      ],
      "stateMutability": "view",
      "type": "function"
    },
    {
      "inputs": [
        {
          "internalType": "string",
          "name": "company",
          "type": "string"
        }
      ],
      "name": "validateCompany",
      "outputs": [
        {
          "internalType": "bool",
          "name": "",
          "type": "bool"
        }
      ],
      "stateMutability": "view",
      "type": "function"
    },
    {
      "inputs": [
        {
          "internalType": "string",
          "name": "user",
          "type": "string"
        }
      ],
      "name": "addUser",
      "outputs": [],
      "stateMutability": "nonpayable",
      "type": "function"
    },
    {
      "inputs": [
        {
          "internalType": "string",
          "name": "agent",
          "type": "string"
        }
      ],
      "name": "addAgent",
      "outputs": [],
      "stateMutability": "nonpayable",
      "type": "function"
    },
    {
      "inputs": [
        {
          "internalType": "string",
          "name": "company",
          "type": "string"
        }
      ],
      "name": "addCompany",
      "outputs": [],
      "stateMutability": "nonpayable",
      "type": "function"
    },
    {
      "inputs": [
        {
          "internalType": "string",
          "name": "user",
          "type": "string"
        }
      ],
      "name": "removeUser",
      "outputs": [],
      "stateMutability": "nonpayable",
      "type": "function"
    },
    {
      "inputs": [
        {
          "internalType": "string",
          "name": "agent",
          "type": "string"
        }
      ],
      "name": "removeAgent",
      "outputs": [],
      "stateMutability": "nonpayable",
      "type": "function"
    },
    {
      "inputs": [
        {
          "internalType": "string",
          "name": "company",
          "type": "string"
        }
      ],
      "name": "removeCompany",
      "outputs": [],
      "stateMutability": "nonpayable",
      "type": "function"
    }
  ],
  "bytecode": "0x608060405234801561001057600080fd5b5061077c806100206000396000f3fe608060405234801561001057600080fd5b50600436106100935760003560e01c8063ca87e7b511610066578063ca87e7b5146100fa578063d6483d171461010d578063dea02fe314610120578063fb24ab0f14610133578063ffcee0a11461014657600080fd5b806318b8275a14610098578063600cee78146100ad578063a21dabb7146100c0578063b08eff93146100e7575b600080fd5b6100ab6100a63660046103aa565b610159565b005b6100ab6100bb3660046103aa565b6101b2565b6100d36100ce3660046103aa565b6101ff565b604051901515815260200160405180910390f35b6100d36100f53660046103aa565b61023a565b6100ab6101083660046103aa565b61024b565b6100ab61011b3660046103aa565b610298565b6100ab61012e3660046103aa565b6102e6565b6100d36101413660046103aa565b610334565b6100ab6101543660046103aa565b610346565b600160008260405161016b919061047f565b908152604051908190036020018120805492151560ff1990931692909217909155600080516020610727833981519152906101a79083906104c7565b60405180910390a150565b600080826040516101c3919061047f565b908152604051908190036020018120805492151560ff1990931692909217909155600080516020610727833981519152906101a7908390610529565b6000600282604051610211919061047f565b9081526040519081900360200190205460ff16151560011461023257600080fd5b506001919050565b60008082604051610211919061047f565b6001808260405161025c919061047f565b908152604051908190036020018120805492151560ff1990931692909217909155600080516020610727833981519152906101a790839061058c565b60016002826040516102aa919061047f565b908152604051908190036020018120805492151560ff1990931692909217909155600080516020610727833981519152906101a79083906105f0565b60006001826040516102f8919061047f565b908152604051908190036020018120805492151560ff1990931692909217909155600080516020610727833981519152906101a7908390610658565b6000600182604051610211919061047f565b6000600282604051610358919061047f565b908152604051908190036020018120805492151560ff1990931692909217909155600080516020610727833981519152906101a79083906106bd565b634e487b7160e01b600052604160045260246000fd5b6000602082840312156103bc57600080fd5b813567ffffffffffffffff808211156103d457600080fd5b818401915084601f8301126103e857600080fd5b8135818111156103fa576103fa610394565b604051601f8201601f19908116603f0116810190838211818310171561042257610422610394565b8160405282815287602084870101111561043b57600080fd5b826020860160208301376000928101602001929092525095945050505050565b60005b8381101561047657818101518382015260200161045e565b50506000910152565b6000825161049181846020870161045b565b9190910192915050565b600081518084526104b381602086016020860161045b565b601f01601f19169290920160200192915050565b60608152600760608201526630b2322ab9b2b960c91b608082015260a0602082015260006104f860a083018461049b565b828103604093840152601181527024b739b2b93a34b7b71037b3102ab9b2b960791b60208201529190910192915050565b60608152600a6060820152693932b6b7bb32aab9b2b960b11b608082015260a06020820152600061055d60a083018461049b565b828103604093840152600f81526e2932b6b7bb30b61037b3102ab9b2b960891b60208201529190910192915050565b6060815260086060820152671859191059d95b9d60c21b608082015260a0602082015260006105be60a083018461049b565b8281036040938401526012815271125b9cd95c9d1a5bdb881bd9881059d95b9d60721b60208201529190910192915050565b60608152600a606082015269616464436f6d70616e7960b01b608082015260a06020820152600061062460a083018461049b565b8281036040938401526014815273496e73657274696f6e206f6620436f6d70616e7960601b60208201529190910192915050565b60608152600b60608201526a1c995b5bdd995059d95b9d60aa1b608082015260a06020820152600061068d60a083018461049b565b828103604093840152601081526f14995b5bdd985b081bd9881059d95b9d60821b60208201529190910192915050565b60608152600d60608201526c72656d6f7665436f6d70616e7960981b608082015260a0602082015260006106f460a083018461049b565b828103604093840152601281527152656d6f76616c206f6620436f6d70616e7960701b6020820152919091019291505056fe977ad43df54956a5e7e9c2f3dbb198524df140c1ea3686b92c328e20c39eb134a264697066735822122090a12f95afa678f00ee6d1dcd9616c20efcd943fa12c24a9b91ea6c5b1e7755964736f6c63430008110033",
  "immutableReferences": {},
  "source": "// SPDX-License-Identifier: MIT\r\npragma solidity ^0.8.16;\r\n\r\n/**\r\n * @title Validation\r\n * @dev Contract with abstraction for validation of entities\r\n */\r\n\r\ncontract Validation {\r\n\r\n    event ValidationEvent(string method, string value, string eventMessage);\r\n\r\n    mapping(string => bool) private userValidation;\r\n    mapping(string => bool) private agentValidation;\r\n    mapping(string => bool) private companyValidation;\r\n\r\n    constructor() {}\r\n\r\n    function validateUser(string memory user) public view returns (bool) { \r\n        require(userValidation[user] == true);\r\n        return true;\r\n    }\r\n\r\n    function validateAgent(string memory agent) public view returns (bool) { \r\n        require(agentValidation[agent] == true);\r\n        return true;\r\n    }\r\n\r\n    function validateCompany(string memory company) public view returns (bool) { \r\n        require(companyValidation[company] == true);\r\n        return true;\r\n    }\r\n\r\n    function addUser(string memory user) public {\r\n        userValidation[user] = true;\r\n        emit ValidationEvent(\"addUser\", user, \"Insertion of User\");\r\n    }\r\n\r\n    function addAgent(string memory agent) public {\r\n        agentValidation[agent] = true;\r\n        emit ValidationEvent(\"addAgent\", agent, \"Insertion of Agent\");\r\n    }\r\n\r\n    function addCompany(string memory company) public {\r\n        companyValidation[company] = true;\r\n        emit ValidationEvent(\"addCompany\", company, \"Insertion of Company\");\r\n    }\r\n\r\n    function removeUser(string memory user) public {\r\n        userValidation[user] = false;\r\n        emit ValidationEvent(\"removeUser\", user, \"Removal of User\");\r\n    }\r\n\r\n    function removeAgent(string memory agent) public {\r\n        agentValidation[agent] = false;\r\n        emit ValidationEvent(\"removeAgent\", agent, \"Removal of Agent\");\r\n    }\r\n\r\n    function removeCompany(string memory company) public {\r\n        companyValidation[company] = false;\r\n        emit ValidationEvent(\"removeCompany\", company, \"Removal of Company\");\r\n\r\n    }\r\n}",
  "sourcePath": "D:\\Desktop\\FYP\\rrr-project\\webserver\\blockchain\\contracts\\Validation.sol",
  "compiler": {
    "name": "solc",
    "version": "0.8.17+commit.8df45f5f.Emscripten.clang"
  },
  "schemaVersion": "3.4.10",
  "updatedAt": "2023-01-02T20:11:30.798Z",
  "networkType": "ethereum",
  "devdoc": {
    "details": "Contract with abstraction for validation of entities",
    "kind": "dev",
    "methods": {},
    "title": "Validation",
    "version": 1
  },
  "userdoc": {
    "kind": "user",
    "methods": {},
    "version": 1
  }
}