{
  "contractName": "Reward",
  "abi": [
    {
      "inputs": [],
      "stateMutability": "nonpayable",
      "type": "constructor"
    },
    {
      "anonymous": false,
      "inputs": [
        {
          "indexed": false,
          "internalType": "string",
          "name": "account",
          "type": "string"
        },
        {
          "indexed": false,
          "internalType": "uint256",
          "name": "value",
          "type": "uint256"
        },
        {
          "indexed": false,
          "internalType": "string",
          "name": "transferMessage",
          "type": "string"
        }
      ],
      "name": "Transfer",
      "type": "event"
    },
    {
      "inputs": [
        {
          "internalType": "uint256",
          "name": "index_",
          "type": "uint256"
        }
      ],
      "name": "name",
      "outputs": [
        {
          "internalType": "string",
          "name": "",
          "type": "string"
        }
      ],
      "stateMutability": "view",
      "type": "function"
    },
    {
      "inputs": [
        {
          "internalType": "uint256",
          "name": "index_",
          "type": "uint256"
        }
      ],
      "name": "symbol",
      "outputs": [
        {
          "internalType": "string",
          "name": "",
          "type": "string"
        }
      ],
      "stateMutability": "view",
      "type": "function"
    },
    {
      "inputs": [
        {
          "internalType": "string",
          "name": "account",
          "type": "string"
        }
      ],
      "name": "balanceOf",
      "outputs": [
        {
          "internalType": "uint256",
          "name": "",
          "type": "uint256"
        }
      ],
      "stateMutability": "view",
      "type": "function"
    },
    {
      "inputs": [
        {
          "internalType": "string",
          "name": "to",
          "type": "string"
        },
        {
          "internalType": "uint256",
          "name": "amount",
          "type": "uint256"
        }
      ],
      "name": "transfer",
      "outputs": [
        {
          "internalType": "bool",
          "name": "",
          "type": "bool"
        }
      ],
      "stateMutability": "nonpayable",
      "type": "function"
    },
    {
      "inputs": [
        {
          "internalType": "string",
          "name": "from",
          "type": "string"
        },
        {
          "internalType": "string",
          "name": "to",
          "type": "string"
        },
        {
          "internalType": "uint256",
          "name": "amount",
          "type": "uint256"
        }
      ],
      "name": "transferFrom",
      "outputs": [
        {
          "internalType": "bool",
          "name": "",
          "type": "bool"
        }
      ],
      "stateMutability": "nonpayable",
      "type": "function"
    }
  ],
  "bytecode": "0x60806040526040518060400160405280601081526020017f7272722d7672696b726973616e6e656500000000000000000000000000000000815250600590816200004a9190620002f9565b503480156200005857600080fd5b506000600481905550600060018190555060006002819055506000600381905550620003e0565b600081519050919050565b7f4e487b7100000000000000000000000000000000000000000000000000000000600052604160045260246000fd5b7f4e487b7100000000000000000000000000000000000000000000000000000000600052602260045260246000fd5b600060028204905060018216806200010157607f821691505b602082108103620001175762000116620000b9565b5b50919050565b60008190508160005260206000209050919050565b60006020601f8301049050919050565b600082821b905092915050565b600060088302620001817fffffffffffffffffffffffffffffffffffffffffffffffffffffffffffffffff8262000142565b6200018d868362000142565b95508019841693508086168417925050509392505050565b6000819050919050565b6000819050919050565b6000620001da620001d4620001ce84620001a5565b620001af565b620001a5565b9050919050565b6000819050919050565b620001f683620001b9565b6200020e6200020582620001e1565b8484546200014f565b825550505050565b600090565b6200022562000216565b62000232818484620001eb565b505050565b5b818110156200025a576200024e6000826200021b565b60018101905062000238565b5050565b601f821115620002a95762000273816200011d565b6200027e8462000132565b810160208510156200028e578190505b620002a66200029d8562000132565b83018262000237565b50505b505050565b600082821c905092915050565b6000620002ce60001984600802620002ae565b1980831691505092915050565b6000620002e98383620002bb565b9150826002028217905092915050565b62000304826200007f565b67ffffffffffffffff81111562000320576200031f6200008a565b5b6200032c8254620000e8565b620003398282856200025e565b600060209050601f8311600181146200037157600084156200035c578287015190505b620003688582620002db565b865550620003d8565b601f19841662000381866200011d565b60005b82811015620003ab5784890151825560018201915060208501945060208101905062000384565b86831015620003cb5784890151620003c7601f891682620002bb565b8355505b6001600288020188555050505b505050505050565b61180780620003f06000396000f3fe608060405234801561001057600080fd5b50600436106100565760003560e01c8062ad800c1461005b57806312cb70c71461008b57806335ee5f87146100bb5780634e41a1fb146100eb5780635d1b1e6d1461011b575b600080fd5b61007560048036038101906100709190610f0c565b61014b565b6040516100829190610fc9565b60405180910390f35b6100a560048036038101906100a09190611120565b61024b565b6040516100b29190611197565b60405180910390f35b6100d560048036038101906100d091906111b2565b6106d5565b6040516100e2919061120a565b60405180910390f35b61010560048036038101906101009190610f0c565b610756565b6040516101129190610fc9565b60405180910390f35b61013560048036038101906101309190611225565b610856565b6040516101429190611197565b60405180910390f35b606060008054906101000a900473ffffffffffffffffffffffffffffffffffffffff1673ffffffffffffffffffffffffffffffffffffffff163373ffffffffffffffffffffffffffffffffffffffff16146101a557600080fd5b6009600083815260200190815260200160002060000180546101c6906112df565b80601f01602080910402602001604051908101604052809291908181526020018280546101f2906112df565b801561023f5780601f106102145761010080835404028352916020019161023f565b820191906000526020600020905b81548152906001019060200180831161022257829003601f168201915b50505050509050919050565b60008060009054906101000a900473ffffffffffffffffffffffffffffffffffffffff1673ffffffffffffffffffffffffffffffffffffffff163373ffffffffffffffffffffffffffffffffffffffff16146102a657600080fd5b60006006846040516102b8919061134c565b90815260200160405180910390205490506102dc8382610e2c90919063ffffffff16565b6006856040516102ec919061134c565b90815260200160405180910390208190555060008367ffffffffffffffff81111561031a57610319610ff5565b5b6040519080825280602002602001820160405280156103485781602001602082028036833780820191505090505b50905060005b8481101561047b5761036b60018054610e2c90919063ffffffff16565b60018190555060405180606001604052806005886040516020016103909291906113fb565b60405160208183030381529060405281526020016040518060400160405280600881526020017f53454c465553455200000000000000000000000000000000000000000000000081525081526020016103f56278645042610e2c90919063ffffffff16565b815250600960006001548152602001908152602001600020600082015181600001908161042291906115b6565b50602082015181600101908161043891906115b6565b506040820151816002015590505060015482828151811061045c5761045b611688565b5b6020026020010181815250508080610473906116e6565b91505061034e565b506104926001600254610e2c90919063ffffffff16565b600281905550604051806080016040528082815260200185815260200142815260200160011515815250600760056040516104cd919061172e565b9081526020016040518091039020866040516104e9919061134c565b9081526020016040518091039020600060025481526020019081526020016000206000820151816000019080519060200190610526929190610e58565b50602082015181600101556040820151816002015560608201518160030160006101000a81548160ff0219169083151502179055509050506105746001600354610e2c90919063ffffffff16565b6003819055506040518060c0016040528060058054610592906112df565b80601f01602080910402602001604051908101604052809291908181526020018280546105be906112df565b801561060b5780601f106105e05761010080835404028352916020019161060b565b820191906000526020600020905b8154815290600101906020018083116105ee57829003601f168201915b5050505050815260200186815260200182815260200185815260200142815260200160011515815250600860006003548152602001908152602001600020600082015181600001908161065e91906115b6565b50602082015181600101908161067491906115b6565b506040820151816002019080519060200190610691929190610e58565b50606082015181600301556080820151816004015560a08201518160050160006101000a81548160ff02191690831515021790555090505060019250505092915050565b60008060009054906101000a900473ffffffffffffffffffffffffffffffffffffffff1673ffffffffffffffffffffffffffffffffffffffff163373ffffffffffffffffffffffffffffffffffffffff161461073057600080fd5b600682604051610740919061134c565b9081526020016040518091039020549050919050565b606060008054906101000a900473ffffffffffffffffffffffffffffffffffffffff1673ffffffffffffffffffffffffffffffffffffffff163373ffffffffffffffffffffffffffffffffffffffff16146107b057600080fd5b6009600083815260200190815260200160002060010180546107d1906112df565b80601f01602080910402602001604051908101604052809291908181526020018280546107fd906112df565b801561084a5780601f1061081f5761010080835404028352916020019161084a565b820191906000526020600020905b81548152906001019060200180831161082d57829003601f168201915b50505050509050919050565b60008060009054906101000a900473ffffffffffffffffffffffffffffffffffffffff1673ffffffffffffffffffffffffffffffffffffffff163373ffffffffffffffffffffffffffffffffffffffff16146108b157600080fd5b8382806006836040516108c4919061134c565b90815260200160405180910390205410156108de57600080fd5b6000806006876040516108f1919061134c565b9081526020016040518091039020549150600688604051610912919061134c565b90815260200160405180910390205490506109368683610e2c90919063ffffffff16565b600688604051610946919061134c565b90815260200160405180910390208190555061096b8682610e4290919063ffffffff16565b60068960405161097b919061134c565b90815260200160405180910390208190555060008667ffffffffffffffff8111156109a9576109a8610ff5565b5b6040519080825280602002602001820160405280156109d75781602001602082028036833780820191505090505b50905060005b87811015610b09576109fa60018054610e2c90919063ffffffff16565b60018190555060405180606001604052808b8b604051602001610a1e929190611745565b60405160208183030381529060405281526020016040518060400160405280600881526020017f4147454e555345520000000000000000000000000000000000000000000000008152508152602001610a836278645042610e2c90919063ffffffff16565b8152506009600060015481526020019081526020016000206000820151816000019081610ab091906115b6565b506020820151816001019081610ac691906115b6565b5060408201518160020155905050600154828281518110610aea57610ae9611688565b5b6020026020010181815250508080610b01906116e6565b9150506109dd565b50610b3c6001600b8a604051610b1f919061134c565b908152602001604051809103902054610e2c90919063ffffffff16565b600b89604051610b4c919061134c565b908152602001604051809103902081905550610b906001600a8b604051610b73919061134c565b908152602001604051809103902054610e2c90919063ffffffff16565b600a8a604051610ba0919061134c565b908152602001604051809103902081905550610c006001600c8b604051610bc7919061134c565b90815260200160405180910390208a604051610be3919061134c565b908152602001604051809103902054610e2c90919063ffffffff16565b600c8a604051610c10919061134c565b908152602001604051809103902089604051610c2c919061134c565b90815260200160405180910390208190555060405180608001604052808281526020018881526020014281526020016001151581525060078a604051610c72919061134c565b908152602001604051809103902089604051610c8e919061134c565b90815260200160405180910390206000600c8c604051610cae919061134c565b90815260200160405180910390208b604051610cca919061134c565b90815260200160405180910390205481526020019081526020016000206000820151816000019080519060200190610d03929190610e58565b50602082015181600101556040820151816002015560608201518160030160006101000a81548160ff021916908315150217905550905050610d516001600354610e2c90919063ffffffff16565b6003819055506040518060c001604052808a8152602001898152602001828152602001888152602001428152602001600115158152506008600060035481526020019081526020016000206000820151816000019081610db191906115b6565b506020820151816001019081610dc791906115b6565b506040820151816002019080519060200190610de4929190610e58565b50606082015181600301556080820151816004015560a08201518160050160006101000a81548160ff0219169083151502179055509050506001955050505050509392505050565b60008183610e3a9190611769565b905092915050565b60008183610e50919061179d565b905092915050565b828054828255906000526020600020908101928215610e94579160200282015b82811115610e93578251825591602001919060010190610e78565b5b509050610ea19190610ea5565b5090565b5b80821115610ebe576000816000905550600101610ea6565b5090565b6000604051905090565b600080fd5b600080fd5b6000819050919050565b610ee981610ed6565b8114610ef457600080fd5b50565b600081359050610f0681610ee0565b92915050565b600060208284031215610f2257610f21610ecc565b5b6000610f3084828501610ef7565b91505092915050565b600081519050919050565b600082825260208201905092915050565b60005b83811015610f73578082015181840152602081019050610f58565b60008484015250505050565b6000601f19601f8301169050919050565b6000610f9b82610f39565b610fa58185610f44565b9350610fb5818560208601610f55565b610fbe81610f7f565b840191505092915050565b60006020820190508181036000830152610fe38184610f90565b905092915050565b600080fd5b600080fd5b7f4e487b7100000000000000000000000000000000000000000000000000000000600052604160045260246000fd5b61102d82610f7f565b810181811067ffffffffffffffff8211171561104c5761104b610ff5565b5b80604052505050565b600061105f610ec2565b905061106b8282611024565b919050565b600067ffffffffffffffff82111561108b5761108a610ff5565b5b61109482610f7f565b9050602081019050919050565b82818337600083830152505050565b60006110c36110be84611070565b611055565b9050828152602081018484840111156110df576110de610ff0565b5b6110ea8482856110a1565b509392505050565b600082601f83011261110757611106610feb565b5b81356111178482602086016110b0565b91505092915050565b6000806040838503121561113757611136610ecc565b5b600083013567ffffffffffffffff81111561115557611154610ed1565b5b611161858286016110f2565b925050602061117285828601610ef7565b9150509250929050565b60008115159050919050565b6111918161117c565b82525050565b60006020820190506111ac6000830184611188565b92915050565b6000602082840312156111c8576111c7610ecc565b5b600082013567ffffffffffffffff8111156111e6576111e5610ed1565b5b6111f2848285016110f2565b91505092915050565b61120481610ed6565b82525050565b600060208201905061121f60008301846111fb565b92915050565b60008060006060848603121561123e5761123d610ecc565b5b600084013567ffffffffffffffff81111561125c5761125b610ed1565b5b611268868287016110f2565b935050602084013567ffffffffffffffff81111561128957611288610ed1565b5b611295868287016110f2565b92505060406112a686828701610ef7565b9150509250925092565b7f4e487b7100000000000000000000000000000000000000000000000000000000600052602260045260246000fd5b600060028204905060018216806112f757607f821691505b60208210810361130a576113096112b0565b5b50919050565b600081905092915050565b600061132682610f39565b6113308185611310565b9350611340818560208601610f55565b80840191505092915050565b6000611358828461131b565b915081905092915050565b60008190508160005260206000209050919050565b60008154611385816112df565b61138f8186611310565b945060018216600081146113aa57600181146113bf576113f2565b60ff19831686528115158202860193506113f2565b6113c885611363565b60005b838110156113ea578154818901526001820191506020810190506113cb565b838801955050505b50505092915050565b60006114078285611378565b9150611413828461131b565b91508190509392505050565b60006020601f8301049050919050565b600082821b905092915050565b60006008830261146c7fffffffffffffffffffffffffffffffffffffffffffffffffffffffffffffffff8261142f565b611476868361142f565b95508019841693508086168417925050509392505050565b6000819050919050565b60006114b36114ae6114a984610ed6565b61148e565b610ed6565b9050919050565b6000819050919050565b6114cd83611498565b6114e16114d9826114ba565b84845461143c565b825550505050565b600090565b6114f66114e9565b6115018184846114c4565b505050565b5b818110156115255761151a6000826114ee565b600181019050611507565b5050565b601f82111561156a5761153b81611363565b6115448461141f565b81016020851015611553578190505b61156761155f8561141f565b830182611506565b50505b505050565b600082821c905092915050565b600061158d6000198460080261156f565b1980831691505092915050565b60006115a6838361157c565b9150826002028217905092915050565b6115bf82610f39565b67ffffffffffffffff8111156115d8576115d7610ff5565b5b6115e282546112df565b6115ed828285611529565b600060209050601f831160018114611620576000841561160e578287015190505b611618858261159a565b865550611680565b601f19841661162e86611363565b60005b8281101561165657848901518255600182019150602085019450602081019050611631565b86831015611673578489015161166f601f89168261157c565b8355505b6001600288020188555050505b505050505050565b7f4e487b7100000000000000000000000000000000000000000000000000000000600052603260045260246000fd5b7f4e487b7100000000000000000000000000000000000000000000000000000000600052601160045260246000fd5b60006116f182610ed6565b91507fffffffffffffffffffffffffffffffffffffffffffffffffffffffffffffffff8203611723576117226116b7565b5b600182019050919050565b600061173a8284611378565b915081905092915050565b6000611751828561131b565b915061175d828461131b565b91508190509392505050565b600061177482610ed6565b915061177f83610ed6565b9250828201905080821115611797576117966116b7565b5b92915050565b60006117a882610ed6565b91506117b383610ed6565b92508282039050818111156117cb576117ca6116b7565b5b9291505056fea26469706673582212201ebe77e4fea17359b8ae440394cf92ab10c7d2fc298869d1c22158787915197564736f6c63430008110033",
  "immutableReferences": {},
  "source": "// SPDX-License-Identifier: MIT\r\npragma solidity >0.4.25 <0.9.0;\r\nimport \"./SafeMath.sol\";\r\n\r\ncontract Reward {\r\n    /**\r\n     * @dev Emitted when `value` tokens are moved from one account (`from`) to\r\n     * another (`to`).\r\n     *\r\n     * Note that `value` may be zero.\r\n     */\r\n    event Transfer(string account, uint256 value, string transferMessage);\r\n\r\n    address private owner;\r\n    using SafeMath for uint256;\r\n    uint256 private _tokenCount;\r\n    uint256 private _selfCount;\r\n    uint256 private _transactionsCount;\r\n    uint256 private _totalSupply;\r\n\r\n    string private _self = \"rrr-vrikrisannee\";\r\n\r\n    struct Token {\r\n        string name;\r\n        string symbol;\r\n        uint256 expires;\r\n    }\r\n\r\n    struct TransactionData {\r\n        uint256[] tokens;\r\n        uint256 amount;\r\n        uint256 timestamp;\r\n        bool successful;\r\n    }\r\n\r\n    struct Transaction {\r\n        string from;\r\n        string to;\r\n        uint256[] tokens;\r\n        uint256 amount;\r\n        uint256 timestamp;\r\n        bool successful;\r\n    }\r\n\r\n    mapping(string => uint256) private _balances;\r\n    mapping(string => mapping(string => mapping(uint256 => TransactionData)))\r\n        private _transactionsData;\r\n    mapping(uint256 => Transaction) private _transactions;\r\n    mapping(uint256 => Token) private _tokens;\r\n\r\n    mapping(string => uint256) private _agentCount;\r\n    mapping(string => uint256) private _userCount;\r\n    mapping(string => mapping(string => uint256)) private _agentUserCount;\r\n\r\n    /**\r\n     * @dev Sets the value for tokenCount\r\n     */\r\n    constructor() {\r\n        _totalSupply = 0;\r\n        _tokenCount = 0;\r\n        _selfCount = 0;\r\n        _transactionsCount = 0;\r\n    }\r\n\r\n    /**\r\n     * @dev Checks the owner of the contract\r\n     */\r\n    modifier onlyOwner() {\r\n        require(msg.sender == owner);\r\n        _;\r\n    }\r\n\r\n    /**\r\n     * @dev Checks the owner of the contract\r\n     */\r\n    modifier amountThreshold(string memory account, uint256 amount) {\r\n        require(_balances[account] >= amount);\r\n        _;\r\n    }\r\n\r\n    /**\r\n     * @dev Returns the name of the token.\r\n     */\r\n    function name(uint256 index_) public view virtual onlyOwner returns (string memory) {\r\n        return _tokens[index_].name;\r\n    }\r\n\r\n    /**\r\n     * @dev Returns the symbol of the token, usually a shorter version of the\r\n     * name.\r\n     */\r\n    function symbol(uint256 index_)\r\n        public\r\n        view\r\n        virtual\r\n        onlyOwner\r\n        returns (string memory)\r\n    {\r\n        return _tokens[index_].symbol;\r\n    }\r\n\r\n    /**\r\n     * @dev See {IERC20-balanceOf}.\r\n     */\r\n    function balanceOf(string memory account)\r\n        public\r\n        view\r\n        virtual\r\n        onlyOwner\r\n        returns (uint256)\r\n    {\r\n        return _balances[account];\r\n    }\r\n\r\n    /**\r\n     * @dev See {IERC20-transfer}.\r\n     *\r\n     * Requirements:\r\n     *\r\n     * - `to` cannot be the non-existing entity.\r\n     * - the caller must have a balance of at least `amount`.\r\n     */\r\n    function transfer(string memory to, uint256 amount)\r\n        public\r\n        virtual\r\n        onlyOwner\r\n        returns (bool)\r\n    {\r\n        uint256 tempBalance;\r\n        tempBalance = _balances[to];\r\n        _balances[to] = tempBalance.add(amount);\r\n        uint256[] memory tokens_ = new uint256[](amount);\r\n\r\n        for (uint256 i = 0; i < amount; i++) {\r\n            _tokenCount = _tokenCount.add(1);\r\n            _tokens[_tokenCount] = Token({\r\n                name: string.concat(_self, to),\r\n                symbol: \"SELFUSER\",\r\n                expires: (block.timestamp).add(7890000)\r\n            });\r\n            tokens_[i] = (_tokenCount);\r\n        }\r\n\r\n        _selfCount = _selfCount.add(1);\r\n        _transactionsData[_self][to][_selfCount] = TransactionData({\r\n            tokens: tokens_,\r\n            amount: amount,\r\n            timestamp: block.timestamp,\r\n            successful: true\r\n        });\r\n\r\n        _transactionsCount = _transactionsCount.add(1);\r\n        _transactions[_transactionsCount] = Transaction({\r\n            from: _self,\r\n            to: to,\r\n            tokens: tokens_,\r\n            amount: amount,\r\n            timestamp: block.timestamp,\r\n            successful: true\r\n        });\r\n\r\n        return true;\r\n    }\r\n\r\n    /**\r\n     * @dev See {IERC20-transferFrom}.\r\n     *\r\n     * Emits an {Approval} event indicating the updated allowance. This is not\r\n     * required by the EIP.\r\n     *\r\n     * NOTE: Does not update the allowance if the current allowance\r\n     * is the maximum `uint256`.\r\n     *\r\n     * Requirements:\r\n     *\r\n     * - `from` and `to` cannot be the non-existing entities.\r\n     * - `from` must have a balance of at least `amount`.\r\n     *\r\n     */\r\n    function transferFrom(\r\n        string memory from,\r\n        string memory to,\r\n        uint256 amount\r\n    ) public virtual onlyOwner amountThreshold(from, amount) returns (bool) {\r\n        uint256 userBalance;\r\n        uint256 agentBalance;\r\n        userBalance = _balances[to];\r\n        agentBalance = _balances[from];\r\n        _balances[to] = userBalance.add(amount);\r\n        _balances[from] = agentBalance.sub(amount);\r\n        uint256[] memory tokens_ = new uint256[](amount);\r\n\r\n        for (uint256 i = 0; i < amount; i++) {\r\n            _tokenCount = _tokenCount.add(1);\r\n            _tokens[_tokenCount] = Token({\r\n                name: string.concat(from, to),\r\n                symbol: \"AGENUSER\",\r\n                expires: (block.timestamp).add(7890000)\r\n            });\r\n            tokens_[i] = (_tokenCount);\r\n        }\r\n\r\n        _userCount[to] = (_userCount[to]).add(1);\r\n        _agentCount[from] = (_agentCount[from]).add(1);\r\n        _agentUserCount[from][to] = (_agentUserCount[from][to]).add(1);\r\n\r\n        _transactionsData[from][to][\r\n            _agentUserCount[from][to]\r\n        ] = TransactionData({\r\n            tokens: tokens_,\r\n            amount: amount,\r\n            timestamp: block.timestamp,\r\n            successful: true\r\n        });\r\n\r\n        _transactionsCount = _transactionsCount.add(1);\r\n        _transactions[_transactionsCount] = Transaction({\r\n            from: from,\r\n            to: to,\r\n            tokens: tokens_,\r\n            amount: amount,\r\n            timestamp: block.timestamp,\r\n            successful: true\r\n        });\r\n\r\n        return true;\r\n    }\r\n\r\n    /** @dev Creates `amount` tokens and assigns them to `account`, increasing\r\n     * the total supply.\r\n     *\r\n     * Emits a {Transfer} event with `from` set to self.\r\n     *\r\n     * Requirements:\r\n     *\r\n     * - `account` cannot be the zero address.\r\n     */\r\n    function _mint(string memory account, uint256 amount) internal virtual onlyOwner {\r\n        _beforeTokenTransfer(_self, account, amount);\r\n\r\n        _totalSupply += amount;\r\n        unchecked {\r\n            // Overflow not possible: balance + amount is at most totalSupply + amount, which is checked above.\r\n            _balances[account] = (_balances[account]).add(amount);\r\n        }\r\n        emit Transfer(account, amount, \"Minting\");\r\n\r\n        _afterTokenTransfer(_self, account, amount);\r\n    }\r\n\r\n    /**\r\n     * @dev Destroys `amount` tokens from `account`, reducing the\r\n     * total supply.\r\n     *\r\n     * Emits a {Transfer} event with `to` set to the existing entity.\r\n     *\r\n     * Requirements:\r\n     *\r\n     * - `account` cannot be the non-existing entity.\r\n     * - `account` must have at least `amount` tokens.\r\n     */\r\n    function _burn(string memory account, uint256 amount) internal virtual onlyOwner {\r\n        _beforeTokenTransfer(account, _self, amount);\r\n\r\n        uint256 accountBalance = _balances[account];\r\n        require(accountBalance >= amount, \"ERC20: burn amount exceeds balance\");\r\n        unchecked {\r\n            _balances[account] = accountBalance.sub(amount);\r\n            // Overflow not possible: amount <= accountBalance <= totalSupply.\r\n            _totalSupply = _totalSupply.sub(amount);\r\n        }\r\n\r\n        emit Transfer(account, amount, \"Burning\");\r\n\r\n        _afterTokenTransfer(account, _self, amount);\r\n    }\r\n\r\n    /**\r\n     * @dev Hook that is called before any transfer of tokens. This includes\r\n     * minting and burning.\r\n     *\r\n     * Calling conditions:\r\n     *\r\n     * - when `from` and `to` are both existing entities, `amount` of ``from``'s tokens\r\n     * will be transferred to `to`.\r\n     * - when `from` is self, `amount` tokens will be minted for `to`.\r\n     * - when `to` is self, `amount` of ``from``'s tokens will be burned.\r\n     * - `from` and `to` are never both non-existing entities.\r\n     *\r\n     */\r\n    function _beforeTokenTransfer(\r\n        string memory from,\r\n        string memory to,\r\n        uint256 amount\r\n    ) internal virtual onlyOwner {}\r\n\r\n    /**\r\n     * @dev Hook that is called after any transfer of tokens. This includes\r\n     * minting and burning.\r\n     *\r\n     * Calling conditions:\r\n     *\r\n     * - when `from` and `to` are both existing entities, `amount` of ``from``'s tokens\r\n     * has been transferred to `to`.\r\n     * - when `from` is self, `amount` tokens have been minted for `to`.\r\n     * - when `to` is self, `amount` of ``from``'s tokens have been burned.\r\n     * - `from` and `to` are never both non-existing entities.\r\n     *\r\n     */\r\n    function _afterTokenTransfer(\r\n        string memory from,\r\n        string memory to,\r\n        uint256 amount\r\n    ) internal virtual onlyOwner {}\r\n}\r\n",
  "sourcePath": "D:\\Desktop\\FYP\\rrr-project\\webserver\\contracts\\Reward.sol",
  "compiler": {
    "name": "solc",
    "version": "0.8.17+commit.8df45f5f.Emscripten.clang"
  },
  "schemaVersion": "3.4.10",
  "updatedAt": "2022-12-29T05:53:48.443Z",
  "devdoc": {
    "events": {
      "Transfer(string,uint256,string)": {
        "details": "Emitted when `value` tokens are moved from one account (`from`) to another (`to`). Note that `value` may be zero."
      }
    },
    "kind": "dev",
    "methods": {
      "balanceOf(string)": {
        "details": "See {IERC20-balanceOf}."
      },
      "constructor": {
        "details": "Sets the value for tokenCount"
      },
      "name(uint256)": {
        "details": "Returns the name of the token."
      },
      "symbol(uint256)": {
        "details": "Returns the symbol of the token, usually a shorter version of the name."
      },
      "transfer(string,uint256)": {
        "details": "See {IERC20-transfer}. Requirements: - `to` cannot be the non-existing entity. - the caller must have a balance of at least `amount`."
      },
      "transferFrom(string,string,uint256)": {
        "details": "See {IERC20-transferFrom}. Emits an {Approval} event indicating the updated allowance. This is not required by the EIP. NOTE: Does not update the allowance if the current allowance is the maximum `uint256`. Requirements: - `from` and `to` cannot be the non-existing entities. - `from` must have a balance of at least `amount`."
      }
    },
    "version": 1
  },
  "userdoc": {
    "kind": "user",
    "methods": {},
    "version": 1
  }
}