{
  "contractName": "Tracking",
  "abi": [
    {
      "anonymous": false,
      "inputs": [
        {
          "indexed": false,
          "internalType": "address",
          "name": "addressProducer",
          "type": "address"
        },
        {
          "indexed": false,
          "internalType": "string",
          "name": "id",
          "type": "string"
        },
        {
          "indexed": false,
          "internalType": "string",
          "name": "entity",
          "type": "string"
        },
        {
          "indexed": false,
          "internalType": "uint256",
          "name": "CreationDate",
          "type": "uint256"
        },
        {
          "indexed": false,
          "internalType": "string",
          "name": "AcceptMessage",
          "type": "string"
        }
      ],
      "name": "CreateWaste",
      "type": "event"
    },
    {
      "anonymous": false,
      "inputs": [
        {
          "indexed": false,
          "internalType": "address",
          "name": "addressProducer",
          "type": "address"
        },
        {
          "indexed": false,
          "internalType": "string",
          "name": "id",
          "type": "string"
        },
        {
          "indexed": false,
          "internalType": "string",
          "name": "RejectMessage",
          "type": "string"
        }
      ],
      "name": "CreationReject",
      "type": "event"
    },
    {
      "anonymous": false,
      "inputs": [
        {
          "indexed": false,
          "internalType": "address",
          "name": "addressProducer",
          "type": "address"
        },
        {
          "indexed": false,
          "internalType": "string",
          "name": "entity",
          "type": "string"
        },
        {
          "indexed": false,
          "internalType": "string",
          "name": "id",
          "type": "string"
        },
        {
          "indexed": false,
          "internalType": "string",
          "name": "RejectMessage",
          "type": "string"
        }
      ],
      "name": "TransferReject",
      "type": "event"
    },
    {
      "anonymous": false,
      "inputs": [
        {
          "indexed": false,
          "internalType": "address",
          "name": "addressProducer",
          "type": "address"
        },
        {
          "indexed": false,
          "internalType": "string",
          "name": "entity",
          "type": "string"
        },
        {
          "indexed": false,
          "internalType": "string",
          "name": "id",
          "type": "string"
        },
        {
          "indexed": false,
          "internalType": "string",
          "name": "AcceptMessage",
          "type": "string"
        }
      ],
      "name": "TransferWaste",
      "type": "event"
    },
    {
      "inputs": [
        {
          "internalType": "string",
          "name": "id",
          "type": "string"
        },
        {
          "internalType": "string",
          "name": "description",
          "type": "string"
        },
        {
          "internalType": "string",
          "name": "user",
          "type": "string"
        }
      ],
      "name": "creationWaste",
      "outputs": [],
      "stateMutability": "nonpayable",
      "type": "function"
    },
    {
      "inputs": [
        {
          "internalType": "string",
          "name": "agent",
          "type": "string"
        },
        {
          "internalType": "string",
          "name": "id",
          "type": "string"
        }
      ],
      "name": "agentOwnWaste",
      "outputs": [],
      "stateMutability": "nonpayable",
      "type": "function"
    },
    {
      "inputs": [
        {
          "internalType": "string",
          "name": "company",
          "type": "string"
        },
        {
          "internalType": "string",
          "name": "id",
          "type": "string"
        }
      ],
      "name": "companyOwnWaste",
      "outputs": [],
      "stateMutability": "nonpayable",
      "type": "function"
    },
    {
      "inputs": [
        {
          "internalType": "string",
          "name": "id",
          "type": "string"
        }
      ],
      "name": "getProduct",
      "outputs": [
        {
          "internalType": "string",
          "name": "",
          "type": "string"
        },
        {
          "internalType": "string",
          "name": "",
          "type": "string"
        },
        {
          "internalType": "string",
          "name": "",
          "type": "string"
        },
        {
          "internalType": "string",
          "name": "",
          "type": "string"
        },
        {
          "internalType": "uint256",
          "name": "",
          "type": "uint256"
        }
      ],
      "stateMutability": "view",
      "type": "function"
    },
    {
      "inputs": [
        {
          "internalType": "string",
          "name": "user",
          "type": "string"
        },
        {
          "internalType": "string",
          "name": "id",
          "type": "string"
        }
      ],
      "name": "isUserOwner",
      "outputs": [
        {
          "internalType": "bool",
          "name": "",
          "type": "bool"
        }
      ],
      "stateMutability": "view",
      "type": "function"
    },
    {
      "inputs": [
        {
          "internalType": "string",
          "name": "agent",
          "type": "string"
        },
        {
          "internalType": "string",
          "name": "id",
          "type": "string"
        }
      ],
      "name": "isAgentOwner",
      "outputs": [
        {
          "internalType": "bool",
          "name": "",
          "type": "bool"
        }
      ],
      "stateMutability": "view",
      "type": "function"
    },
    {
      "inputs": [
        {
          "internalType": "string",
          "name": "company",
          "type": "string"
        },
        {
          "internalType": "string",
          "name": "id",
          "type": "string"
        }
      ],
      "name": "isCompanyOwner",
      "outputs": [
        {
          "internalType": "bool",
          "name": "",
          "type": "bool"
        }
      ],
      "stateMutability": "view",
      "type": "function"
    }
  ],
  "bytecode": "0x608060405234801561001057600080fd5b506118e2806100206000396000f3fe608060405234801561001057600080fd5b506004361061007d5760003560e01c80635516c8151161005b5780635516c815146100ea57806368111cce1461011a57806372baea7f1461014e578063865c70461461016a5761007d565b80630324dd7814610082578063193a04b41461009e57806336fee4a6146100ce575b600080fd5b61009c60048036038101906100979190610d6b565b61019a565b005b6100b860048036038101906100b39190610d6b565b61032b565b6040516100c59190610dfe565b60405180910390f35b6100e860048036038101906100e39190610d6b565b6103b9565b005b61010460048036038101906100ff9190610d6b565b61054a565b6040516101119190610dfe565b60405180910390f35b610134600480360381019061012f9190610e19565b6105d8565b604051610145959493929190610efa565b60405180910390f35b61016860048036038101906101639190610f69565b6108c8565b005b610184600480360381019061017f9190610d6b565b610b83565b6040516101919190610dfe565b60405180910390f35b6000816040516101aa919061104c565b908152602001604051809103902060060160009054906101000a900460ff1661020d577f96fced67c9c441e438c7427605f557b582fa916e993cc6e5f55ef55d81598f7133838360405161020093929190611116565b60405180910390a1610327565b60028260405161021d919061104c565b908152602001604051809103902060009054906101000a900460ff1661027d577f96fced67c9c441e438c7427605f557b582fa916e993cc6e5f55ef55d81598f71338383604051610270939291906111ba565b60405180910390a1610327565b8160008260405161028e919061104c565b908152602001604051809103902060030190816102ab919061141e565b50426005836040516102bd919061104c565b9081526020016040518091039020826040516102d9919061104c565b9081526020016040518091039020819055507fb74519f241acb9b97f5d5bffe7f4ed497349c8d1ff9a85053b1da7e55454e1e833838360405161031e9392919061153c565b60405180910390a15b5050565b600060038360405161033d919061104c565b908152602001604051809103902060009054906101000a900460ff1680156103a057506000600684604051610372919061104c565b90815260200160405180910390208360405161038e919061104c565b90815260200160405180910390205414155b156103ae57600190506103b3565b600090505b92915050565b6000816040516103c9919061104c565b908152602001604051809103902060060160009054906101000a900460ff1661042c577f96fced67c9c441e438c7427605f557b582fa916e993cc6e5f55ef55d81598f7133838360405161041f93929190611116565b60405180910390a1610546565b60038260405161043c919061104c565b908152602001604051809103902060009054906101000a900460ff1661049c577f96fced67c9c441e438c7427605f557b582fa916e993cc6e5f55ef55d81598f7133838360405161048f939291906115e0565b60405180910390a1610546565b816000826040516104ad919061104c565b908152602001604051809103902060040190816104ca919061141e565b50426006836040516104dc919061104c565b9081526020016040518091039020826040516104f8919061104c565b9081526020016040518091039020819055507fb74519f241acb9b97f5d5bffe7f4ed497349c8d1ff9a85053b1da7e55454e1e833838360405161053d93929190611684565b60405180910390a15b5050565b600060028360405161055c919061104c565b908152602001604051809103902060009054906101000a900460ff1680156105bf57506000600584604051610591919061104c565b9081526020016040518091039020836040516105ad919061104c565b90815260200160405180910390205414155b156105cd57600190506105d2565b600090505b92915050565b606080606080600080866040516105ef919061104c565b9081526020016040518091039020600101600087604051610610919061104c565b9081526020016040518091039020600201600088604051610631919061104c565b9081526020016040518091039020600301600089604051610652919061104c565b908152602001604051809103902060040160008a604051610673919061104c565b90815260200160405180910390206005015484805461069190611241565b80601f01602080910402602001604051908101604052809291908181526020018280546106bd90611241565b801561070a5780601f106106df5761010080835404028352916020019161070a565b820191906000526020600020905b8154815290600101906020018083116106ed57829003601f168201915b5050505050945083805461071d90611241565b80601f016020809104026020016040519081016040528092919081815260200182805461074990611241565b80156107965780601f1061076b57610100808354040283529160200191610796565b820191906000526020600020905b81548152906001019060200180831161077957829003601f168201915b505050505093508280546107a990611241565b80601f01602080910402602001604051908101604052809291908181526020018280546107d590611241565b80156108225780601f106107f757610100808354040283529160200191610822565b820191906000526020600020905b81548152906001019060200180831161080557829003601f168201915b5050505050925081805461083590611241565b80601f016020809104026020016040519081016040528092919081815260200182805461086190611241565b80156108ae5780601f10610883576101008083540402835291602001916108ae565b820191906000526020600020905b81548152906001019060200180831161089157829003601f168201915b505050505091509450945094509450945091939590929450565b6000836040516108d8919061104c565b908152602001604051809103902060060160009054906101000a900460ff161561093a577fec49f0c2e660fdeb9873c615b8d9a6c0cad3698035cc033dc10af16f220e2c39338460405161092d929190611728565b60405180910390a1610b7e565b60018160405161094a919061104c565b908152602001604051809103902060009054906101000a900460ff166109a8577fec49f0c2e660fdeb9873c615b8d9a6c0cad3698035cc033dc10af16f220e2c39338460405161099b9291906117b7565b60405180910390a1610b7e565b6040518060e001604052808481526020018381526020018281526020016040518060400160405280600181526020017f2d0000000000000000000000000000000000000000000000000000000000000081525081526020016040518060400160405280600181526020017f2d00000000000000000000000000000000000000000000000000000000000000815250815260200142815260200160011515815250600084604051610a58919061104c565b90815260200160405180910390206000820151816000019081610a7b919061141e565b506020820151816001019081610a91919061141e565b506040820151816002019081610aa7919061141e565b506060820151816003019081610abd919061141e565b506080820151816004019081610ad3919061141e565b5060a0820151816005015560c08201518160060160006101000a81548160ff02191690831515021790555090505042600482604051610b12919061104c565b908152602001604051809103902084604051610b2e919061104c565b9081526020016040518091039020819055507feae311485a793bcfc951ad9de0edca46eccd222d8b069bb07a87a3ae944fc77f33848342604051610b759493929190611846565b60405180910390a15b505050565b6000600183604051610b95919061104c565b908152602001604051809103902060009054906101000a900460ff168015610bf857506000600484604051610bca919061104c565b908152602001604051809103902083604051610be6919061104c565b90815260200160405180910390205414155b15610c065760019050610c0b565b600090505b92915050565b6000604051905090565b600080fd5b600080fd5b600080fd5b600080fd5b6000601f19601f8301169050919050565b7f4e487b7100000000000000000000000000000000000000000000000000000000600052604160045260246000fd5b610c7882610c2f565b810181811067ffffffffffffffff82111715610c9757610c96610c40565b5b80604052505050565b6000610caa610c11565b9050610cb68282610c6f565b919050565b600067ffffffffffffffff821115610cd657610cd5610c40565b5b610cdf82610c2f565b9050602081019050919050565b82818337600083830152505050565b6000610d0e610d0984610cbb565b610ca0565b905082815260208101848484011115610d2a57610d29610c2a565b5b610d35848285610cec565b509392505050565b600082601f830112610d5257610d51610c25565b5b8135610d62848260208601610cfb565b91505092915050565b60008060408385031215610d8257610d81610c1b565b5b600083013567ffffffffffffffff811115610da057610d9f610c20565b5b610dac85828601610d3d565b925050602083013567ffffffffffffffff811115610dcd57610dcc610c20565b5b610dd985828601610d3d565b9150509250929050565b60008115159050919050565b610df881610de3565b82525050565b6000602082019050610e136000830184610def565b92915050565b600060208284031215610e2f57610e2e610c1b565b5b600082013567ffffffffffffffff811115610e4d57610e4c610c20565b5b610e5984828501610d3d565b91505092915050565b600081519050919050565b600082825260208201905092915050565b60005b83811015610e9c578082015181840152602081019050610e81565b60008484015250505050565b6000610eb382610e62565b610ebd8185610e6d565b9350610ecd818560208601610e7e565b610ed681610c2f565b840191505092915050565b6000819050919050565b610ef481610ee1565b82525050565b600060a0820190508181036000830152610f148188610ea8565b90508181036020830152610f288187610ea8565b90508181036040830152610f3c8186610ea8565b90508181036060830152610f508185610ea8565b9050610f5f6080830184610eeb565b9695505050505050565b600080600060608486031215610f8257610f81610c1b565b5b600084013567ffffffffffffffff811115610fa057610f9f610c20565b5b610fac86828701610d3d565b935050602084013567ffffffffffffffff811115610fcd57610fcc610c20565b5b610fd986828701610d3d565b925050604084013567ffffffffffffffff811115610ffa57610ff9610c20565b5b61100686828701610d3d565b9150509250925092565b600081905092915050565b600061102682610e62565b6110308185611010565b9350611040818560208601610e7e565b80840191505092915050565b6000611058828461101b565b915081905092915050565b600073ffffffffffffffffffffffffffffffffffffffff82169050919050565b600061108e82611063565b9050919050565b61109e81611083565b82525050565b7f576173746520646f6573206e6f7420657869737420776974682074686973206960008201527f6400000000000000000000000000000000000000000000000000000000000000602082015250565b6000611100602183610e6d565b915061110b826110a4565b604082019050919050565b600060808201905061112b6000830186611095565b818103602083015261113d8185610ea8565b905081810360408301526111518184610ea8565b90508181036060830152611164816110f3565b9050949350505050565b7f4167656e7420646f6573206e6f74206578697374000000000000000000000000600082015250565b60006111a4601483610e6d565b91506111af8261116e565b602082019050919050565b60006080820190506111cf6000830186611095565b81810360208301526111e18185610ea8565b905081810360408301526111f58184610ea8565b9050818103606083015261120881611197565b9050949350505050565b7f4e487b7100000000000000000000000000000000000000000000000000000000600052602260045260246000fd5b6000600282049050600182168061125957607f821691505b60208210810361126c5761126b611212565b5b50919050565b60008190508160005260206000209050919050565b60006020601f8301049050919050565b600082821b905092915050565b6000600883026112d47fffffffffffffffffffffffffffffffffffffffffffffffffffffffffffffffff82611297565b6112de8683611297565b95508019841693508086168417925050509392505050565b6000819050919050565b600061131b61131661131184610ee1565b6112f6565b610ee1565b9050919050565b6000819050919050565b61133583611300565b61134961134182611322565b8484546112a4565b825550505050565b600090565b61135e611351565b61136981848461132c565b505050565b5b8181101561138d57611382600082611356565b60018101905061136f565b5050565b601f8211156113d2576113a381611272565b6113ac84611287565b810160208510156113bb578190505b6113cf6113c785611287565b83018261136e565b50505b505050565b600082821c905092915050565b60006113f5600019846008026113d7565b1980831691505092915050565b600061140e83836113e4565b9150826002028217905092915050565b61142782610e62565b67ffffffffffffffff8111156114405761143f610c40565b5b61144a8254611241565b611455828285611391565b600060209050601f8311600181146114885760008415611476578287015190505b6114808582611402565b8655506114e8565b601f19841661149686611272565b60005b828110156114be57848901518255600182019150602085019450602081019050611499565b868310156114db57848901516114d7601f8916826113e4565b8355505b6001600288020188555050505b505050505050565b7f5761737465207472616e73706f7274656420746f204167656e74000000000000600082015250565b6000611526601a83610e6d565b9150611531826114f0565b602082019050919050565b60006080820190506115516000830186611095565b81810360208301526115638185610ea8565b905081810360408301526115778184610ea8565b9050818103606083015261158a81611519565b9050949350505050565b7f436f6d70616e7920646f6573206e6f7420657869737400000000000000000000600082015250565b60006115ca601683610e6d565b91506115d582611594565b602082019050919050565b60006080820190506115f56000830186611095565b81810360208301526116078185610ea8565b9050818103604083015261161b8184610ea8565b9050818103606083015261162e816115bd565b9050949350505050565b7f5761737465207472616e73706f7274656420746f20436f6d70616e7900000000600082015250565b600061166e601c83610e6d565b915061167982611638565b602082019050919050565b60006080820190506116996000830186611095565b81810360208301526116ab8185610ea8565b905081810360408301526116bf8184610ea8565b905081810360608301526116d281611661565b9050949350505050565b7f576173746520666f72207468697320696420616c726561647920657869737400600082015250565b6000611712601f83610e6d565b915061171d826116dc565b602082019050919050565b600060608201905061173d6000830185611095565b818103602083015261174f8184610ea8565b9050818103604083015261176281611705565b90509392505050565b7f5573657220646f6573206e6f7420657869737400000000000000000000000000600082015250565b60006117a1601383610e6d565b91506117ac8261176b565b602082019050919050565b60006060820190506117cc6000830185611095565b81810360208301526117de8184610ea8565b905081810360408301526117f181611794565b90509392505050565b7f5375636365737366756c204372656174696f6e00000000000000000000000000600082015250565b6000611830601383610e6d565b915061183b826117fa565b602082019050919050565b600060a08201905061185b6000830187611095565b818103602083015261186d8186610ea8565b905081810360408301526118818185610ea8565b90506118906060830184610eeb565b81810360808301526118a181611823565b90509594505050505056fea2646970667358221220137540d9b660f08d557637af3e31912ce44365c6bc201a09eab9f056d37b373264736f6c63430008110033",
  "immutableReferences": {},
  "source": "// SPDX-License-Identifier: MIT\r\npragma solidity >0.5.0 <0.9.0;\r\n\r\n/**\r\n * @title Tracking\r\n * @dev Contract with abstraction for tracking\r\n */\r\n\r\ncontract Tracking {\r\n    /**\r\n     * @dev Define the structure for a waste submission\r\n     */\r\n    struct Waste {\r\n        string id;\r\n        string description;\r\n        string user;\r\n        string agent;\r\n        string company;\r\n        uint256 submitDate;\r\n        bool exist;\r\n    }\r\n\r\n    //   struct EntityWasteData {\r\n    //     string id;\r\n    //     uint256 transferDate;\r\n    //   }\r\n\r\n    /**\r\n     * @dev Mapping that define the storage of a product\r\n     */\r\n    mapping(string => Waste) private wasteStorage;\r\n\r\n    mapping(string => bool) private userValidation;\r\n    mapping(string => bool) private agentValidation;\r\n    mapping(string => bool) private companyValidation;\r\n\r\n    mapping(string => mapping(string => uint256)) private userStorage;\r\n    mapping(string => mapping(string => uint256)) private agentStorage;\r\n    mapping(string => mapping(string => uint256)) private companyStorage;\r\n\r\n    /**\r\n     * @dev Declare events according the supply chain operations:\r\n     */\r\n    event CreateWaste(\r\n        address addressProducer,\r\n        string id,\r\n        string entity,\r\n        uint256 CreationDate,\r\n        string AcceptMessage\r\n    );\r\n    event TransferWaste(\r\n        address addressProducer,\r\n        string entity,\r\n        string id,\r\n        string AcceptMessage\r\n    );\r\n    //event setPrice(string id, uint32 salePrice);\r\n    event TransferReject(\r\n        address addressProducer,\r\n        string entity,\r\n        string id,\r\n        string RejectMessage\r\n    );\r\n    event CreationReject(\r\n        address addressProducer,\r\n        string id,\r\n        string RejectMessage\r\n    );\r\n\r\n    /**\r\n     * @dev Function that create the Waste Entry:\r\n     */\r\n    function creationWaste(\r\n        string memory id,\r\n        string memory description,\r\n        string memory user\r\n    ) public {\r\n        if (wasteStorage[id].exist) {\r\n            emit CreationReject(\r\n                msg.sender,\r\n                id,\r\n                \"Waste for this id already exist\"\r\n            );\r\n            return;\r\n        }\r\n\r\n        if (!userValidation[user]) {\r\n            emit CreationReject(msg.sender, id, \"User does not exist\");\r\n            return;\r\n        }\r\n\r\n        wasteStorage[id] = Waste(\r\n            id,\r\n            description,\r\n            user,\r\n            \"-\",\r\n            \"-\",\r\n            block.timestamp,\r\n            true\r\n        );\r\n        userStorage[user][id] = block.timestamp;\r\n        emit CreateWaste(\r\n            msg.sender,\r\n            id,\r\n            user,\r\n            block.timestamp,\r\n            \"Successful Creation\"\r\n        );\r\n    }\r\n\r\n    /**\r\n     * @dev Function that makes the transfer of ownership of waste to agent:\r\n     */\r\n    function agentOwnWaste(string memory agent, string memory id) public {\r\n        if (!wasteStorage[id].exist) {\r\n            emit TransferReject(\r\n                msg.sender,\r\n                agent,\r\n                id,\r\n                \"Waste does not exist with this id\"\r\n            );\r\n            return;\r\n        }\r\n\r\n        if (!agentValidation[agent]) {\r\n            emit TransferReject(msg.sender, agent, id, \"Agent does not exist\");\r\n            return;\r\n        }\r\n\r\n        wasteStorage[id].agent = agent;\r\n        agentStorage[agent][id] = block.timestamp;\r\n        emit TransferWaste(msg.sender, agent, id, \"Waste transported to Agent\");\r\n    }\r\n\r\n    /**\r\n     * @dev Function that makes the transfer of ownership of waste to company:\r\n     */\r\n    function companyOwnWaste(string memory company, string memory id) public {\r\n        if (!wasteStorage[id].exist) {\r\n            emit TransferReject(\r\n                msg.sender,\r\n                company,\r\n                id,\r\n                \"Waste does not exist with this id\"\r\n            );\r\n            return;\r\n        }\r\n\r\n        if (!companyValidation[company]) {\r\n            emit TransferReject(\r\n                msg.sender,\r\n                company,\r\n                id,\r\n                \"Company does not exist\"\r\n            );\r\n            return;\r\n        }\r\n\r\n        wasteStorage[id].company = company;\r\n        companyStorage[company][id] = block.timestamp;\r\n        emit TransferWaste(\r\n            msg.sender,\r\n            company,\r\n            id,\r\n            \"Waste transported to Company\"\r\n        );\r\n    }\r\n\r\n    /**\r\n     * @dev Getter of the characteristic of waste:\r\n     */\r\n    function getProduct(string memory id)\r\n        public\r\n        view\r\n        returns (\r\n            string memory,\r\n            string memory,\r\n            string memory,\r\n            string memory,\r\n            uint256\r\n        )\r\n    {\r\n        return (\r\n            wasteStorage[id].description,\r\n            wasteStorage[id].user,\r\n            wasteStorage[id].agent,\r\n            wasteStorage[id].company,\r\n            wasteStorage[id].submitDate\r\n        );\r\n    }\r\n\r\n    /**\r\n     * @dev Funcion to check the ownership of waste from user:\r\n     */\r\n    function isUserOwner(string memory user, string memory id)\r\n        public\r\n        view\r\n        returns (bool)\r\n    {\r\n        if (userValidation[user] && userStorage[user][id] != 0) {\r\n            return true;\r\n        }\r\n\r\n        return false;\r\n    }\r\n\r\n    /**\r\n     * @dev Funcion to check the ownership of waste from agent:\r\n     */\r\n    function isAgentOwner(string memory agent, string memory id)\r\n        public\r\n        view\r\n        returns (bool)\r\n    {\r\n        if (agentValidation[agent] && agentStorage[agent][id] != 0) {\r\n            return true;\r\n        }\r\n\r\n        return false;\r\n    }\r\n\r\n    /**\r\n     * @dev Funcion to check the ownership of waste from company:\r\n     */\r\n    function isCompanyOwner(string memory company, string memory id)\r\n        public\r\n        view\r\n        returns (bool)\r\n    {\r\n        if (companyValidation[company] && companyStorage[company][id] != 0) {\r\n            return true;\r\n        }\r\n\r\n        return false;\r\n    }\r\n}\r\n",
  "sourcePath": "D:\\Desktop\\FYP\\rrr-project\\webserver\\contracts\\Tracking.sol",
  "compiler": {
    "name": "solc",
    "version": "0.8.17+commit.8df45f5f.Emscripten.clang"
  },
  "schemaVersion": "3.4.10",
  "updatedAt": "2022-12-29T05:53:48.473Z",
  "devdoc": {
    "details": "Contract with abstraction for tracking",
    "events": {
      "CreateWaste(address,string,string,uint256,string)": {
        "details": "Declare events according the supply chain operations:"
      }
    },
    "kind": "dev",
    "methods": {
      "agentOwnWaste(string,string)": {
        "details": "Function that makes the transfer of ownership of waste to agent:"
      },
      "companyOwnWaste(string,string)": {
        "details": "Function that makes the transfer of ownership of waste to company:"
      },
      "creationWaste(string,string,string)": {
        "details": "Function that create the Waste Entry:"
      },
      "getProduct(string)": {
        "details": "Getter of the characteristic of waste:"
      },
      "isAgentOwner(string,string)": {
        "details": "Funcion to check the ownership of waste from agent:"
      },
      "isCompanyOwner(string,string)": {
        "details": "Funcion to check the ownership of waste from company:"
      },
      "isUserOwner(string,string)": {
        "details": "Funcion to check the ownership of waste from user:"
      }
    },
    "stateVariables": {
      "wasteStorage": {
        "details": "Mapping that define the storage of a product"
      }
    },
    "title": "Tracking",
    "version": 1
  },
  "userdoc": {
    "kind": "user",
    "methods": {},
    "version": 1
  }
}