{
  "contractName": "Validation",
  "abi": [
    {
      "inputs": [],
      "stateMutability": "nonpayable",
      "type": "constructor"
    },
    {
      "inputs": [
        {
          "internalType": "string",
          "name": "user",
          "type": "string"
        }
      ],
      "name": "validateUser",
      "outputs": [
        {
          "internalType": "bool",
          "name": "",
          "type": "bool"
        }
      ],
      "stateMutability": "view",
      "type": "function"
    },
    {
      "inputs": [
        {
          "internalType": "string",
          "name": "agent",
          "type": "string"
        }
      ],
      "name": "validateAgent",
      "outputs": [
        {
          "internalType": "bool",
          "name": "",
          "type": "bool"
        }
      ],
      "stateMutability": "view",
      "type": "function"
    },
    {
      "inputs": [
        {
          "internalType": "string",
          "name": "company",
          "type": "string"
        }
      ],
      "name": "validateCompany",
      "outputs": [
        {
          "internalType": "bool",
          "name": "",
          "type": "bool"
        }
      ],
      "stateMutability": "view",
      "type": "function"
    },
    {
      "inputs": [
        {
          "internalType": "string",
          "name": "user",
          "type": "string"
        }
      ],
      "name": "addUser",
      "outputs": [],
      "stateMutability": "nonpayable",
      "type": "function"
    },
    {
      "inputs": [
        {
          "internalType": "string",
          "name": "agent",
          "type": "string"
        }
      ],
      "name": "addAgent",
      "outputs": [],
      "stateMutability": "nonpayable",
      "type": "function"
    },
    {
      "inputs": [
        {
          "internalType": "string",
          "name": "company",
          "type": "string"
        }
      ],
      "name": "addCompany",
      "outputs": [],
      "stateMutability": "nonpayable",
      "type": "function"
    },
    {
      "inputs": [
        {
          "internalType": "string",
          "name": "user",
          "type": "string"
        }
      ],
      "name": "removeUser",
      "outputs": [],
      "stateMutability": "nonpayable",
      "type": "function"
    },
    {
      "inputs": [
        {
          "internalType": "string",
          "name": "agent",
          "type": "string"
        }
      ],
      "name": "removeAgent",
      "outputs": [],
      "stateMutability": "nonpayable",
      "type": "function"
    },
    {
      "inputs": [
        {
          "internalType": "string",
          "name": "company",
          "type": "string"
        }
      ],
      "name": "removeCompany",
      "outputs": [],
      "stateMutability": "nonpayable",
      "type": "function"
    }
  ],
  "bytecode": "0x608060405234801561001057600080fd5b50610370806100206000396000f3fe608060405234801561001057600080fd5b50600436106100935760003560e01c8063ca87e7b511610066578063ca87e7b5146100fa578063d6483d171461010d578063dea02fe314610120578063fb24ab0f14610133578063ffcee0a11461014657600080fd5b806318b8275a14610098578063600cee78146100ad578063a21dabb7146100c0578063b08eff93146100e7575b600080fd5b6100ab6100a636600461025a565b610159565b005b6100ab6100bb36600461025a565b61018e565b6100d36100ce36600461025a565b61019f565b604051901515815260200160405180910390f35b6100d36100f536600461025a565b6101da565b6100ab61010836600461025a565b6101eb565b6100ab61011b36600461025a565b6101fc565b6100ab61012e36600461025a565b61020e565b6100d361014136600461025a565b610220565b6100ab61015436600461025a565b610232565b600160008260405161016b919061030b565b908152604051908190036020019020805491151560ff1990921691909117905550565b6000808260405161016b919061030b565b60006002826040516101b1919061030b565b9081526040519081900360200190205460ff1615156001146101d257600080fd5b506001919050565b600080826040516101b1919061030b565b6001808260405161016b919061030b565b600160028260405161016b919061030b565b600060018260405161016b919061030b565b60006001826040516101b1919061030b565b600060028260405161016b919061030b565b634e487b7160e01b600052604160045260246000fd5b60006020828403121561026c57600080fd5b813567ffffffffffffffff8082111561028457600080fd5b818401915084601f83011261029857600080fd5b8135818111156102aa576102aa610244565b604051601f8201601f19908116603f011681019083821181831017156102d2576102d2610244565b816040528281528760208487010111156102eb57600080fd5b826020860160208301376000928101602001929092525095945050505050565b6000825160005b8181101561032c5760208186018101518583015201610312565b50600092019182525091905056fea2646970667358221220206e37de23faff22b7fd57d73bdc7535873e1e6709837ebf0e82fdab7f5fa26064736f6c63430008110033",
  "immutableReferences": {},
  "source": "// SPDX-License-Identifier: MIT\r\npragma solidity ^0.8.16;\r\n\r\n/**\r\n * @title Validation\r\n * @dev Contract with abstraction for validation of entities\r\n */\r\n\r\ncontract Validation {\r\n\r\n    mapping(string => bool) private userValidation;\r\n    mapping(string => bool) private agentValidation;\r\n    mapping(string => bool) private companyValidation;\r\n\r\n    constructor() {}\r\n\r\n    function validateUser(string memory user) public view returns (bool) { \r\n        require(userValidation[user] == true);\r\n        return true;\r\n    }\r\n\r\n    function validateAgent(string memory agent) public view returns (bool) { \r\n        require(agentValidation[agent] == true);\r\n        return true;\r\n    }\r\n\r\n    function validateCompany(string memory company) public view returns (bool) { \r\n        require(companyValidation[company] == true);\r\n        return true;\r\n    }\r\n\r\n    function addUser(string memory user) public {\r\n        userValidation[user] = true;\r\n    }\r\n\r\n    function addAgent(string memory agent) public {\r\n        agentValidation[agent] = true;\r\n    }\r\n\r\n    function addCompany(string memory company) public {\r\n        companyValidation[company] = true;\r\n    }\r\n\r\n    function removeUser(string memory user) public {\r\n        userValidation[user] = false;\r\n    }\r\n\r\n    function removeAgent(string memory agent) public {\r\n        agentValidation[agent] = false;\r\n    }\r\n\r\n    function removeCompany(string memory company) public {\r\n        companyValidation[company] = false;\r\n    }\r\n}",
  "sourcePath": "D:\\Desktop\\FYP\\rrr-project\\webserver\\contracts\\Validation.sol",
  "compiler": {
    "name": "solc",
    "version": "0.8.17+commit.8df45f5f.Emscripten.clang"
  },
  "schemaVersion": "3.4.10",
  "updatedAt": "2022-12-29T19:41:36.549Z",
  "networkType": "ethereum",
  "devdoc": {
    "details": "Contract with abstraction for validation of entities",
    "kind": "dev",
    "methods": {},
    "title": "Validation",
    "version": 1
  },
  "userdoc": {
    "kind": "user",
    "methods": {},
    "version": 1
  }
}